S02400006C6F636B4E45545F53465F4D53535F4D53535F434D335F305F6170702E7372656383
S315200000000000012099020020090300200B03002094
S315200000100D0300200F030020110300200000000024
S315200000200000000000000000000000001303002074
S3152000003015030020000000001703002019030020EC
S315200000401B0300201D0300201F0300202103002086
S315200000502303002025030020270300202903002056
S315200000602B0300202D03002079130020A913002044
S31520000070DD1B00200D1C0020DD220020390300207E
S315200000803B0300200D2300203F03002041030020D6
S315200000904303002045030020470300204903002096
S315200000A04B030020000000000000000000000000BC
S315200000B00000000000000000000000004D030020AA
S315200000C04F030020B10F00205303002055030020CA
S315200000D057030020590300205B0300205D03002006
S315200000E05F0300208D0F002063030020650300209E
S315200000F067030020690300206B0300206D030020A6
S315200001006F03002071030020730300207503002075
S3152000011077030020790300207B0300207D03002045
S315200001207F03002081030020830300208503002015
S3152000013087030020890300208B0300208D030020E5
S315200001408F030020910300209303002095030020B5
S3152000015097030020990300209B0300209D03002085
S315200001609F030020A1030020A3030020A503002055
S31520000170A7030020A9030020AB030020AD03002025
S31520000180AF030020B1030020B3030020B5030020F5
S31520000190B7030020B9030020BB030020BD030020C5
S315200001A0BF030020C1030020C3030020C503002095
S315200001B0C7030020C9030020CB030020CD03002065
S315200001C0CF030020D1030020D3030020D503002035
S315200001D0D7030020D9030020DB030020DD03002005
S315200001E0DF030020E1030020E3030020E5030020D5
S315200001F0E7030020E9030020EB030020ED030020A5
S31520000200EF030020F1030020F3030020F503002074
S31520000210F7030020F9030020FB030020FD03002044
S31520000220FF03002001040020030400200504002011
S3152000023007040020090400200B0400200D040020E0
S315200002400F040020110400201304002015040020B0
S3152000025017040020190400201B0400201D04002080
S315200002601F04002021040020230400202504002050
S3152000027027040020290400202B0400202D04002020
S315200002802F040020310400203304002035040020F0
S315200002903704002039040020684880476848002831
S315200002A00BD168486849694A884206D091421CBFEA
S315200002B050F8043B41F8043BF8D165486549664A45
S315200002C0884206D091421CBF50F8043B41F8043BBB
S315200002D0F8D162486249634A914218BF41F8040B3B
S315200002E0FAD100000000000000000000000000001D
S315200002F0DFF874010FF2030E00474FF000004FF0B5
S315200003000001DFF868F1FEE7FEE7FEE7FEE7FEE71D
S31520000310FEE7FEE7FEE7FEE7FEE7FEE7FEE7FEE78F
S31520000320FEE7FEE7FEE7FEE7FEE7FEE7FEE7FEE77F
S31520000330FEE7FEE7FEE7FEE7FEE7FEE7FEE7FEE76F
S31520000340FEE7FEE7FEE7FEE7FEE7FEE7FEE7FEE75F
S31520000350FEE7FEE7FEE7FEE7FEE7FEE7FEE7FEE74F
S31520000360FEE7FEE7FEE7FEE7FEE7FEE7FEE7FEE73F
S31520000370FEE7FEE7FEE7FEE7FEE7FEE7FEE7FEE72F
S31520000380FEE7FEE7FEE7FEE7FEE7FEE7FEE7FEE71F
S31520000390FEE7FEE7FEE7FEE7FEE7FEE7FEE7FEE70F
S315200003A0FEE7FEE7FEE7FEE7FEE7FEE7FEE7FEE7FF
S315200003B0FEE7FEE7FEE7FEE7FEE7FEE7FEE7FEE7EF
S315200003C0FEE7FEE7FEE7FEE7FEE7FEE7FEE7FEE7DF
S315200003D0FEE7FEE7FEE7FEE7FEE7FEE7FEE7FEE7CF
S315200003E0FEE7FEE7FEE7FEE7FEE7FEE7FEE7FEE7BF
S315200003F0FEE7FEE7FEE7FEE7FEE7FEE7FEE7FEE7AF
S31520000400FEE7FEE7FEE7FEE7FEE7FEE7FEE7FEE79E
S31520000410FEE7FEE7FEE7FEE7FEE7FEE7FEE7FEE78E
S31520000420FEE7FEE7FEE7FEE7FEE7FEE7FEE7FEE77E
S31520000430FEE7FEE7FEE7FEE7FEE700006124002078
S31520000440000000000000002000000020A08D0020F9
S31520000450A08D0020A08D0020C49200200000000066
S31520000460C492002068960020F9290020051000205B
S3152000047049F2C423C2F200031A780AB9012018707F
S31520000480704700BF48F6A050C2F2000008B50368C6
S315200004902BB140F20003C0F2000303B1984708BD18
S315200004A080B582B000AF4FF0120000F0A3FB0346E8
S315200004B0BB7149F20B33C2F200031B78022B13D116
S315200004C0BB7903F0A003002B0ED049F21443C2F2ED
S315200004D000031B889BB203F101039AB249F214432D
S315200004E0C2F200031A8081E049F20B33C2F2000304
S315200004F01B78022B45D1BB7903F04003002B40D05B
S315200005004FF0130000F076FB0346FB714FF010000E
S3152000051000F070FB03464FF00D00194600F08EFBED
S31520000520FB794FF0000049F21431C2F200011A465D
S3152000053000F0C2FB49F21133C2F20003FA791A70B5
S315200005404FF012004FF0FF0100F078FB4FF01A0039
S3152000055000F050FB0346A3F189039BB21A4649F2E9
S315200005600633C2F200031A8000F01CFA49F2103357
S31520000570C2F200031B78DBB2002B36D000F0E0F885
S3152000058034E049F20B33C2F200031B78032B15D15A
S31520000590BB7903F00803002B10D049F21233C2F2C4
S315200005A000031B889BB203F101039AB249F212336E
S315200005B0C2F200031A8000F0C3F817E049F20B33A9
S315200005C0C2F200031B78042B10D1BB7903F004037D
S315200005D0002B0BD0BA7902F0010249F20F33C2F296
S315200005E000031A7000F0ACF800E000BF4FF01200D4
S315200005F04FF0FF0100F022FB07F10807BD4680BD42
S3152000060080B485B000AF0346FB80FB88002B09D160
S3152000061049F20B33C2F200031B78032BF8D04FF0BC
S31520000620010310E0FA8844F24023C0F20F0303FBD3
S3152000063002F3BB604FF00003FB60FB6803F101038C
S31520000640FB604FF00003184607F11407BD4680BC37
S31520000650704700BF0000000080B584B002AF49F2A9
S315200006607040C2F2000001F0E9FA48F6CC13C2F25B
S3152000067000031B78009349F27040C2F200004FF04D
S3152000068000014FF000024FF0070300F0BFFF4FF0CC
S3152000069001004FF0800100F0D1FA4FF000033B60DB
S315200006A003E03B6803F101033B603A6848F29F632D
S315200006B0C0F201039A42F4DD4FF0060000F09AFAE8
S315200006C04FF0010000F096FA0346BB716FF07F03EE
S315200006D0FB71BA79FB799A4202D04FF0010324E0EC
S315200006E04FF00E004FF0000100F0A8FA4FF00F0077
S315200006F04FF0800100F0A2FA00F022F848F6D01060
S31520000700C2F2000000F070F84FF0080000F08EF8FA
S3152000071009A1D1E9000100F0A3F84FF00D004FF038
S31520000720000100F0E1F84FF00003184607F1080732
S31520000730BD4680BDAFF300800000000000988C40CD
S3152000074080B500AF49F20B33C2F200031B78002BB1
S315200007500CD04FF001004FF0010100F06FFA49F282
S315200007600B33C2F200034FF000021A7080BD00BFA7
S3152000077080B500AF49F20B33C2F200031B78022B7F
S3152000078012D04FF001004FF0050100F057FA4FF05C
S3152000079040004FF0000100F051FA49F20B33C2F24B
S315200007A000034FF002021A7080BD00BF80B500AF73
S315200007B049F20B33C2F200031B78032B12D04FF001
S315200007C001004FF0030100F039FA4FF040004FF0DE
S315200007D0400100F033FA49F20B33C2F200034FF026
S315200007E003021A7080BD00BF80B582B000AF78606A
S315200007F07B681B784FF01D00194600F01FFA7B68B6
S3152000080003F101031B784FF01E00194600F016FA7B
S315200008107B6803F102031B784FF02600194600F08F
S315200008200DFA07F10807BD4680BD00BF80B582B02E
S3152000083000AF0346FB80FB884FEA13239BB2DBB253
S315200008404FF02000194600F0F9F9FB88DBB24FF093
S315200008502100194600F0F2F907F10807BD4680BDD0
S3152000086080B584B000AFC7E90001D7E900011AA31B
S31520000870D3E9002301F08EFE02460B4610461946A8
S3152000088017A3D3E9002301F0AFFF02460B4610461B
S31520000890194602F091F80346FB60FB684FEA1343C2
S315200008A0DBB24FF00600194600F0C8F9FB684FEAA4
S315200008B01323DBB24FF00700194600F0BFF9FB689F
S315200008C0DBB24FF00800194600F0B8F907F110071F
S315200008D0BD4680BDAFF300800000000080842E411D
S315200008E00000000080844E4080B582B000AF0246F2
S315200008F00B46FA71BB71BB79002B1CD097F90730D8
S315200009000E2B02DD4FF00E03FB7197F90730B3F182
S31520000910FF3F02DA4FF0FF33FB71FB7903F101034E
S31520000920DBB243F07003DBB2DBB24FF009001946AD
S3152000093000F084F932E097F90730172B02DD4FF0EB
S315200009401703FB7197F90730042B02DC4FF00503E0
S31520000950FB7197F90730142B0BDD4FF04D004FF04C
S31520000960070100F06BF9FB79A3F10303DBB2FB71FE
S3152000097005E04FF04D004FF0040100F05FF9FB79E0
S31520000980A3F10503DBB26FEA43636FEA5363DBB27D
S31520000990DBB24FF00900194600F050F907F10807BD
S315200009A0BD4680BD80B400AF49F21133C2F20003C8
S315200009B01B78DBB2032B59D949F21433C2F2000358
S315200009C01A7849F21D43C2F200031A7049F2143311
S315200009D0C2F200035A7849F20D33C2F200031A70AC
S315200009E049F21433C2F200039A7849F21C43C2F248
S315200009F000031A7049F21433C2F20003DA7849F27E
S31520000A000E33C2F200031A7049F20C33C2F200030D
S31520000A101B78002B14D149F21D43C2F200031B7828
S31520000A20DAB249F20433C2F200031B789A4207D0A5
S31520000A3049F21D43C2F200031B78DBB2FF2B16D10D
S31520000A4049F20833C2F200031B889BB203F101036B
S31520000A509AB249F20833C2F200031A8049F21033DF
S31520000A60C2F200034FF001021A7000E000BFBD463B
S31520000A7080BC704780B500AF49F20B33C2F2000349
S31520000A801B78032B02D14FF0000307E0FFF770FE1F
S31520000A9049F21033C2F200031B78DBB2184680BD40
S31520000AA080B400AF49F21033C2F200034FF00002C7
S31520000AB01A7049F21133C2F200034FF000021A7085
S31520000AC0BD4680BC704700BF80B582B000AF78605D
S31520000AD00B46FB70FB78FB2B03D94FF0000318461F
S31520000AE045E04FF00000FFF78BFDFFF729FE4FF0A2
S31520000AF00D004FF0000100F0A1F849F20A33C2F2CE
S31520000B0000031B784FF00000194600F097F849F2D1
S31520000B101643C2F200031B784FF00000194600F07E
S31520000B208DF849F20533C2F200031B784FF000001E
S31520000B30194600F083F849F21E43C2F200031B78DF
S31520000B404FF00000194600F079F8FB784FF00000CE
S31520000B5079681A4600F026F9FB7803F10403DBB224
S31520000B604FF02200194600F069F8FFF71FFE07F143
S31520000B700807BD4680BD00BF80B582B000AF786053
S31520000B803960FFF777FF0346002B02D14FF00003B1
S31520000B9028E07B68002B21D03B68002B1ED03B68C9
S31520000BA01B781A4649F21133C2F200031B78DBB2D6
S31520000BB0A3F104039A420ADD49F21133C2F200037B
S31520000BC01B78DBB2A3F10403DAB23B681A703B68E8
S31520000BD01B78786806491A4601F036FFFFF760FF52
S31520000BE04FF00103184607F10807BD4680BD00BF38
S31520000BF01893002080B584B000AF0346FB714FF0F8
S31520000C0008004FF0000101F0D5FBFB794FEA0323E2
S31520000C1049F27040C2F20000194600F025FE034654
S31520000C20FB734FF008004FF0010101F0C3FBFB7B83
S31520000C30184607F11007BD4680BD00BF80B584B0B9
S31520000C4000AF02460B46FA71BB71FB794FEA0323CC
S31520000C509BB26FEA43436FEA53439AB2BB7942EAA7
S31520000C6003039BB2FB8149F27040C2F200004FF0B1
S31520000C70000100F04BFD4FF008004FF0000101F09D
S31520000C8099FBFB8949F27040C2F20000194600F038
S31520000C90EBFD4FF008004FF0010101F08BFB49F20C
S31520000CA07040C2F200004FF0000100F095FD07F100
S31520000CB01007BD4680BD00BF90B589B002AFB960B0
S31520000CC013460246FA73FB7148F6CD13C2F20003AF
S31520000CD01B78009349F27040C2F200004FF00001E9
S31520000CE04FF000024FF0070300F090FC4FF0000396
S31520000CF0FB7449F27040C2F200004FF0000100F090
S31520000D0005FD4FF008004FF0000101F053FBFB7B7F
S31520000D1049F27040C2F20000194600F0A5FD0346D4
S31520000D20FB744FF000037B6112E07A69BB6802EB2B
S31520000D30030449F27040C2F200004FF0000100F0B7
S31520000D4093FD0346DBB223707B6903F101037B61CC
S31520000D50FA797B699A42E8DC4FF008004FF00101EE
S31520000D6001F028FB49F27040C2F200004FF000016A
S31520000D7000F032FD48F6CC13C2F200031B78009334
S31520000D8049F27040C2F200004FF000014FF000021D
S31520000D904FF0070300F03AFCFB7C184607F11C07CE
S31520000DA0BD4690BD80B588B002AFB96013460246F5
S31520000DB0FA73FB7148F6CD13C2F200031B78009339
S31520000DC049F27040C2F200004FF000014FF00002DD
S31520000DD04FF0070300F01AFC4FF00003FB7449F2B2
S31520000DE07040C2F200004FF0000100F08FFC4FF07F
S31520000DF008004FF0000101F0DDFAFB7B6FEA436348
S31520000E006FEA5363DBB249F27040C2F20000194622
S31520000E1000F02AFD0346FB744FF000037B610EE0D1
S31520000E207A69BB6813441B7849F27040C2F200000D
S31520000E30194600F019FD7B6903F101037B61FA79FC
S31520000E407B699A42ECDC4FF008004FF0010101F07B
S31520000E50B1FA49F27040C2F200004FF0000100F0F2
S31520000E60BBFC48F6CC13C2F200031B78009349F270
S31520000E707040C2F200004FF000014FF000024FF028
S31520000E80070300F0C3FBFB7C184607F11807BD4695
S31520000E9080BD00BF80B500AFFFF7DEFB0346012B08
S31520000EA006D148F6D410C2F2000001F06DFF80BDD5
S31520000EB000F002F8FCE700BF80B5C6B000AFFFF730
S31520000EC0D9FD034687F8173148F6E410C2F2000030
S31520000ED001F0ECFE97F81731184601F0E7FE48F6C8
S31520000EE0F410C2F2000001F04FFF97F81731002BE3
S31520000EF048D06FF0040387F8163107F1040207F58E
S31520000F008B7310461946FFF737FE0346002B33D066
S31520000F1048F6F810C2F2000001F0C8FE07F10403FB
S31520000F20184601F0C3FE48F6F410C2F2000001F0A4
S31520000F302BFF48F62823C2F2000307F5807C9E4645
S31520000F40BEE80F00ACE80F009EE80300CCF80000D6
S31520000F500CF1040CACF8001007F5807318464FF01E
S31520000F601601FFF7B1FDFFF74BFB48F60820C2F24A
S31520000F70000001F009FF05E048F61820C2F2000043
S31520000F8001F002FF07F58C77BD4680BD684620F04C
S31520000F9007018D4689B500AF4FF0090001F03CFAF4
S31520000FA0FFF77EFABD46BDE889408546704700BFFB
S31520000FB0684620F007018D4689B500AF4FF0010045
S31520000FC001F02AFA49F2C523C2F200031B78002B4E
S31520000FD007D149F2C523C2F200034FF001021A706D
S31520000FE006E049F2C523C2F200034FF000021A7050
S31520000FF04FF0010000F060F8BD46BDE88940854607
S31520001000704700BF80B584B000AF01F097F94FF06C
S3152000101008004FF0050101F0C1F94FF009004FF02B
S31520001020420101F0BBF94FF0090001F0D1F94FF070
S3152000103008004FF0010101F0BDF9FFF70DFB034653
S31520001040BB6048F64023C2F200031B687B604FF06A
S315200010500D004FF00001FFF7F1FD07F104034FF0FB
S31520001060000019464FF00402FFF79CFE4FF00003E4
S31520001070FB6003E0FB6803F10103FB60FA6848F2BA
S315200010809F63C0F201039A42F4DD4FF00D004FF04A
S315200010900001FFF7D3FD3B464FF0000019464FF005
S315200010A00402FFF709FEFFF7F5FE4FF0000318468E
S315200010B007F11007BD4680BD80B483B000AF03465C
S315200010C0FB7148F6A453C2F20003FA791A7007F1AD
S315200010D00C07BD4680BC70474FF0FF30704700BFFD
S315200010E0FEE700BF4FF400534B604FF000007047FF
S315200010F04FF00100704700BF4FF00000704700BF5F
S315200011004FF00000704700BF38B515461C4649F21F
S31520001110C823C2F200031B6883B949F24840C2F2D1
S3152000112000004FF461414FF0030200F055F949F2F7
S31520001130C823C2F200034FF001021A6049F2484068
S31520001140C2F200002946224600F034F8204638BD77
S3152000115008B549F2CC23C2F200031B6843B949F211
S31520001160CC23C2F2000349F26862C2F200021A607E
S3152000117049F2CC23C2F200031A68EFF30883104425
S3152000118083420FD24FF000004FF0010148F644226F
S31520001190C2F200024FF01903FFF7B6FF4FF001002D
S315200011A0FFF79EFF49F2CC23C2F2000318601046D7
S315200011B008BD00BF2DE9F00549F24843C2F20003FD
S315200011C0984206D049F22043C2F20003984200D04A
S315200011D000BE01B900BE02B900BE49F24843C2F2C0
S315200011E00003984205D049F22043C2F200039842F8
S315200011F033D1131E18BF012300290CBF002303F08F
S315200012000103002B29D04FF00007B8464FF0100AF3
S3152000121003681B7D90F80AC043EA0C0C80F80AC0CC
S3152000122013F0200F17D00F2A04D95646BC46434642
S315200012300F4404E00AB943460BE01646F6E7046875
S31520001240FD5C25700CF1010C03F101039E42F6D8DA
S315200012506746C3EB0202002ADAD1BDE8F0057047E3
S3152000126008B549F24843C2F20003984207D049F232
S315200012702043C2F20003984201D000BE08BD036895
S315200012801B7A03F00F030C2B20D8DFE803F0071F8F
S315200012900D1F131F191F1F1F1F1F1300436A0BB992
S315200012A000BE08BD984708BD036A0BB900BE08BD3D
S315200012B0984708BDC3690BB900BE08BD984708BD4D
S315200012C083690BB900BE08BD984708BD00BE08BD9E
S315200012D010B449F24843C2F20003984206D049F2BC
S315200012E02043C2F20003984200D000BEC26802B971
S315200012F000BE016901B900BE49F24843C2F20003AB
S31520001300984205D049F22043C2F20003984230D1D8
S31520001310002A2ED000292CD003681B7D827A43EA2E
S315200013200202827213F0200F1AD002694369C3EBBE
S3152000133002030F2B04D94FF0100C4FF0000302E0EC
S3152000134073B19C46F9E70268C4684169615C117013
S31520001350426902F10102426103F101036345F2D3BE
S31520001360426903699A4201BF002303614268C2F8B9
S31520001370843010BC704700BF684620F007018D46B8
S3152000138001B549F24840C2F20000FFF769FF4EF26C
S315200013900013CEF200034FF48062C3F88021BDE82B
S315200013A001408546704700BF684620F007018D46FC
S315200013B001B549F22040C2F20000FFF751FF4EF27C
S315200013C00013CEF200034FF40062C3F88021BDE87B
S315200013D001408546704700BF70B504460D46164647
S315200013E049F24843C2F20003984206D049F220430C
S315200013F0C2F20003984200D000BE05B900BE01F03B
S3152000140031F849F24843C2F200039C4226D149F200
S315200014104843C2F200034FF080421A604FF08442E4
S315200014205A604FF00A021A8148F6B053C2F20003FE
S31520001430186842F20003CEF204031A6B42F08002CF
S315200014401A634EF20012CEF200024FF48061C2F807
S3152000145080111A6B22F080021A6325E040F2000305
S31520001460C4F20103236040F20003C4F22023636028
S315200014704FF00B03238148F6B453C2F200031868D9
S3152000148042F20003CEF204031A6B42F480721A630E
S315200014904EF20012CEF200024FF40061C2F8801123
S315200014A01A6B22F480721A6323684FF000021A71B5
S315200014B015B94FF001050FE0B0FBF5F515F0080F53
S315200014C04FEA151518BF0135B5F5803F38BFADB2C7
S315200014D002D300BE4FF0010563684FF00102C3F846
S315200014E09C2123684FEA15221A712368EDB21D70DC
S315200014F062684FF00003C2F89C3122681673226896
S315200015004FF00E0111726268C2F810322361E36057
S315200015106361E36141F2D122C2F200022262A36139
S315200015206362A37270BD00BF2DE9F0070368D3F88C
S315200015300080D3F818C05F689E6A1D6B5C6BD3F879
S315200015401CA049F2F443C2F20003984224D149F286
S31520001550F443C2F2000341F20002C4F200021A6010
S315200015604FF00C01998042F20003CEF20403196B6E
S3152000157041F4007119634EF20011CEF200014FF4CE
S315200015808059C1F88091196B21F400711963136891
S3152000159023F0004313601FE041F20002C4F201026F
S315200015A002604FF00D03838042F20003CEF2040363
S315200015B0196B41F4806119634EF20011CEF20001DD
S315200015C04FF40059C1F88091196B21F48061196399
S315200015D0136823F00043136028F0010203681A60A1
S315200015E00368C3F818C003685F6003681A6842F08E
S315200015F001021A6003689E6203681D6303685C63C8
S315200016000368C3F81CA0BDE8F0077047F0B49DF846
S31520001610105049F2F44CC2F2000C604506D049F253
S31520001620704CC2F2000C604500D000BE072900D9DC
S3152000163000BE202D00D900BEB0F804C00FFA8CF6EB
S315200016404FEA56160CF01F0C4FF0010707FA0CF75D
S315200016504EF20014CEF2000406F1200644F826705D
S315200016604FF0000C80F880C00468266826F001063A
S3152000167026600468266846F0020626600468266806
S3152000168046F00106266007292DD8B2F1007F14BF47
S3152000169000240124624508BF44F0010454B9B2F184
S315200016A0407F14BF00240124B2F1807F08BF44F09C
S315200016B001044CB100EBC10440F2021CC2F2004C02
S315200016C042EA0C02626308E000EBC10440F2021C0D
S315200016D0C2F2000C42EA0C02626301F1060100EB41
S315200016E0C1010D724B7283881AB24FEA521203F06F
S315200016F01F034FF0010101FA03F14EF20013CEF25F
S31520001700000343F82210F0BC704700BF38B50446EA
S3152000171049F2F443C2F20003984206D049F27043DC
S31520001720C2F20003984200D000BE2268136813F06C
S31520001730020F00D100BE0D4604EBC1035B6BB3F173
S31520001740FF3F00D100BEA38819B24FEA511103F022
S315200017501F034FF0010000FA03F04EF20013CEF201
S31520001760000301F1200143F82100936813F0040FD0
S3152000177002D02046FFF7D8FE23681A6822F001021D
S315200017801A60226805F1060304EBC3035968116049
S315200017902268597A916122681B7A536023681A68F5
S315200017A042F001021A602268D1694FF0010303FA60
S315200017B005F545EA0105D561A28811B24FEA511116
S315200017C002F01F0203FA02F24EF20013CEF20003D9
S315200017D043F8212038BD00BF38B504460D4649F2EE
S315200017E0F443C2F20003984206D049F27043C2F293
S315200017F00003984200D000BE2268136813F0020F3F
S3152000180000D100BEA38819B24FEA511103F01F037D
S315200018104FF0010000FA03F04EF20013CEF200035F
S3152000182001F1200143F82100936813F0040F02D040
S315200018302046FFF779FE2268D1694FF0010303FAAB
S3152000184005F521EA0505D561A28811B24FEA5111A5
S3152000185002F01F0203FA02F24EF20013CEF2000348
S3152000186043F8212038BD00BF10B483B049F2F443B9
S31520001870C2F20003984206D049F27043C2F2000336
S31520001880984200D000BE03681A6812F0020F00D1F9
S3152000189000BE1C6840F2FF02CFF6007204EA020284
S315200018A042F480721A600368DA6A42F00C02DA6245
S315200018B003689A6812F0400F07D11A690192019ABB
S315200018C001929A6812F0400FF7D0596103689A681E
S315200018D012F0010F03D19A6812F0010FFBD09A681B
S315200018E012F0020F03D19A6812F0020FFBD018698A
S315200018F003B010BC704700BF10B40268936813F49D
S31520001900807F13D10369C1688B4213D28168CB5C77
S315200019105361036903F1010303610268916811F4BD
S31520001920807F03D1C1689942F0D803E00269C36879
S315200019309A4217D30268936813F4807F12D1C36941
S3152000194081698B420ED24169CB5C5361C36903F135
S315200019500103C3610268916811F4807F02D1816915
S315200019609942F0D8436ACBB10269C3689A4215D32B
S31520001970C26983699A4211D303689A6812F4807FF8
S315200019800CD14FF0000214465C610368996811F48B
S31520001990807F03D102F10102202AF5D110BC7047C5
S315200019A010B582B0044690F88030022B0CD105E0A9
S315200019B013690193636F13B101989847226893685E
S315200019C013F0400FF4D023E0012B03689A6803D06C
S315200019D012F0400F16D01BE012F0400F18D11B69F1
S315200019E00193236BE26A93423EBF0199A26AD154C6
S315200019F0236B03F10103236323689A6812F0400FD7
S31520001A00EDD005E01A6901929A6812F0400FF9D0DC
S31520001A1002B010BD70B582B00446056849F2F443A1
S31520001A20C2F20003984206D049F27043C2F2000384
S31520001A30984200D000BE2B6A13F0020F38D094F8DB
S31520001A408030022B0CD105E013690193636F13B12B
S31520001A50019898472268936813F0400FF4D023E04A
S31520001A60012BAB6803D013F0400F17D01CE013F006
S31520001A70400F19D12B461B690193236BE26A9342CF
S31520001A803EBF0199A26AD154236B03F1010323635C
S31520001A9023689A6812F0400FEDD005E02B69019378
S31520001AA0AB6813F0400FF9D023684FF00202DA60DA
S31520001AB02B6A13F0010F0ED094F88030022B03D13D
S31520001AC02368A26F5A6102E02046FFF715FF2368BC
S31520001AD04FF00102DA602B6A13F0100F16D0204661
S31520001AE0FFF75EFF236A2BB1A06A216B9847204639
S31520001AF0FFF702FF4FF00103636223689A6A22F020
S31520001B0010029A6223684FF01002DA602B6A13F0F3
S31520001B10040F0BD02368DA6A42F00402DA62204608
S31520001B20FFF702FD23684FF00402DA602B6A13F0F8
S31520001B30080F23D02368DA6A42F00802DA6294F8A2
S31520001B408030022B0ED12268116840F2FF03CFF6B7
S31520001B50007301EA030343F4807313602368A26FC2
S31520001B605A6107E0012B05D14FF00003236120467F
S31520001B70FFF7C2FE23684FF00802DA602B6A13F0E3
S31520001B80200F29D02046FFF70BFF266B236A73B15F
S31520001B904FF0000363626361A361E36123684FF042
S31520001BA01002DA6023689A6A42F010029A624FF0B5
S31520001BB0000525612368DA6A42F00C02DA622046C3
S31520001BC0FFF79AFE2563E36F13B1A06A3146984763
S31520001BD023684FF02002DA6002B070BD684620F01C
S31520001BE007018D4601B549F2F440C2F20000FFF725
S31520001BF011FF4EF20013CEF200034FF48052C3F8C9
S31520001C008021BDE801408546704700BF684620F028
S31520001C1007018D4601B549F27040C2F20000FFF778
S31520001C20F9FE4EF20013CEF200034FF40052C3F831
S31520001C308021BDE801408546704700BF38B504467F
S31520001C4049F2F443C2F20003984206D049F27043A7
S31520001C50C2F20003984200D000BEA3881AB24FEA0F
S31520001C60521203F01F034FF0010505FA03F14EF25D
S31520001C700013CEF2000302F1200243F82210204680
S31520001C804FF000014FF0840200F0A6FF65624FF08E
S31520001C9000034FF0FF3104EB0302516303F1080305
S31520001CA0402BF8D149F2F443C2F200039C4220D1E2
S31520001CB049F2F443C2F2000341F20002C4F20002E8
S31520001CC01A604FF00C029A8042F20003CEF204030F
S31520001CD01A6B42F400721A634EF20012CEF2000220
S31520001CE04FF48051C2F880111A6B22F400721A63E5
S31520001CF01BE041F20003C4F2010323604FF00D0301
S31520001D00A38042F20003CEF204031A6B42F48062EF
S31520001D101A634EF20012CEF200024FF40051C2F8BE
S31520001D2080111A6B22F480621A6323681A6822F0E3
S31520001D3000421A6038BD00BF90F868301BB1836935
S31520001D404FF001029A60704730B583B0044649F2DD
S31520001D507853C2F20003984206D049F2EC53C2F2FD
S31520001D600003984200D000BE626913798DF80730CF
S31520001D709DF80730A3F10803D02B00F28E82DFE80E
S31520001D8013F0D1008C028C028C028C028C028C0205
S31520001D908C02D1008C028C028C028C028C028C026A
S31520001DA08C0206018C028C028C028C028C028C0224
S31520001DB08C02F7008C028C028C028C028C028C0224
S31520001DC08C0206018C028C028C028C028C028C0204
S31520001DD08C0244018C028C028C028C028C028C02B6
S31520001DE08C02F2008C028C028C028C028C028C02F9
S31520001DF08C0253018C028C028C028C028C028C0287
S31520001E008C026E018C028C028C028C028C028C025B
S31520001E108C027D018C028C028C028C028C028C023C
S31520001E208C028F018C028C028C028C028C028C021A
S31520001E308C02D0018C028C028C028C028C028C02C9
S31520001E408C02CC018C028C028C028C028C028C02BD
S31520001E508C02D0018C028C028C028C028C028C02A9
S31520001E608C02CC018C028C028C028C028C028C029D
S31520001E708C02E6018C028C028C028C028C028C0273
S31520001E808C02BB018C028C028C028C028C028C028E
S31520001E908C02E6018C028C028C028C028C028C0253
S31520001EA08C02BB018C028C028C028C028C028C026E
S31520001EB08C02FF018C028C028C028C028C028C021A
S31520001EC08C0248028C028C028C028C028C028C02C0
S31520001ED08C0248028C028C028C028C028C028C02B0
S31520001EE08C0248028C028C028C028C028C028C02A0
S31520001EF08C027A028C028C028C028C028C028C025E
S31520001F008C027A028C028C028C028C028C028C024D
S31520001F108C028C028C028C028C028C028C028C022B
S31520001F208C023902A3694FF000025A616369227953
S31520001F301A72A369E26AC3F80021E36A0BB9A362A5
S31520001F4003E0012B04BF0023A36394F871301BB177
S31520001F504FF0000384F8713094F87230227A9A4256
S31520001F6018BF2372AFE1A3694FF001025A61AAE1BB
S31520001F70A3694FF001021A614FF0020384F83C3046
S31520001F804FF0000323722046FFF7D6FE9BE1A36A9B
S31520001F90616A8B4206D2216AC95C117203F1010380
S31520001FA0A36290E1237A032B05D14FF00103E3626C
S31520001FB0A269536187E14FF000032372237C03F06B
S31520001FC0010384F870303BB9A3694FF001051D6108
S31520001FD02046FFF7B1FE13E0638A1AB24FEA521287
S31520001FE003F01F034FF0010101FA03F14EF2001333
S31520001FF0CEF2000302F1200243F822104FF0000532
S315200020004FF0000384F83C305CE1A3694FF00102F5
S315200020101A614FF0020384F83C304FF0000323721C
S315200020202046FFF789FE4EE1636B012B04D9A36995
S315200020304FF001029A6046E1012B04D1A3694FF0CB
S3152000204000029A603FE1A2694FF001039360A26902
S3152000205013614FF0000384F83C30237233E1A36907
S315200020604FF001021A614FF0020384F83C304FF022
S31520002070000323722046FFF75FFE24E1A36B117A4B
S31520002080226BD15403F10103A363626B02F1FF3289
S315200020909342C0F01881A3694FF000029A6012E1C2
S315200020A0117A226BA36BD154237C03F0010384F8AD
S315200020B070303BB9A3694FF001051D612046FFF73B
S315200020C03BFE13E0638A1AB24FEA521203F01F0353
S315200020D04FF0010101FA03F14EF20013CEF2000394
S315200020E002F1200243F822104FF000054FF00003C2
S315200020F0237284F83C30E5E0A3694FF001029A6030
S315200021004FF00003237284F85C3094F87130002B72
S3152000211000F0D980A3695A61D5E04FF0010384F815
S3152000212071304FF0040323724FF00003A365E36080
S31520002130A3695A6932B14FF000025A614FF0010388
S3152000214084F871304FF0010384F85C30BBE0216DD8
S3152000215061B1A36D606D83420DD2127ACA5403F128
S315200021600103A365E36802EB0322E260A26D636DBF
S315200021709A42C0F0A880A3694FF000029A60A2E0BC
S31520002180237A042B21D1A26D236E9A4204BFE368E1
S31520002190E364636EA3B12046216DB4F858209847B6
S315200021A038B92046FFF7C8FDA3694FF001029A60AF
S315200021B011E0A2694FF00003936084F868300AE0CA
S315200021C0A3694FF001029A6005E04FF00003E36433
S315200021D02046FFF7B1FD4FF0000384F85C3094F8F9
S315200021E071301BB1A3694FF001025A614FF0000311
S315200021F0237268E04FF000032372E36494F85C30A6
S31520002200012B04BF022384F85C302046FFF794FD9F
S3152000221059E09DF80730A82B13D14FF00503237200
S315200022204FF00003E3604FF0010384F85C30A369AC
S315200022305A6932B14FF000025A614FF0010384F817
S315200022407130E36CA26C934223BF63694FF0FF3277
S315200022501A7262693FBF616CC95C1172013338BF63
S31520002260E364E26CA36C9A422DD3A2694FF000037B
S315200022709360E36427E04FF00003E364A2694FF024
S315200022800101916084F85C3094F871300BB1A36938
S3152000229059614FF00003237215E0A2694FF0000345
S315200022A053612372E36494F83C30012B04BF02236C
S315200022B084F83C3094F85C30012B04BF022384F868
S315200022C05C3000E01DB1A3694FF00002DA6063695B
S315200022D01B798DF8073003B030BD00BF684620F06B
S315200022E007018D4601B549F27850C2F20000FFF78A
S315200022F02BFD4EF20013CEF200034FF48042C3F8BA
S315200023008021BDE801408546704700BF684620F021
S3152000231007018D4601B549F2EC50C2F20000FFF7E5
S3152000232013FD4EF20013CEF200034FF40032C3F831
S315200023308021BDE801408546704700BF10B442F2B7
S315200023400003CEF204031A6B42F480421A634FF064
S31520002350000348F66020C2F200004FF0010C4EF256
S315200023600014CEF20004C25A11B24FEA511102F003
S315200023701F020CFA02F201F1600144F8212003F158
S315200023800203402BEFD142F20003CEF204031A6B74
S3152000239022F480421A6310BC704700BF1F2801D95F
S315200023A000BE704748F6A023C2F2000353F820303F
S315200023B0196070471F2801D900BE704740F20003FC
S315200023C0C4F2262300F5886043F82010704700BF2A
S315200023D01F2801D900BE704748F6A023C2F2000389
S315200023E053F820301A6842F008021A6048F6602333
S315200023F0C2F2000333F810301AB24FEA521203F039
S315200024001F034FF0010101FA03F14EF20013CEF241
S31520002410000343F8221070471F2801D900BE7047D9
S315200024204FF0010202FA00F143F20003C4F2010365
S31520002430C3F8801048F66023C2F2000333F8103048
S3152000244019B24FEA511103F01F0302FA03F24EF2BA
S315200024500013CEF2000301F1600143F821207047FA
S31520002460704700BF30B484B048F62033C2F2000370
S31520002470EC460FCB8CE80F0042F20003CEF20403A9
S315200024809A6C02F00C0204A90A4452F8105C9A6C69
S31520002490C2F3011201EB820252F8104C9A6CC2F37D
S315200024A0811201EB820252F8100CD96CDB6CC1F35D
S315200024B0042101F1010113F4005F18BF490040F225
S315200024C03023C6F208031A6822F0704241F2CF1375
S315200024D0C0F2A1539A4205D14EF62C73C6F20103DF
S315200024E01B6828E040F61C03C6F208031A6844F26B
S315200024F04133C4F654439A421ED140F64003C6F2F5
S3152000250008031A6822F07F4240F20033C0F201032A
S315200025109A4211D9B2F5003F05D241F22C63C6F298
S3152000252008031B6807E0B2F5403F05D241F6AC63CD
S31520002530C6F208031B6823B900BE47F64003C0F263
S315200025407D1348F6B852C2F20002136048F6B05224
S31520002550C2F20002B3FBF5F5156048F6B452C2F29A
S315200025600002B3FBF4F4146048F6A852C2F200024B
S31520002570B3FBF0F0106048F6AC52C2F20002B3FB97
S31520002580F1F1116048F6BC52C2F20002136004B0A9
S3152000259030BC704770B54FF0FF0C4CF4E06C1CEA71
S315200025A011541DBF1CEA135594EA0C0F95EA0C0F23
S315200025B000F0DEF82C4481EA030621EA4C5123EA96
S315200025C04C5350EA013518BF52EA033541F48011C5
S315200025D043F4801338D0A0FB02CE4FF00005E1FB78
S315200025E002E506F00042E0FB03E54FF00006E1FBC2
S315200025F003569CF0000F18BF4EF0010EA4F1FF0405
S31520002600B6F5007F64F5407404D25FEA4E0E6D4144
S3152000261046EB060642EAC62141EA55514FEAC52055
S3152000262040EA5E504FEACE2EB4F1FD0C88BFBCF5D1
S31520002630E06F1ED8BEF1004F08BF5FEA500E50F182
S31520002640000041EB045170BD06F0004646EA010148
S3152000265040EA020081EA0301B4EB5C04C2BFD4EB7A
S315200026600C0541EA045170BD41F480114FF0000E73
S31520002670013C00F3AB8014F1360FDEBF002001F0E1
S31520002680004170BDC4F10004203C35DA0C341BDC5B
S3152000269004F11404C4F1200500FA05F320FA04F02D
S315200026A001FA05F240EA020001F0004221F0004161
S315200026B010EBD37021FA04F642EB06015EEA430ED4
S315200026C008BF20EAD37070BDC4F10C04C4F1200504
S315200026D000FA04F320FA05F001FA04F240EA0200B7
S315200026E001F0004110EBD37041F100015EEA430E88
S315200026F008BF20EAD37070BDC4F1200500FA05F2A8
S315200027004EEA020E20FA04F301FA05F243EA020326
S3152000271021FA04F001F0004121FA04F220EA020035
S3152000272000EBD3705EEA430E08BF20EAD37070BD7B
S3152000273094F0000F0FD101F00046400041EB01015B
S3152000274011F4801F08BF013CF7D041EA060195F03D
S31520002750000F18BF704703F00046520043EB0303F7
S3152000276013F4801F08BF013DF7D043EA06037047E4
S3152000277094EA0C0F0CEA135518BF95EA0C0F0CD0EF
S3152000278050EA410618BF52EA4306D1D181EA030135
S3152000279001F000414FF0000070BD50EA410606BF2F
S315200027A01046194652EA430619D094EA0C0F02D174
S315200027B050EA013613D195EA0C0F05D152EA0336B9
S315200027C01CBF104619460AD181EA030101F00041D7
S315200027D041F0FE4141F470014FF0000070BD41F020
S315200027E0FE4141F4780170BD70B54FF0FF0C4CF4FA
S315200027F0E06C1CEA11541DBF1CEA135594EA0C0F19
S3152000280095EA0C0F00F0A7F8A4EB050481EA030E65
S3152000281052EA03354FEA013100F088804FEA03334C
S315200028204FF0805545EA131343EA12634FEA02221A
S3152000283045EA111545EA10654FEA00260EF00041DB
S315200028409D4208BF964244F1FD0404F5407402D22D
S315200028505B084FEA3202B61A65EB03055B084FEABE
S3152000286032024FF480104FF4002CB6EB020E75EBBB
S31520002870030E22BFB61A754640EA0C005B084FEAE3
S315200028803202B6EB020E75EB030E22BFB61A754660
S3152000289040EA5C005B084FEA3202B6EB020E75EBAB
S315200028A0030E22BFB61A754640EA9C005B084FEA23
S315200028B03202B6EB020E75EB030E22BFB61A754630
S315200028C040EADC0055EA060E18D04FEA051545EA1F
S315200028D016754FEA06164FEAC30343EA52734FEAC8
S315200028E0C2025FEA1C1CC0D111F4801F0BD141EA41
S315200028F000014FF000004FF0004CB6E711F4801FA6
S3152000290004BF01430020B4F1FD0C88BFBCF5E06F85
S315200029103FF6AFAEB5EB030C04BFB6EB020C5FEA95
S31520002920500C50F1000041EB045170BD0EF0004EEA
S315200029304EEA113114EB5C04C2BFD4EB0C0541EA1C
S31520002940045170BD41F480114FF0000E013C90E619
S3152000295045EA060E8DE60CEA135594EA0C0F08BFDD
S3152000296095EA0C0F3FF43BAF94EA0C0F0AD150EADC
S3152000297001347FF434AF95EA0C0F7FF425AF10466F
S3152000298019462CE795EA0C0F06D152EA03353FF497
S31520002990FDAE1046194622E750EA410618BF52EA14
S315200029A043067FF4C5AE50EA41047FF40DAF52EAE8
S315200029B043057FF4EBAE12E74A0011D212F500125E
S315200029C011D20DD56FF47873B3EB62520ED44FEA61
S315200029D0C12343F0004343EA505323FA02F07047E1
S315200029E04FF00000704750EA013002D14FF0FF301F
S315200029F070474FF00000704770B548F6905648F67D
S31520002A009055C2F20006C2F20005761BB61006D01B
S31520002A10002455F8243001349847A642F9D848F6C0
S31520002A20905548F69456C2F20005C2F20006761B6F
S31520002A3006F0A2F9B61006D0002455F82430013449
S31520002A409847A642F9D870BD032A2DE9F0070BD87E
S31520002A503AB1002311F803C000F803C001339342B2
S31520002A60F8D1BDE8F007704782180C46034603E00C
S31520002A7014F8011C03F8011C03F003061946A446AA
S31520002A8001330134002EF3D11CF00304634608BF42
S31520002A90C1EB020C68D06542C4F1040A0CEB0507B1
S31520002AA033464FEACA0A5CF805604FEAC408551A4D
S31520002AB008E057F8044F264604FA0AF449EA0404C3
S31520002AC0CC5004335C18032D26FA08F9A5F1040529
S31520002AD00CEB0306EDDC002302E0F15CE15401334C
S31520002AE019199142F9D3BCE753F8404C41F8404CB0
S31520002AF053F83C4C41F83C4C53F8384C41F8384C90
S31520002B0053F8344C41F8344C53F8304C41F8304C9F
S31520002B1053F82C4C41F82C4C53F8284C41F8284CAF
S31520002B2053F8244C41F8244C53F8204C41F8204CBF
S31520002B3053F81C4C41F81C4C53F8184C41F8184CCF
S31520002B4053F8144C41F8144C53F8104C41F8104CDF
S31520002B5053F80C4C41F80C4C53F8084C41F8084CEF
S31520002B6053F8044C41F8044C1C460D464033403182
S31520002B70BCF13F0FACF1400CB6DC21462B46541B72
S31520002B800FE051F8105C43F8105C51F80C5C43F8E8
S31520002B900C5C51F8085C43F8085C51F8045C43F877
S31520002BA0045C0F2C0D469C4601F1100103F1100325
S31520002BB0A4F11004E5DCCCEB0201002303E0EC5881
S31520002BC04CF8034004335E19032903EB0C04A1F1EE
S31520002BD00401F4DC7FE700BF032AC9B230B407D86A
S31520002BE022B10023C15401339342FBD130BC70473C
S31520002BF000EB020C034601E003F8011C03F003047A
S31520002C001A460133002CF7D14FF00133C2EB0C04E6
S31520002C1003FB01F31FE042F8403C42F83C3C42F8FB
S31520002C20383C42F8343C42F8303C42F82C3C42F8DE
S31520002C30283C42F8243C42F8203C42F81C3C42F80E
S31520002C40183C42F8143C42F8103C42F80C3C42F83E
S31520002C50083C42F8043C154640323F2CA4F140047F
S31520002C60D9DC2A46C5EB0C0407E042F8103C42F8B2
S31520002C700C3C42F8083C42F8043C154610320F2C16
S31520002C80A4F11004F1DC2A46C5EB0C0501E042F85C
S31520002C90043C14460432032DA5F10405F7DC01E0BB
S31520002CA004F8011B6445FBD3A0E700BF0FB448F628
S31520002CB0C053C2F2000310B51C6882B024B1A369C8
S31520002CC013B9204602F008FF204605AC049A234695
S31520002CD08168019400F09EF802B0BDE8104004B06F
S31520002CE0704700BF0EB410B5044683B018B183698F
S31520002CF00BB902F0F1FE204606AC059A2346816800
S31520002D00019400F087F803B0BDE8104003B0704787
S31520002D1030B5044689B008460D4600F03DF848F621
S31520002D205C230195C2F2000303930290431C079390
S31520002D300123049301AB0593022306930CB1A369E7
S31520002D40EBB148F6C0532046C2F200031B689B68CD
S31520002D509A8912F4005F01BF42F400529A81596E9B
S31520002D6021F40052A16808BF5A6605AA03F018F894
S31520002D70002814BF4FF0FF300A2009B030BD20468E
S31520002D8002F0AAFEDDE700BF48F6C0530146C2F2B4
S31520002D9000031868BCE700BF20F0030110F0030011
S31520002DA0C0F1000051F8043B00F1040C4FEACC0CB2
S31520002DB06FF000021CBF22FA0CF213434FF0010CF5
S31520002DC04CEA0C2C4CEA0C4CA3EB0C0222EA030234
S31520002DD012EACC1204BF51F8043B0430F4D013F0AD
S31520002DE0FF0F1FBF013013F47F4F013013F47F0F05
S31520002DF018BF0130704700BF936810B5144613B949
S31520002E005360184610BD02F0CBFF00236360A36019
S31520002E1010BD00BF2DE9F04FADF5AE6D83B00E4667
S31520002E2015469A46814603F0ABF900681D90B9F124
S31520002E30000F04D0D9F81830002B00F05A8148F63C
S31520002E40AC33C2F200039E4208BFD9F8046010D00A
S31520002E5048F6CC33C2F200039E4208BFD9F8086078
S31520002E6007D048F6EC33C2F200039E4208BFD9F8D9
S31520002E700C60B6F80CC01FFA8CF313F4005F09D16E
S31520002E804CF4005C726EA6F80CC01FFA8CF322F488
S31520002E900052726613F0080F01F001833269002A8E
S31520002EA001F0FD8203F01A030A2B00F0E0800022D5
S31520002EB012921A9200231C920DF59C6411920434EE
S31520002EC019920DF5A4621B9304320DF590632832F6
S31520002ED00333189207930023CDF84C45CDF850358F
S31520002EE0CDF854352B781A1E18BF0122252B0CBF7E
S31520002EF0002202F0010232B32F4617F8013F1A1EB4
S31520002F0018BF0122252B0CBF002202F00102002A45
S31520002F10F3D1B7EB050808BF3D4614D0C4F80480AA
S31520002F20DDF85035DDF8542501332560072B424462
S31520002F30CDF85035CDF8542578DC083411983D4627
S31520002F40404411903B78002B7CD06B1C4FF0FF3710
S31520002F502B204FF0200C00214FF000020F918DF80E
S31520002F607725CDF82CA06A780A915D1CA2F1200362
S31520002F70582B00F28682DFE813F09802840284023E
S31520002F80A402840284028402840284028402AD02A2
S31520002F90BA028402C102CA028402E702F002F002E7
S31520002FA0F002F002F002F002F002F002F0028402D7
S31520002FB084028402840284028402840284028402BB
S31520002FC084020403260384022603840284028402E4
S31520002FD084026A03840284028104840284028402B5
S31520002FE0840284021404840284022F04840284024C
S31520002FF0840284028402840284028402840284027B
S315200030004F046504260326032603730365048402FE
S3152000301084027903840285039603AD030A0484029D
S31520003020CC038402F40384028402C0000DF5A86256
S31520003030484631460C32FFF7DFFE58B90DF59C6441
S3152000304004347BE7DDF85435002B41F092810023D0
S31520003050CDF85035B38913F0400F02D04FF0FF3032
S31520003060119011985FB00DF5806DBDE8F08FB6F91F
S315200030700E30002BFFF61BAF376A2CF0020CD6F869
S3152000308028E00DF58E64ADF888C40C34B6F80EC071
S315200030902A465346484621461FADCDF89C74002744
S315200030A0CDF88C54CDF87C544FF48065CDF8A4E44B
S315200030B0ADF88AC4CDF89054CDF89474CDF88454E4
S315200030C0FFF7A8FE0028119009DB2146484602F0AA
S315200030D093FB1199B84218BF4FF0FF311191BDF8FB
S315200030E0883413F0400FBCD0B38943F04003B3813A
S315200030F0B7E7484602F0F0FCA1E60A9848F67C3C81
S31520003100C2F2000C169210F0200FCDF864C000F029
S315200031106E830B99CB1D23F0070303F108020B9254
S31520003120D3E900AB5AEA0B020A9B0CBF002201220C
S31520003130134240F06B8602234FF000018DF877157D
S31520003140002FA2BFDDF828C02CF0800CCDF828C0B7
S31520003150002F18BF42F00102002A00F01E84012B26
S3152000316000F0DE85022B00F0C185189913914FEAF5
S31520003170DA084FEADB0C48EA4B780AF00700E34608
S31520003180C24630305AEA0B0201F8010DEFD1DDF8C4
S3152000319028C013911CF0010F40F08C861898401A15
S315200031A010909DF87735109A1797BA42B8BF3A46CD
S315200031B00C9213B10C9A01320C920A9B0A9813F0C6
S315200031C0020315931EBFDDF830C00CF1020CCDF8BA
S315200031D030C010F0840014904DD10F990C9A8F1A9C
S315200031E0002F48DD102F48F63838D8BFC2F2000825
S315200031F030DDC2F200080DF5A86B43464FF0100AE9
S31520003200A8460BF10C0B1D4602E0103F102F1EDDC9
S31520003210C4F804A0DDF85035DDF8542501332560C7
S315200032201032072BCDF8542504F10804CDF850357B
S31520003230EBDD0DF59C64484631465A460434FFF7CB
S31520003240DBFD00287FF406AF103F102FE0DC2B4675
S31520003250454698466760DDF85035C4F800805A1C0C
S31520003260DDF85435CDF85025DB19072ACDF854352D
S3152000327000F38A8508349DF877359BB10123636076
S31520003280DDF850350DF5AE6207322260DDF85425A3
S315200032900133CDF850350132072BCDF8542500F3F4
S315200032A0B6840834159B9BB102236360DDF8503544
S315200032B00DF5AE6204322260DDF854250133CDF8D7
S315200032C050350232072BCDF8542500F3AF8408344D
S315200032D0DDF850C0BCF1800F00F07683179B109A62
S315200032E09F1A002F43DD102FDFF88C8B2EDD4346EF
S315200032F00DF5A86BA8464FF0100A0BF10C0B1D46D6
S3152000330002E0103F102F1EDDC4F804A0DDF8503572
S31520003310DDF85425013325601032072BCDF85425CE
S3152000332004F10804CDF85035EBDD0DF59C644846D4
S3152000333031465A460434FFF75FFD00287FF48AAEF3
S31520003340103F102FE0DC2B46454698466760DDF897
S315200033505035DDF854250133C4F80080D219072BE7
S31520003360CDF85425CDF8503500F342840834DDF8E5
S3152000337028C01CF4807F40F09D82109813996060CD
S31520003380DDF85035DDF85425013321601218072B5E
S31520003390CDF85035D8BF04F10803CDF8542500F3F5
S315200033A09B830A9911F0040F55D00F9ADDF830C08F
S315200033B0CCEB0207002F4EDD102F48F63838D8BF49
S315200033C0C2F200082EDDC2F200080DF5A86A4246B8
S315200033D01024A8460AF10C0A154602E0103F102FC9
S315200033E01DDD5C60DDF85025DDF8541501321D60C9
S315200033F01031072ACDF8541503F10803CDF85025CE
S31520003400ECDD484631465246FFF7F6FC0DF59C6347
S31520003410043300287FF41EAE103F102FE1DC2A462D
S31520003420454690465F60DDF85025C3F80080DDF8FC
S3152000343054350132CDF85025FB18072ACDF85435DE
S315200034400BDD0DF5A862484631460C32FFF7D4FC59
S3152000345000287FF4FFADDDF8543511980C9A0F99AA
S315200034608A42ACBF801840181190002B40F042834E
S315200034700DF59C640023DDF82CA00434CDF85035DE
S3152000348030E51692002A3FF4DDAD0DF5A460012348
S315200034904FF0000C04300C938DF824258DF877C559
S315200034A0139010930021179187E69DF87735002B0E
S315200034B040F02B850B992B468DF877C52A780B91F2
S315200034C053E50B990A9B43F001030A932B462A786E
S315200034D00B914AE50B990B9A09680F91111D0F9BC9
S315200034E0002BC0F280872A782B460B913DE50B995D
S315200034F02B468DF877052A780B9136E50B990A9B92
S3152000350043F004030A932B462A780B912DE52B468C
S3152000351013F8012B2A2A01F0CD80A2F130010929C6
S3152000352001F237800235002715F8012C07EB8707B3
S315200035302B46013501EB4707A2F130010929F3D9C2
S3152000354047EAE7771D4611E50B992B460A9A42F082
S3152000355080020A922A780B9107E5A2F130014FF0FA
S3152000356000082B4608EB880813F8012B01EB4808C6
S31520003570A2F130011D460929F3D9CDF83C801D461C
S31520003580F4E40A9B169243F010030A93DDF828C050
S315200035901CF0200F00F05D810B98C31D23F007035C
S315200035A003F108010B91D3E900ABBAF1000F7BF1CF
S315200035B00002C0F29B845AEA0B034FF001030CBFB2
S315200035C000220122BCE50A98169210F0080F00F09E
S315200035D0ED840B99CB1D23F0070303F108020B9210
S315200035E0D3F80480D3F800A0CDF86C80CDF848A09D
S315200035F05046414604F068F88346002800F0998535
S31520003600504600220023414604F01CFE002840F0CC
S315200036100B859DF8773548F6703148F66C3216984A
S31520003620C2F20001C2F200024FF0030C4728D8BFB5
S31520003630114613910A99CDF830C021F08001CDF8BA
S3152000364040C00A914FF0000CCDF85CC0B1E50B9953
S315200036500A9B43F008030A932B462A780B9184E4AD
S315200036600A9941F040010A910B993CE72A786C2A85
S3152000367000F055850B990A9B0B9143F010030A9392
S315200036802B4672E40A9A12F0200F00F082840B98DF
S31520003690119A036810464FEAE0710B9AC3E90001BC
S315200036A002F1040A1EE416920A9A12F0200300F090
S315200036B0EF800B9BDA1D002322F0070202F1080C93
S315200036C0CDF82CC0D2E900AB5AEA0B000CBF002281
S315200036D0012231E50B987821DDF828C01691036880
S315200036E048F67C308DF8751530218DF874154CF020
S315200036F0020C0B991A1E18BF0122C2F200009A462C
S315200037004FF0000B0431CDF828C0199002230B91FD
S3152000371012E50B9B16924FF00002181D8DF87725A7
S315200037201B680B901393002B00F0C686002F13986E
S31520003730C0F28F8600213A4603F0A6F803460028F9
S3152000374000F0F58613981B1A1093BB4240F3BE85F2
S315200037501097002127EAE7779DF877350C97179180
S3152000376027E5DDF828C016921CF0200F23D00B98F1
S315200037700123C21D22F0070202F108010B91D2E9B2
S3152000378000AB5AEA0B020CBF00220122D4E40A99AC
S315200037902B4641F020010A910B992A780B91FFF7CD
S315200037A0E4BB0A9B169243F010030A93DDF828C067
S315200037B01CF0200FDBD10A9B13F0100F00F0D583ED
S315200037C00B980123021D0B9201680A1E18BF0122C5
S315200037D08A464FF0000BAFE40A98169248F6583204
S315200037E010F0200FC2F2000219927FF492AC0A9BCD
S315200037F013F0100F40F01A830A9A12F0400F00F0CF
S3152000380015830B9B03F1040CCDF82CC0B3F800A054
S31520003810D2464FF0000B85E416920DF5A4610B9A63
S315200038204FF0010C4FF000000431CDF830C0136882
S3152000383004328DF877050B921391CDF840C08DF8A0
S3152000384024352FE6DDF828C016921CF0200F7FF4D1
S31520003850A3AE0A9A12F0100F40F0F1820A9A12F0E3
S31520003860400F00F0EC820B9B03F1040CCDF82CC02A
S31520003870B3F900A0D2464FEAEA7B96E60A99169259
S3152000388041F010010A910A9A12F020037FF411AF39
S315200038900A9911F0100200F054830B9A02F1040CDD
S315200038A0CDF82CC011680A1E18BF01228A464FF097
S315200038B0000B41E4169A652A40F3288112980022CB
S315200038C000231B9904F0B4FC002800F0BE810123DC
S315200038D06360DDF8502548F69833C2F20003236072
S315200038E0DDF854350132CDF850250133072ACDF8BD
S315200038F05435D8BF04F1080300F39B83DDF8702507
S315200039001A98824204DB0A9911F0010F3FF449AD5F
S3152000391001225A60DDF85025DDF8541501321D9834
S315200039200131072ACDF854151860CDF8502500F33B
S315200039305F8508331A994F1E002F7FF732AD102F5F
S31520003940DFF8348540F3EA8242460DF5A86AA84698
S3152000395010240AF10C0A154603E0103F102F40F3FD
S31520003960DA825C60DDF85025DDF8541501321D60E1
S315200039701031072ACDF8541503F10803CDF8502548
S31520003980EBDD484631465246FFF736FA0DF59C6385
S3152000399004330028E1D0FFF75DBB7BB90A9911F00B
S315200039A0010F0BD00DF5A462302304328DF84B3570
S315200039B02732012313921093FFF7F3BB18980021A7
S315200039C010911390FFF7EDBB0F980C99471A002F13
S315200039D07FF784AC102FDFF8A0842EDD43460DF54B
S315200039E0A86BA8464FF0100A0BF10C0B1D4602E0FF
S315200039F0103F102F1EDDC4F804A0DDF85035DDF889
S31520003A005425013325601032072BCDF8542504F1B7
S31520003A100804CDF85035EBDD0DF59C64484631465B
S31520003A205A460434FFF7E8F900287FF413AB103F19
S31520003A30102FE0DC2B46454698466760DDF850356A
S31520003A40C4F800805A1CDDF85435CDF85025DB1912
S31520003A50072ACDF8543500F33A8208343EE4139908
S31520003A606360DDF850252160DDF854150132CDF86C
S31520003A705025CB18072ACDF8543500F3498508344C
S31520003A801D9A0123DDF870756360DDF850352260DC
S31520003A90DDF854250133CDF850350132072BCDF80A
S31520003AA05425D8BF04F1080300F323851398DDF8C5
S31520003AB07025C7191A981F60811A5960DDF85415A8
S31520003AC08A1ADDF850151218CDF854250131CDF893
S31520003AD05015072940F332820DF5A8624846314633
S31520003AE00C32FFF789F900287FF4B4AA0DF59C6300
S31520003AF0043356E40DF5A862484631460C32FFF7EA
S31520003B007BF900283FF4B4ACFFF7A4BA1A9901292F
S31520003B104CDD01236360DDF85035DDF85425013393
S31520003B2013980132072BCDF854252060CDF8503557
S31520003B3000F3B281083401236360DDF85035DDF8E7
S31520003B40542501331D990132072BCDF854252160C8
S31520003B50CDF8503500F392810834129800220023C4
S31520003B601B9904F065FB002840F01D811A9B1398D1
S31520003B705A1E6260DDF85035411C2160DDF854156F
S31520003B800133CDF850358A18072BCDF8542521DC82
S31520003B9008341C9B0DF5AC621C9822606360DDF82E
S31520003BA05035DDF854250133FFF7F0BB0A9A12F0A1
S31520003BB0010FAED1139A01236360DDF850352260E0
S31520003BC0DDF854250133CDF850350132072BCDF8D9
S31520003BD05425DDDD0DF5A862484631460C32FFF747
S31520003BE00BF900287FF436AA0DF59C640434D0E73F
S31520003BF00DF5A862484631460C32FFF7FDF800283D
S31520003C007FF428AA0DF59C640434FFF7B0BB0DF5AC
S31520003C10A862484631460C32FFF7EEF800287FF4BA
S31520003C2019AA0DF59C640434FFF73CBB0DF5A86278
S31520003C30484631460C32FFF7DFF800287FF40AAAFF
S31520003C400DF59C640434FFF743BBDDF87035002B7B
S31520003C5040F3FD811A998B42FFF601AF139A6160FA
S31520003C60DDF850352260DDF854250133CDF8503586
S31520003C705218072BCDF85425D8BF04F1080300F3BA
S31520003C802984DDF870451A98241A002C40F3B38154
S31520003C90102CDFF8E48140F39D8142460DF5A86A99
S31520003CA0A84610270AF10C0A154603E0103C102CF2
S31520003CB040F38D815F60DDF85025DDF85415013223
S31520003CC01D601031072ACDF8541503F10803CDF8ED
S31520003CD05025EBDD484631465246FFF78DF80DF567
S31520003CE09C6304330028E1D0FFF7B4B9189A1998D9
S31520003CF0134613920AF00F024FEA1A1141EA0B718A
S31520003D004FEA1B1C825C8A46E3465AEA0B0C03F8F0
S31520003D10012DEFD118981393C01A1090FFF741BACE
S31520003D2009220023524573EB0B00DDF860801FD279
S31520003D3023464446B8461F46504659460A22002383
S31520003D4004F0D0FA00235046594602F1300C0A22DC
S31520003D5004F801CD04F0C6FA0922002382468B46D8
S31520003D60524573EB0B03E7D33B464746A0461C461A
S31520003D7008F1FF300AF1300A139008F801AC1899BF
S31520003D80091A1091FFF70DBA0DF5A862484631467B
S31520003D900C32FFF731F800287FF45CA90DF59C64FE
S31520003DA00434FFF768BA1A994F1E002F7FF7F1AE39
S31520003DB0102FDFF8C4804EDD43460DF5A86BA846CC
S31520003DC04FF0100A0BF10C0B1D4602E0103F102F8E
S31520003DD03EDDC4F804A0DDF85035DDF85425013366
S31520003DE025601032072BCDF8542504F10804CDF8B0
S31520003DF05035EBDD0DF59C64484631465A46043471
S31520003E00FEF7FAFF0028E1D0FFF724B916983021F3
S31520003E10DDF828C0012202238DF874154CF0020C1F
S31520003E208DF87505CDF828C0FFF786B90B98011DCA
S31520003E3003680B919A464FF0000BFFF773B90B9866
S31520003E40011D03680B919A464FEAEA7BFFF7ADBB4B
S31520003E502B46454698466760DDF85035DDF85425F3
S31520003E600133C4F80080D219072BCDF85425CDF89C
S31520003E7050357FF78DAEADE6488B00200DF5A86254
S31520003E80484631460C32FEF7B7FF00287FF4E2A8F9
S31520003E900DF59C64043460E60DF5A862484631466B
S31520003EA00C32FEF7A9FF00287FF4D4A80DF59C64F8
S31520003EB0043440E6302800F0EC821398302300F8D2
S31520003EC0013D18991390091A1091FFF76AB90DF55B
S31520003ED0A862484631460C32FEF78EFF00287FF452
S31520003EE0B9A80DF59C640434FFF7F8B9DAF1000A95
S31520003EF06BEB4B0B2D235AEA0B0C8DF877350CBF49
S31520003F00002201220123FFF71BB90B992B462A78A1
S31520003F100B91FFF72AB82A46454690465F60DDF8A2
S31520003F205025DDF854150132C3F80080C919072A37
S31520003F30CDF85415CDF850253FF7CEAD0833FFF711
S31520003F4030BA0A9810F0400300F0ED810B99134621
S31520003F500A1D0B92B1F800A0BAF1000218BF012287
S31520003F60D2464FF0000BFFF7E7B80A9B13F0400F3D
S31520003F7000F0CC810B980123011D0B91B0F800A015
S31520003F80BAF1000218BF0122D2464FF0000BFFF70C
S31520003F90D3B80A9B13F0100F00F0A4810B98119947
S31520003FA000F1040A03681960FEF79CBF0B98C31D35
S31520003FB023F0070303F108010B91D3F80480D3F80B
S31520003FC000A0CDF86C80CDF848A0FFF711BB2A469B
S31520003FD0454690465C60DDF85025DDF854150132E3
S31520003FE0C3F800800919072ACDF85415CDF85025B5
S31520003FF000F3EA8208330A9911F0010F3FF4D1A9A0
S3152000400001225A60DDF85025DDF8541501321D983D
S315200040100131072ACDF854151860CDF850253FF701
S315200040205BAD0833FFF7BDB92D238DF87735FFF744
S31520004030F2BA0DF5A862484631460C32FEF7DCFE90
S3152000404000287FF407A80DF59C63043356E401236A
S315200040506360DDF8502548F69833C2F200032360EA
S31520004060DDF854350132CDF850250133072ACDF835
S315200040705435D8BF04F1080300F38781DDF8702595
S315200040803AB91A9A2AB9DDF828C01CF0010F3FF474
S3152000409088A901225A60DDF85025DDF85415013231
S315200040A01D980131072ACDF854151860CDF85025F2
S315200040B000F379810833DDF870757F42002F40F3D5
S315200040C0B381102FDFF8508640F3D28142460DF59A
S315200040D0A86AA84610240AF10C0A154603E0103FE8
S315200040E0102F40F3C2815C60DDF85025DDF85415B1
S315200040F001321D601031072ACDF8541503F108034B
S31520004100CDF85025EBDD484631465246FEF774FE83
S315200041100DF59C6304330028E1D0FEF79BBF0B9975
S315200041206B1C0A9A42F020020A926A780B91FEF7DB
S315200041301CBF5046414603F0D9FA002840F0FF80C4
S31520004140B7F1FF3F00F051821698672814BF00236D
S315200041500123472808BF43F0010313B1002F08BFEE
S3152000416001270DF5AB60434652460A99C0E9002364
S31520004170DDF85C3541F480710A91002BC0F264822F
S31520004180002117911698662814BF0023012346287C
S3152000419008BF43F001031093002B00F0D181BC46E9
S315200041A00323CDF830A00DF5AE61CDF83480484616
S315200041B0009302910DF5AC61DDE90C230C31CDF8AD
S315200041C004C003910DF5AD61CDF824C0049100F033
S315200041D0C7FB169ADDF824C0B2F1670318BF012386
S315200041E0472A0CBF002303F00103139033B90A9B1F
S315200041F013F0010F08BFDDF868B516D01398109993
S3152000420000EB0C0B31B10378302B00F0DA80DDF8AF
S3152000421070359B44504600220023414604F008F89E
S31520004220002800F0C281CDF868B5169A1398672A3F
S3152000423014BF00230123472A08BF43F00103C0EB24
S315200042400B001A90002B00F08A81DDF8701511F111
S31520004250030F109102DB8F4280F28C81169A023A6C
S3152000426016921099169A4B1ECDF87035002B8DF8A4
S315200042706025C0F234822B228DF86125092B00F3AC
S31520004280B6810DF5AC62303304328DF863353023B8
S315200042908DF862350DF5AC631A981A99D31A181849
S315200042A01C930129109040F3108210980130109031
S315200042B020EAE0710C911798002800F06E812D23DA
S315200042C000218DF877351791FEF774BF109A4FF0BD
S315200042D0000C9DF8773522EAE272CDF85CC00C928C
S315200042E0FEF767BF0A9A12F0400F17BF0B980B9A7A
S315200042F0119900F1040A11BF036802F1040A136838
S31520004300119814BF19801860FEF7ECBD0B9A131D87
S315200043100B93116801230A1E18BF01228A464FF00B
S31520004320000BFEF709BF0B98021D0B9201680A1EAF
S3152000433018BF01228A464FF0000BFEF7FDBE48F655
S31520004340783248F674331699C2F20003C2F200029C
S3152000435003204729D8BF1A4613920A9A0C9022F0B6
S315200043608002CDF85CB00A929DF877351090FEF762
S3152000437020BF0DF5A862484631460C32FEF73CFDBB
S3152000438000287EF467AEFEF762BE0DF5A8624846A9
S3152000439031460C32FEF730FD00287EF45BAE0DF57B
S315200043A09C6304336AE60DF5A862484631460C3212
S315200043B0FEF722FD00287EF44DAE0DF59C630433F6
S315200043C079E65046002200234146CDF824C003F06A
S315200043D02FFFDDF824C000287FF419AFCCF10103AC
S315200043E0CDF8703515E70F9A52420F92FFF787B82E
S315200043F00DF5A862484631460C32FEF7FDFC002832
S315200044007EF428AE0DF59C630433FFF793BA0DF5C1
S31520004410A862484631460C32FEF7EEFC00287EF4B0
S3152000442019AE0DF59C6304331A9913985960DDF87B
S315200044305025DDF85415186001321A98CDF850250C
S315200044400918072ACDF854153FF746AB0833FEF76F
S31520004450A8BF00211791FEF79FFC9DF8773520EA2B
S31520004460E07210900C92FEF7A4BE2A46454690466E
S315200044705F60DDF85025DDF854150132C3F8008061
S31520004480C919072ACDF85415CDF85025BFDC0833B5
S31520004490CAE7189A1399511A1091FEF782BE484618
S315200044A0314600F049F900287EF4D8ADB6F80CC0A4
S315200044B01FFA8CF3FEF7F6BC062F28BF062748F610
S315200044C09031C2F2000127EAE772109713910C92FD
S315200044D0FEF7E8BF0DF5A862484631460C32FEF7D6
S315200044E08BFC00287EF4B6AD0DF59C630433FFF7F4
S315200044F0C8BB0DF5A862484631460C32FEF77CFC57
S3152000450000287EF4A7AD0DF59C630433FFF7CEBAE1
S315200045100DF5A862484631460C32FEF76DFC0028A0
S315200045207EF498AD0DF59C640434FFF7A9BA109774
S3152000453027EAE77717900C979DF87735FEF739BE6F
S315200045401699652914BF00230123452908BF43F086
S315200045500103002B46D007F1010C022321E6169B0E
S31520004560652B76DD169A662A1CBFDDF8703510930A
S3152000457000F083801A9B109883426EDC0A9911F012
S31520004580010F40F08E8020EAE07267230C9216938A
S3152000459091E600271D46FEF7E9BC10999DF8773570
S315200045A021EAE1710C91FEF704BEDDF868359B45E2
S315200045B098BF9B467FF639AE302203F8012B9B45E8
S315200045C0CDF86835F9D830E60DF5A862484631466B
S315200045D00C32FEF711FC00287EF43CAD0DF59C63F1
S315200045E0043308E5BC460233DBE50737B9E546F276
S315200045F0676C0DF590610331C6F2666C8CFB032067
S31520004600DA17C2EBA00202EB8200A3EB40001346AE
S315200046103030092A01F8010DF0DC3033481EDAB2B9
S3152000462001F8012C079B83426AD90DF5AC6303334D
S3152000463001E011F8012B03F8012C1A46DDF81CC005
S3152000464001338C45F5D825E62D2208F1004817922E
S3152000465098E5DDF87005109003E6109B1A99002B5B
S31520004660DABF1098C0F1020301235B18672210936A
S3152000467023EAE37316920C931DE6DDF870050028F5
S31520004680109031DD1FB90A9911F0010F0ED0109844
S3152000469066211691431CDB19109323EAE3720C92D0
S315200046A009E61098672116910130109020EAE072F1
S315200046B00C9200E60B991A780F6804310B91002FA3
S315200046C0B8BF4FF0FF37FEF750BC0A9A12F0010F21
S315200046D004BF20EAE0730C933FF4EDADE5E52D220F
S315200046E05B428DF86125C9E577B90A9B13F0010F66
S315200046F00AD14FF0010CCDF830C0CDF840C0DAE534
S315200047000DF5AC620232C5E50237662127EAE7726B
S31520004710109716910C92CEE5488B002010B448F6DF
S31520004720C054C2F200048C461346014662462068F5
S3152000473010BCFEF76FBB00BF70B548F6C055C2F27D
S31520004740000506460C46286810B18369002B36D032
S3152000475048F6AC33C2F200039C4238D048F6CC333C
S31520004760C2F200039C4241D048F6EC33C2F2000369
S315200047709C4204BF2B68DC68A289114693B213F0D1
S31520004780080F184618BF226933D01AB313F0010157
S3152000479007D063690021A1605B42A36142B100207A
S315200047A070BD13F0020F08BF6169A160002AF6D11F
S315200047B0A38913F0800FF2D04FF0FF3070BD01F0C7
S315200047C08BF948F6AC33C2F200039C42C6D12B6863
S315200047D05C68D1E703F42071B1F5007FD6D030466E
S315200047E0214601F001FDA3892269CFE72B689C6849
S315200047F0C2E713F0100FDFD013F0040F08BF2269B1
S3152000480017D0616B51B104F14403994203D030466D
S3152000481001F0E6F9A28990B20023636322694FF67C
S31520004820DB71C0F20001002300EA01016360A1816F
S31520004830226041F00803A3819BB2A6E70000000096
S315200048402DE9F84F03690E69824689469E4200F398
S315200048508380F21C01F1140500F11404013E92003C
S315200048608B18121803F1040859685068013103F0B7
S3152000487093F90746002839D000239C461A46E95862
S31520004880E0581FFA81FE4FEA114B81B20EFB07CE8C
S3152000489051180BFB07FC0CEB1E4C1FFA8EFECEEBC1
S315200048A001011FFA8CF24FEA1C4CC2EB10421FFA90
S315200048B081FE02EB21424EEA0241E15004331214FA
S315200048C059198845DBD2321D0AEB8203596869B92A
S315200048D09C4209D25AF8222012B105E01A681AB968
S315200048E0043B013E9C42F9D3CAF810604946504623
S315200048F002F0B6F800282CDB002301379C46EA5844
S31520004900E05891B2120C1FFA80F9C2EB1042C1EBAB
S315200049100901614402EB214289B241EA0241E15098
S3152000492004334FEA224C5A199045E8D2321D0AEB3D
S315200049308203596869B99C4209D25AF8222012B1D9
S3152000494005E01A681AB9043B013E9C42F9D3CAF81D
S3152000495010603846BDE8F88F0020BDE8F88F00BF0C
S315200049602DE9F04F466AA1B00446904699462D9D02
S31520004970002E00F02384326882B1616A4FF0010C68
S31520004980766820460B6856604A6819460CFA02F289
S315200049909A6002F09FF9636A00221A60B9F1000654
S315200049A038DB00232B6040F20003C7F6F0731A466B
S315200049B006EA0303934217D00022002340464946C5
S315200049C0CDE9068903F034FC002829D02C98012350
S315200049D02E990360002900F0D080794B581E2E9A1C
S315200049E0136021B0BDE8F08F2C9842F20F7303605C
S315200049F0B8F1000F00F0958048F6A830C2F200000A
S31520004A002E990029EDD0C278C31C002AE7D000F1E8
S31520004A100803E4E726F000460123B1462B60C2E7EF
S31520004A202046DDE906231EA900911FA9019102F067
S31520004A30A3F9C6F30A558346002D7ED0DDE906018B
S31520004A40A5F57E751F9F073D21F07F4323F4700354
S31520004A5043F07E51002341F4E001199340F2000314
S31520004A600022C3F6F87303F0D9F94FA3D3E9002344
S31520004A70FDF790FD4EA3D3E9002303F0D1F9CDE94C
S31520004A800801284603F018FB4BA3D3E90023FDF7C2
S31520004A9081FD02460B46DDE9080103F0C1F9CDE9A7
S31520004AA0080103F0F7FB002200230646DDE9080192
S31520004AB003F0C8FB40B1304603F0FEFADDE90823D7
S31520004AC003F0B6FB00B9013E162E5BD901231893DD
S31520004AD0013FB7EB050A42BFCAF1000ACDF83CA058
S31520004AE04FF0000A01D400220F92002EC0F27183EB
S31520004AF0B2440023179615932A9B092B62D8052BBF
S31520004B0040F377862A98002704382A902A998B1E04
S31520004B10032B00F2DD83DFE813F0A503D803D503CA
S31520004B20C40326F07F4626F47006002E7FF464AF79
S31520004B3048F69C30C2F2000062E71F9F1E9BFB18BE
S31520004B4003F586639D1C202DDCBFC5F1200008FAE5
S31520004B5000F008DD1E3BC5F1400216FA02F228FAE3
S31520004B6003F342EA030003F097FAA5F586650122CE
S31520004B70033D1992A1F1F87170E748F69830C2F218
S31520004B8000002EE748F65043DDE90601C2F2000395
S31520004B9003EBC603D3E9002303F054FB002840F0BF
S31520004BA02083189094E700BF61436F63A787D23FA5
S31520004BB0B3C8608B288AC63FFB799F501344D33FE6
S31520004BC0998B002000234FF0FF301F4601212A93A6
S31520004BD01190169108902B93656A00236B602046EE
S31520004BE0696802F093F8636A28601B681093002FA7
S31520004BF000F05B81002E40F32A8448F6504306F0ED
S31520004C000F02C2F20003351103EBC20315F0100F99
S31520004C10D3E90001CDE90C0100F0E78248F62853DC
S31520004C20DDE90601C2F2000305F00F054FF0030887
S31520004C30D3E90823FDF7D8FDCDE91201BDB148F629
S31520004C402857DDE90C23C2F2000715F0010F1046A4
S31520004C50194607D0D7E9002308F10108FDF79AFC89
S31520004C6002460B4608376D10EFD1CDE90C23DDE95E
S31520004C700C23DDE91201FDF7B7FDCDE90C011899EA
S31520004C80002900F0DE8040F20003DDE90C0100225D
S31520004C90C3F6F0734FF0000503F0D4FA08B14FF0D5
S31520004CA00105089A002AD4BF002505F00105002D2C
S31520004CB000F0C780119B002B40F3F58040F20003E3
S31520004CC00022C4F22403DDE90C01FDF763FCCDE9E3
S31520004CD00C0108F10100711E129103F0EDF9024654
S31520004CE00B46DDE90C01FDF755FC40F200030022DE
S31520004CF0C4F21C0303F094F8DDF844C08046A1F109
S31520004D005079169B002B00F0AD8348F6504340F2B5
S31520004D100001C2F20003002003EBCC03C3F6E071CE
S31520004D20CDF80CC053E90223FDF75EFD42464B4603
S31520004D30109D03F073F880468946DDE90C0103F0E7
S31520004D40A9FA074603F0B8F902460B46DDE90C013D
S31520004D5003F064F807F13003CDE90C01404605F86D
S31520004D60013B4946DDE90C2303F08AFA002840F08E
S31520004D70138240F20001DDE90C230020C3F6F07116
S31520004D8003F04CF802460B464046494603F078FAB3
S31520004D90DDF80CC0002840F0E783BCF1010F40F39A
S31520004DA08280CDF868B00127CDF870A01D966646A2
S31520004DB0DDE90CAB0C9410E040F200010020C3F6B4
S31520004DC0F07103F02BF842464B4603F03BFA0028DD
S31520004DD040F0C783B74280F28B8440F200034046FE
S31520004DE049460022C4F224030135FDF7D3FB40F2E5
S31520004DF000030022C4F224038046894650465946C1
S31520004E00FDF7C8FB8B46824603F044FA044603F0BE
S31520004E1053F9303402460B465046594602F0FEFFFF
S31520004E20109A4B46D4554246013782468B4603F0AC
S31520004E3009FA52465B460028BED0DDF868B00C9CC5
S31520004E40AAE1404603F038F9DDE90C23FDF7A2FB81
S31520004E5040F200030022C4F21C0302F0E1FF089A8C
S31520004E60A1F150758046A946002A40F0EC8240F216
S31520004E700003DDE90C010022C4F2140302F0CEFF88
S31520004E8042462B46CDE90C0103F0FAF9002840F002
S31520004E904A824246DDE90C0105F1004303F0D2F9CE
S31520004EA0002840F0D581DDE906891E9B6FEA0307BD
S31520004EB04FEAD7770E2ECCBF002707F00107002F29
S31520004EC000F0B7802B9848F65043C2F200030899A9
S31520004ED003EBC603C20F0029CCBF002202F0010259
S31520004EE0D3E90001CDE90401002A40F0A081024661
S31520004EF00B4640464946FDF777FC109D03F0CAF95C
S31520004F00824603F0D9F8DDE90423FDF743FB024688
S31520004F100B464046494602F081FF0AF1300305F868
S31520004F20013B089A012A8046894652D040F2000366
S31520004F300022C4F22403FDF72DFB00220023CDE935
S31520004F40060103F075F9002840F0EB8110984FF028
S31520004F500108CDF82CB0A346871C0F96DDF82090CB
S31520004F60DDE906450AE0FDF715FB0022002304468D
S31520004F700D4603F05DF9002840F0CE81DDE90423DB
S31520004F802046294608F10108FDF72EFC3E4603F08F
S31520004F9081F9824603F090F8DDE90423FDF7FAFA59
S31520004FA002460B462046294602F038FF00220AF127
S31520004FB0300C07F801CC0137C14540F20003C4F29A
S31520004FC02403D0D135465C460F9E8046DDF82CB0B2
S31520004FD0894642464B464046494602F021FF8046D6
S31520004FE089464246DDE904014B4603F02BF960B9B8
S31520004FF0DDE9040142464B4603F01AF9002800F089
S3152000500090811AF0010F00F08C81109900E01D4666
S3152000501015F8012C6B1E392A40F067838B42F6D196
S3152000502010993023013631220B70109B1A7012967C
S31520005030B2E0169A002A40F0DF80159F0F9D0C9251
S31520005040002DD4BF00230123BAF1000FD4BF0023C3
S3152000505003F001034BB1AA45B4BF53462B460F9824
S31520005060C3EB0A0AED1AC01A0F90159900291CDD08
S31520005070169A002A00F0E982002F12DD0C993A4692
S31520005080204602F0A3F85A460C9020460C9901F0CF
S31520005090B5FF594603462046039301F01BFE039BAA
S315200050A09B46159BDA1B40F011830121204602F016
S315200050B03FF806901798002805DD06992046179A8E
S315200050C002F084F806902A99012940F30A810027E4
S315200050D0179B002B40F061820123534413F01F03DA
S315200050E040F02A811C230F9A9A44ED18D2180F9269
S315200050F00F9B002B05DD59461A46204601F020FF5E
S315200051008346BAF1000F05DD06995246204601F086
S3152000511017FF06901898002840F029822A980899A7
S315200051200228D4BF002301230029CCBF002303F08B
S315200051300103002B00F00C81002940F08C80052211
S315200051400699089B204601F0FDFF069058460699D1
S3152000515001F086FC00287EDD109D01360027DDF853
S3152000516030A0312305F8013B0699204601F0B2FD17
S31520005170BAF1000F00F0D5803B1E18BF012357451A
S315200051800CBF002303F00103002B40F0D0805146D2
S31520005190204601F09FFD12962046594601F09AFDC1
S315200051A0129A531C00222A702C982E9903600029EB
S315200051B000F0D4812E9A1098156012E4102001F088
S315200051C089F8C66046608660066006466062FFF71C
S315200051D0D2BB0F98714200221591801B17920F9017
S315200051E08AE40021013E189172E4DDE906234FF09E
S315200051F00208CDE9122321E52A98012840F36C8282
S31520005200089A1598531E9842C0F25882C71A089BCE
S31520005210002BA8BF0F9DC0F273820F9A2046012152
S315200052209A44D2180F9201F083FF0C9008E7089B4E
S3152000523073B940F200030022C4F21403DDE904012D
S31520005240FDF7A8F942464B4603F010F800286AD02D
S31520005250002206920C922B9B0027DDF830A0DE431D
S31520005260109D81E7002116912B98002840F39F81FD
S315200052702B98014611900890656A002217296A60CA
S3152000528040F2AB8204235B00013203F11400884212
S31520005290F9D9089B6A600E2B8CBF002707F00107FF
S315200052A09DE4012216922B9BF3181193591C002979
S315200052B0C8BF0891E0DC0E298CBF002707F0010744
S315200052C0089189E401231693CEE700221692EAE795
S315200052D04FF0FF33002701201193169008932B9748
S315200052E07AE4B8F1000F7FF4F2AE29F07F4323F47D
S315200052F07003002B7FF4EBAE40F20003C7F6F07389
S3152000530009EA0303002B3FF4E2AE0F9A0AF1010AE1
S31520005310012701320F92DBE635465C460F9EDDF80B
S315200053202CB0129638E7002006900C9014E73946E8
S31520005330204601F0CFFC2AE7C3F12003042B40F3DB
S3152000534054820F99043B9A44ED18C9180F91CFE661
S315200053501699002900F03181002D05DD0C992A4689
S31520005360204601F0EDFD0C90002F40F0EA81DDF89B
S3152000537030A0109D012308F001000C9F11900F957D
S315200053801D460C9606995846FFF75AFA394630308C
S315200053900B90584601F064FB069952460646204675
S315200053A001F052FDC3688046002B3DD04FF0010925
S315200053B04146204601F08EFC2A9959EA010103D183
S315200053C0119A002A00F0EB81002EC0F29E812A9AC3
S315200053D0324303D1119B002B00F09781B9F1000FC6
S315200053E000F3CE810F990B9A01F8012B089B0F91A0
S315200053F09D4200F0C28159460A220023204601F030
S31520005400A1FE57453946834614D00A22002320465A
S31520005410013501F097FE51460A2200230746204611
S3152000542001F090FE8246ADE75846414601F018FB52
S315200054308146BDE720460A220023013501F082FE7F
S31520005440074682469EE71296DDF820C059E475424B
S31520005450002D40F00181DDE906014FF00208CDE97B
S315200054600C010CE448F650414246C2F200014B467C
S3152000547001EBCC01CDF80CC0109D51E90201FDF7DE
S3152000548089F8CDE91A01DDE90C0102F003FF074690
S3152000549002F012FE0B460246DDE90C0102F0BEFCCC
S315200054A007F13003CDE90C0105F8013BDDF80CC00E
S315200054B0BCF1010F29D0D146DDE90C01B246109E80
S315200054C01C9501276546A04640F200030022C4F23F
S315200054D02403FDF75FF8CDE90C0102F0DBFE04465C
S315200054E002F0EAFD303402460B46DDE90C0102F0FB
S315200054F095FCF4550137AF42E6D11C9D013F564637
