:020000042000DA
:100000000000012099020020090300200B030020BA
:100010000D0300200F03002011030020000000004A
:10002000000000000000000000000000130300209A
:100030001503002000000000170300201903002012
:100040001B0300201D0300201F03002021030020AC
:10005000230300202503002027030020290300207C
:100060002B0300202D030020450C0020750C0020E0
:10007000A9140020D9140020AD1A00203903002053
:100080003B030020DD1A00203F0300204103002035
:1000900043030020450300204703002049030020BC
:1000A0004B030020000000000000000000000000E2
:1000B0000000000000000000000000008D0700208C
:1000C0004F030020F10700205303002055030020B8
:1000D00057030020590300205B0300205D0300202C
:1000E0005F0300203D08002063030020650300201B
:1000F00067030020690300206B0300206D030020CC
:100100006F0300207103002073030020750300209B
:1001100077030020790300207B0300207D0300206B
:100120007F0300208103002083030020850300203B
:1001300087030020890300208B0300208D0300200B
:100140008F030020910300209303002095030020DB
:1001500097030020990300209B0300209D030020AB
:100160009F030020A1030020A3030020A50300207B
:10017000A7030020A9030020AB030020AD0300204B
:10018000AF030020B1030020B3030020B50300201B
:10019000B7030020B9030020BB030020BD030020EB
:1001A000BF030020C1030020C3030020C5030020BB
:1001B000C7030020C9030020CB030020CD0300208B
:1001C000CF030020D1030020D3030020D50300205B
:1001D000D7030020D9030020DB030020DD0300202B
:1001E000DF030020E1030020E3030020E5030020FB
:1001F000E7030020E9030020EB030020ED030020CB
:10020000EF030020F1030020F3030020F50300209A
:10021000F7030020F9030020FB030020FD0300206A
:10022000FF03002001040020030400200504002037
:1002300007040020090400200B0400200D04002006
:100240000F040020110400201304002015040020D6
:1002500017040020190400201B0400201D040020A6
:100260001F04002021040020230400202504002076
:1002700027040020290400202B0400202D04002046
:100280002F04002031040020330400203504002016
:100290003704002039040020684880476848002857
:1002A0000BD168486849694A884206D091421CBF10
:1002B00050F8043B41F8043BF8D165486549664A6B
:1002C000884206D091421CBF50F8043B41F8043BE1
:1002D000F8D162486249634A914218BF41F8040B61
:1002E000FAD1000000000000000000000000000043
:1002F000DFF874010FF2030E00474FF000004FF0DB
:100300000001DFF868F1FEE7FEE7FEE7FEE7FEE743
:10031000FEE7FEE7FEE7FEE7FEE7FEE7FEE7FEE7B5
:10032000FEE7FEE7FEE7FEE7FEE7FEE7FEE7FEE7A5
:10033000FEE7FEE7FEE7FEE7FEE7FEE7FEE7FEE795
:10034000FEE7FEE7FEE7FEE7FEE7FEE7FEE7FEE785
:10035000FEE7FEE7FEE7FEE7FEE7FEE7FEE7FEE775
:10036000FEE7FEE7FEE7FEE7FEE7FEE7FEE7FEE765
:10037000FEE7FEE7FEE7FEE7FEE7FEE7FEE7FEE755
:10038000FEE7FEE7FEE7FEE7FEE7FEE7FEE7FEE745
:10039000FEE7FEE7FEE7FEE7FEE7FEE7FEE7FEE735
:1003A000FEE7FEE7FEE7FEE7FEE7FEE7FEE7FEE725
:1003B000FEE7FEE7FEE7FEE7FEE7FEE7FEE7FEE715
:1003C000FEE7FEE7FEE7FEE7FEE7FEE7FEE7FEE705
:1003D000FEE7FEE7FEE7FEE7FEE7FEE7FEE7FEE7F5
:1003E000FEE7FEE7FEE7FEE7FEE7FEE7FEE7FEE7E5
:1003F000FEE7FEE7FEE7FEE7FEE7FEE7FEE7FEE7D5
:10040000FEE7FEE7FEE7FEE7FEE7FEE7FEE7FEE7C4
:10041000FEE7FEE7FEE7FEE7FEE7FEE7FEE7FEE7B4
:10042000FEE7FEE7FEE7FEE7FEE7FEE7FEE7FEE7A4
:10043000FEE7FEE7FEE7FEE7FEE70000711B002097
:1004400000000000000000200000002020830020A9
:10045000208300202083002044880020000000002A
:1004600044880020E08B0020C9200020BD07002028
:1004700048F64403C2F200031A780AB90120187042
:10048000704700BF48F22030C2F2000008B5036890
:100490002BB140F20003C0F2000303B1984708BD3E
:1004A00048F68D03C2F200031B78032B44D948F6AB
:1004B0009003C2F20003197848F69912C2F20002C2
:1004C0001170597848F68902C2F2000211709978C9
:1004D00048F69812C2F200021170DA7848F68A03E0
:1004E000C2F200031A7048F64503C2F200031B78FB
:1004F00093B948F69913C2F200031A7848F22433EC
:10050000C2F200031B78934206D048F69913C2F258
:1005100000031B78FF2B0FD148F68603C2F20003BD
:100520001A8802F1010292B21A8048F68C03C2F2D4
:1005300000034FF001021A70704700BF10B5044667
:100540004FF008004FF0000101F0E0FA48F6EC101F
:10055000C2F200004FEA042100F0ECFD04464FF027
:1005600008004FF0010101F0D1FAE0B210BD00BF68
:100570002DE9F04583B007460E46904648F6EC1448
:10058000C2F200044FF00805009520464FF000012C
:100590000A464FF0070300F09FFC20464FF0000191
:1005A00000F01AFD28464FF0000101F0AFFA204696
:1005B000394600F0BFFD82464746B8F1000F0FD024
:1005C0004FF0000448F6EC15C2F20005A04628469C
:1005D000414600F0AFFD305504F10104BC42F6DBAA
:1005E0004FF008004FF0010101F090FA48F6EC14CA
:1005F000C2F2000420464FF0000100F053FD4FF01E
:100600001003009320464FF000010A464FF0070305
:1006100000F062FC5FFA8AF003B0BDE8F08500BF2D
:1006200070B505460E4648F6EC14C2F200042046AA
:100630004FF0000100F0D0FC4FF008004FF0000137
:1006400001F064FA46EA0525204645F4004100F031
:1006500071FD4FF008004FF0010101F057FA2046FC
:100660004FF0000100F01EFD70BD00BF08B548F658
:100670008803C2F200031B785BB14FF00100014612
:10068000FFF7CEFF48F68803C2F200034FF00002E6
:100690001A7008BD10B54FF01200FFF74FFF48F673
:1006A0008803C2F200031B78022B48D110F0A00F80
:1006B00009D048F69013C2F200031A8802F1010231
:1006C00092B21A805AE010F0400F57D04FF013004A
:1006D000FFF734FF04464FF01000FFF72FFF0146ED
:1006E0004FF00D00FFF79CFF4FF0000048F690011F
:1006F000C2F200012246FFF73BFF48F68D03C2F22B
:1007000000031C704FF012004FF0FF01FFF788FF4D
:100710004FF01A00FFF712FFA0F1890292B248F6DB
:100720008403C2F200031A80FFF7BAFE48F68C0376
:10073000C2F200031B780BB3FFF798FF1EE0032BF8
:100740000ED110F0080F19D048F68E03C2F2000344
:100750001A8802F1010292B21A80FFF787FF0DE0BA
:10076000042B0BD110F0040F08D000F0010048F664
:100770008B03C2F200031870FFF778FF4FF01200EE
:100780004FF0FF01FFF74CFF10BD00BF684620F09F
:1007900007018D4601B448F64603C2F200034FF04C
:1007A00001021A704EF20013CEF200034FF0004225
:1007B000C3F8802101BC8546704700BF00B583B0F7
:1007C00000F052F800F096F800F0E6F80028FBD0B0
:1007D000684600F0BDF848F21400C2F2000000992B
:1007E000019A01F0CBFD4FF0000003B000BD00BF47
:1007F000684620F007018D4601B54FF0010001F079
:1008000093F948F64703C2F200031B783BB948F658
:100810004703C2F200034FF001021A7006E048F6E7
:100820004703C2F200034FF000021A704FF00100BC
:1008300000F014F8BDE8014085467047684620F096
:1008400007018D4601B54FF0090001F06DF9FFF782
:1008500021FFBDE801408546704700BF48F22533BF
:10086000C2F200031870704740F21C03C4F2050383
:100870004FF000021A6070472DE9F00F9A4640F2DF
:100880001C04C4F205044FF00009C4F8009040F2C3
:10089000080CC4F2050C4FF00108CCF80080056884
:1008A00040F20C03C4F205031D600D6840F214070A
:1008B000C4F205073D60156840F21006C4F2050653
:1008C0003560DAF800B040F21805C4F20505C5F845
:1008D00000B0CCF80090406818604B683B605368EB
:1008E0003360DAF804302B60C4F80080BDE8F00F04
:1008F000704700BF00B589B048F22403C2F200037C
:100900000DF1180E93E803008EE8030048F23C0353
:10091000C2F200030DF1100C93E803008CE8030011
:1009200048F23403C2F2000302AA93E8030082E80B
:10093000030048F22C01C2F200016B4603C983E8B0
:10094000030070466146FFF797FF09B000BD00BF86
:1009500010B440F22403C4F205031B7813B94FF01E
:10096000010016E040F20802C4F205024FF0000157
:1009700040F22003C4F205031C6844604FF00104F8
:1009800014601B68036040F21C03C4F20503196085
:10099000084610BC704700BF40F22403C4F20503B0
:1009A000187870474FF0FF30704700BFFEE700BF78
:1009B0004FF400534B604FF0000070474FF00100C0
:1009C000704700BF4FF00000704700BF4FF00000BD
:1009D000704700BF38B515461C4648F64803C2F2BA
:1009E00000031B6883B948F6C410C2F200004FF43C
:1009F00061414FF0030200F055F948F64803C2F296
:100A000000034FF001021A6048F6C410C2F2000061
:100A10002946224600F034F8204638BD08B548F68D
:100A20004C03C2F200031B6843B948F64C03C2F200
:100A3000000348F6E032C2F200021A6048F64C03A6
:100A4000C2F200031A68EFF30883104483420FD206
:100A50004FF000004FF0010148F24402C2F20002E0
:100A60004FF01903FFF7B6FF4FF00100FFF79EFFAD
:100A700048F64C03C2F200031860104608BD00BFE0
:100A80002DE9F00548F6C413C2F20003984206D0DF
:100A900048F69C13C2F20003984200D000BE01B990
:100AA00000BE02B900BE48F6C413C2F20003984269
:100AB00005D048F69C13C2F20003984233D1131EAE
:100AC00018BF012300290CBF002303F00103002BF2
:100AD00029D04FF00007B8464FF0100A03681B7D7D
:100AE00090F80AC043EA0C0C80F80AC013F0200FFB
:100AF00017D00F2A04D95646BC4643460F4404E09B
:100B00000AB943460BE01646F6E70468FD5C25701B
:100B10000CF1010C03F101039E42F6D86746C3EBCA
:100B20000202002ADAD1BDE8F005704708B548F6A0
:100B3000C413C2F20003984207D048F69C13C2F2D5
:100B40000003984201D000BE08BD03681B7A03F081
:100B50000F030C2B20D8DFE803F0071F0D1F131F16
:100B6000191F1F1F1F1F1300436A0BB900BE08BDCA
:100B7000984708BD036A0BB900BE08BD984708BD79
:100B8000C3690BB900BE08BD984708BD83690BB99E
:100B900000BE08BD984708BD00BE08BD10B448F6A9
:100BA000C413C2F20003984206D048F69C13C2F266
:100BB0000003984200D000BEC26802B900BE0169BD
:100BC00001B900BE48F6C413C2F20003984205D032
:100BD00048F69C13C2F20003984230D1002A2ED06E
:100BE00000292CD003681B7D827A43EA02028272BC
:100BF00013F0200F1AD002694369C3EB02030F2BD5
:100C000004D94FF0100C4FF0000302E073B19C4682
:100C1000F9E70268C4684169615C1170426902F1D8
:100C20000102426103F101036345F2D342690369A2
:100C30009A4201BF002303614268C2F8843010BCAD
:100C4000704700BF684620F007018D4601B548F6A1
:100C5000C410C2F20000FFF769FF4EF20013CEF29B
:100C600000034FF48062C3F88021BDE8014085464F
:100C7000704700BF684620F007018D4601B548F671
:100C80009C10C2F20000FFF751FF4EF20013CEF2AB
:100C900000034FF40062C3F88021BDE8014085469F
:100CA000704700BF70B504460D46164648F6C4139B
:100CB000C2F20003984206D048F69C13C2F2000329
:100CC000984200D000BE05B900BE00F053FF48F6C0
:100CD000C413C2F200039C4226D148F6C413C2F2E8
:100CE00000034FF080421A604FF084425A604FF088
:100CF0000A021A8148F23033C2F20003186842F245
:100D00000003CEF204031A6B42F080021A634EF223
:100D10000012CEF200024FF48061C2F880111A6B0B
:100D200022F080021A6325E040F20003C4F20103BE
:100D3000236040F20003C4F2202363604FF00B03F2
:100D4000238148F23433C2F20003186842F20003F0
:100D5000CEF204031A6B42F480721A634EF2001250
:100D6000CEF200024FF40061C2F880111A6B22F437
:100D700080721A6323684FF000021A7115B94FF0A0
:100D800001050FE0B0FBF5F515F0080F4FEA15155A
:100D900018BF0135B5F5803F38BFADB202D300BEF4
:100DA0004FF0010563684FF00102C3F89C212368EE
:100DB0004FEA15221A712368EDB21D7062684FF078
:100DC0000003C2F89C312268167322684FF00E01AE
:100DD00011726268C2F810322361E3606361E361FB
:100DE00040F69D32C2F200022262A3616362A372E6
:100DF00070BD00BF2DE9F0070368D3F80080D3F879
:100E000018C05F689E6A1D6B5C6BD3F81CA048F627
:100E10007023C2F20003984224D148F67023C2F234
:100E2000000341F20002C4F200021A604FF00C010C
:100E3000998042F20003CEF20403196B41F4007171
:100E400019634EF20011CEF200014FF48059C1F83F
:100E50008091196B21F400711963136823F000432A
:100E600013601FE041F20002C4F2010202604FF081
:100E70000D03838042F20003CEF20403196B41F4A8
:100E8000806119634EF20011CEF200014FF4005957
:100E9000C1F88091196B21F480611963136823F004
:100EA0000043136028F0010203681A600368C3F866
:100EB00018C003685F6003681A6842F001021A6094
:100EC00003689E6203681D6303685C630368C3F87C
:100ED0001CA0BDE8F0077047F0B49DF8105048F62C
:100EE000702CC2F2000C604506D048F6EC1CC2F231
:100EF000000C604500D000BE072900D900BE202D9F
:100F000000D900BEB0F804C00FFA8CF64FEA5616AE
:100F10000CF01F0C4FF0010707FA0CF74EF200140B
:100F2000CEF2000406F1200644F826704FF0000CC3
:100F300080F880C00468266826F0010626600468F0
:100F4000266846F0020626600468266846F0010618
:100F5000266007292DD8B2F1007F14BF0024012498
:100F6000624508BF44F0010454B9B2F1407F14BF98
:100F700000240124B2F1807F08BF44F001044CB189
:100F800000EBC10440F2021CC2F2004C42EA0C0227
:100F9000626308E000EBC10440F2021CC2F2000CE4
:100FA00042EA0C02626301F1060100EBC1010D721D
:100FB0004B7283881AB24FEA521203F01F034FF0AC
:100FC000010101FA03F14EF20013CEF2000343F8DF
:100FD0002210F0BC704700BF38B5044648F67023B5
:100FE000C2F20003984206D048F6EC13C2F20003A6
:100FF000984200D000BE2268136813F0020F00D19F
:1010000000BE0D4604EBC1035B6BB3F1FF3F00D1A3
:1010100000BEA38819B24FEA511103F01F034FF02D
:10102000010000FA03F04EF20013CEF2000301F1CA
:10103000200143F82100936813F0040F02D02046EA
:10104000FFF7D8FE23681A6822F001021A602268AE
:1010500005F1060304EBC303596811602268597A4D
:10106000916122681B7A536023681A6842F001027A
:101070001A602268D1694FF0010303FA05F545EAC9
:101080000105D561A28811B24FEA511102F01F0289
:1010900003FA02F24EF20013CEF2000343F82120CD
:1010A00038BD00BF38B504460D4648F67023C2F27D
:1010B0000003984206D048F6EC13C2F200039842AF
:1010C00000D000BE2268136813F0020F00D100BEEA
:1010D000A38819B24FEA511103F01F034FF001002A
:1010E00000FA03F04EF20013CEF2000301F12001EA
:1010F00043F82100936813F0040F02D02046FFF755
:1011000079FE2268D1694FF0010303FA05F521EA5F
:101110000505D561A28811B24FEA511102F01F02F4
:1011200003FA02F24EF20013CEF2000343F821203C
:1011300038BD00BF10B483B048F67023C2F200037C
:10114000984206D048F6EC13C2F20003984200D051
:1011500000BE03681A6812F0020F00D100BE1C68BE
:1011600040F2FF02CFF6007204EA020242F48072FB
:101170001A600368DA6A42F00C02DA6203689A685D
:1011800012F0400F07D11A690192019A01929A68F0
:1011900012F0400FF7D0596103689A6812F0010FFE
:1011A00003D19A6812F0010FFBD09A6812F0020F77
:1011B00003D19A6812F0020FFBD0186903B010BC7B
:1011C000704700BF10B40268936813F4807F13D196
:1011D0000369C1688B4213D28168CB5C5361036998
:1011E00003F1010303610268916811F4807F03D168
:1011F000C1689942F0D803E00269C3689A4217D3E4
:101200000268936813F4807F12D1C36981698B42AD
:101210000ED24169CB5C5361C36903F10103C36121
:101220000268916811F4807F02D181699942F0D8F7
:10123000436ACBB10269C3689A4215D3C269836914
:101240009A4211D303689A6812F4807F0CD14FF050
:10125000000214465C610368996811F4807F03D131
:1012600002F10102202AF5D110BC704710B582B0FE
:10127000044690F88030022B0CD105E013690193ED
:10128000636F13B1019898472268936813F0400F79
:10129000F4D023E0012B03689A6803D012F0400FCA
:1012A00016D01BE012F0400F18D11B690193236B7D
:1012B000E26A93423EBF0199A26AD154236B03F1C3
:1012C0000103236323689A6812F0400FEDD005E014
:1012D0001A6901929A6812F0400FF9D002B010BD5D
:1012E00070B582B00446056848F67023C2F2000368
:1012F000984206D048F6EC13C2F20003984200D0A0
:1013000000BE2B6A13F0020F38D094F88030022B05
:101310000CD105E013690193636F13B101989847ED
:101320002268936813F0400FF4D023E0012BAB68E0
:1013300003D013F0400F17D01CE013F0400F19D169
:101340002B461B690193236BE26A93423EBF0199CE
:10135000A26AD154236B03F10103236323689A68C3
:1013600012F0400FEDD005E02B690193AB6813F04C
:10137000400FF9D023684FF00202DA602B6A13F0B5
:10138000010F0ED094F88030022B03D12368A26F96
:101390005A6102E02046FFF715FF23684FF0010273
:1013A000DA602B6A13F0100F16D02046FFF75EFFAD
:1013B000236A2BB1A06A216B98472046FFF702FFF2
:1013C0004FF00103636223689A6A22F010029A6266
:1013D00023684FF01002DA602B6A13F0040F0BD071
:1013E0002368DA6A42F00402DA622046FFF702FD5F
:1013F00023684FF00402DA602B6A13F0080F23D041
:101400002368DA6A42F00802DA6294F88030022B2C
:101410000ED12268116840F2FF03CFF6007301EA93
:10142000030343F4807313602368A26F5A6107E0DB
:10143000012B05D14FF0000323612046FFF7C2FEC8
:1014400023684FF00802DA602B6A13F0200F29D0CE
:101450002046FFF70BFF266B236A73B14FF00003A2
:1014600063626361A361E36123684FF01002DA6095
:1014700023689A6A42F010029A624FF000052561D3
:101480002368DA6A42F00C02DA622046FFF79AFE1D
:101490002563E36F13B1A06A3146984723684FF084
:1014A0002002DA6002B070BD684620F007018D4668
:1014B00001B548F67020C2F20000FFF711FF4EF2AE
:1014C0000013CEF200034FF48052C3F88021BDE830
:1014D00001408546704700BF684620F007018D46F1
:1014E00001B548F6EC10C2F20000FFF7F9FE4EF22B
:1014F0000013CEF200034FF40052C3F88021BDE880
:1015000001408546704700BF90F868301BB1836981
:101510004FF001029A60704730B583B0044648F638
:10152000F423C2F20003984206D048F66833C2F2B0
:101530000003984200D000BE626913798DF807302D
:101540009DF80730A3F10803D02B00F28E82DFE86C
:1015500013F0D1008C028C028C028C028C028C0263
:101560008C02D1008C028C028C028C028C028C02C8
:101570008C0206018C028C028C028C028C028C0282
:101580008C02F7008C028C028C028C028C028C0282
:101590008C0206018C028C028C028C028C028C0262
:1015A0008C0244018C028C028C028C028C028C0214
:1015B0008C02F2008C028C028C028C028C028C0257
:1015C0008C0253018C028C028C028C028C028C02E5
:1015D0008C026E018C028C028C028C028C028C02BA
:1015E0008C027D018C028C028C028C028C028C029B
:1015F0008C028F018C028C028C028C028C028C0279
:101600008C02D0018C028C028C028C028C028C0227
:101610008C02CC018C028C028C028C028C028C021B
:101620008C02D0018C028C028C028C028C028C0207
:101630008C02CC018C028C028C028C028C028C02FB
:101640008C02E6018C028C028C028C028C028C02D1
:101650008C02BB018C028C028C028C028C028C02EC
:101660008C02E6018C028C028C028C028C028C02B1
:101670008C02BB018C028C028C028C028C028C02CC
:101680008C02FF018C028C028C028C028C028C0278
:101690008C0248028C028C028C028C028C028C021E
:1016A0008C0248028C028C028C028C028C028C020E
:1016B0008C0248028C028C028C028C028C028C02FE
:1016C0008C027A028C028C028C028C028C028C02BC
:1016D0008C027A028C028C028C028C028C028C02AC
:1016E0008C028C028C028C028C028C028C028C028A
:1016F0008C023902A3694FF000025A6163692279B2
:101700001A72A369E26AC3F80021E36A0BB9A36203
:1017100003E0012B04BF0023A36394F871301BB1D5
:101720004FF0000384F8713094F87230227A9A42B4
:1017300018BF2372AFE1A3694FF001025A61AAE119
:10174000A3694FF001021A614FF0020384F83C30A4
:101750004FF0000323722046FFF7D6FE9BE1A36AF9
:10176000616A8B4206D2216AC95C117203F10103DE
:10177000A36290E1237A032B05D14FF00103E362CA
:10178000A269536187E14FF000032372237C03F0C9
:10179000010384F870303BB9A3694FF001051D6166
:1017A0002046FFF7B1FE13E0638A1AB24FEA5212E5
:1017B00003F01F034FF0010101FA03F14EF2001391
:1017C000CEF2000302F1200243F822104FF0000590
:1017D0004FF0000384F83C305CE1A3694FF0010254
:1017E0001A614FF0020384F83C304FF0000323727B
:1017F0002046FFF789FE4EE1636B012B04D9A369F4
:101800004FF001029A6046E1012B04D1A3694FF029
:1018100000029A603FE1A2694FF001039360A26960
:1018200013614FF0000384F83C30237233E1A36965
:101830004FF001021A614FF0020384F83C304FF080
:10184000000323722046FFF75FFE24E1A36B117AA9
:10185000226BD15403F10103A363626B02F1FF32E7
:101860009342C0F01881A3694FF000029A6012E120
:10187000117A226BA36BD154237C03F0010384F80B
:1018800070303BB9A3694FF001051D612046FFF799
:101890003BFE13E0638A1AB24FEA521203F01F03B1
:1018A0004FF0010101FA03F14EF20013CEF20003F2
:1018B00002F1200243F822104FF000054FF0000320
:1018C000237284F83C30E5E0A3694FF001029A608E
:1018D0004FF00003237284F85C3094F87130002BD1
:1018E00000F0D980A3695A61D5E04FF0010384F874
:1018F00071304FF0040323724FF00003A365E360DF
:10190000A3695A6932B14FF000025A614FF00103E6
:1019100084F871304FF0010384F85C30BBE0216D36
:1019200061B1A36D606D83420DD2127ACA5403F186
:101930000103A365E36802EB0322E260A26D636D1D
:101940009A42C0F0A880A3694FF000029A60A2E01A
:10195000237A042B21D1A26D236E9A4204BFE3683F
:10196000E364636EA3B12046216DB4F85820984714
:1019700038B92046FFF7C8FDA3694FF001029A600D
:1019800011E0A2694FF00003936084F868300AE028
:10199000A3694FF001029A6005E04FF00003E36491
:1019A0002046FFF7B1FD4FF0000384F85C3094F857
:1019B00071301BB1A3694FF001025A614FF000036F
:1019C000237268E04FF000032372E36494F85C3004
:1019D000012B04BF022384F85C302046FFF794FDFE
:1019E00059E09DF80730A82B13D14FF0050323725F
:1019F0004FF00003E3604FF0010384F85C30A3690B
:101A00005A6932B14FF000025A614FF0010384F875
:101A10007130E36CA26C934223BF63694FF0FF32D5
:101A20001A7262693FBF616CC95C1172013338BFC1
:101A3000E364E26CA36C9A422DD3A2694FF00003D9
:101A40009360E36427E04FF00003E364A2694FF082
:101A50000101916084F85C3094F871300BB1A36996
:101A600059614FF00003237215E0A2694FF00003A3
:101A700053612372E36494F83C30012B04BF0223CA
:101A800084F83C3094F85C30012B04BF022384F8C6
:101A90005C3000E01DB1A3694FF00002DA606369B9
:101AA0001B798DF8073003B030BD00BF684620F0C9
:101AB00007018D4601B548F6F420C2F20000FFF799
:101AC0002BFD4EF20013CEF200034FF48042C3F818
:101AD0008021BDE801408546704700BF684620F080
:101AE00007018D4601B548F66830C2F20000FFF7E5
:101AF00013FD4EF20013CEF200034FF40032C3F890
:101B00008021BDE801408546704700BF1F2801D9EC
:101B100000BE704740F20003C4F2262300F588603F
:101B200043F82010704700BF1F2801D900BE70473E
:101B30004FF0010202FA00F143F20003C4F2010384
:101B4000C3F8801048F26003C2F2000333F810308B
:101B500019B24FEA511103F01F0302FA03F24EF2D9
:101B60000013CEF2000301F1600143F82120704719
:101B7000704700BF30B484B048F2A003C2F2000343
:101B8000EC460FCB8CE80F0042F20003CEF20403C8
:101B90009A6C02F00C0204A90A4452F8105C9A6C88
:101BA000C2F3011201EB820252F8104C9A6CC2F39C
:101BB000811201EB820252F8100CD96CDB6CC1F37C
:101BC000042101F1010113F4005F18BF490040F244
:101BD0003023C6F208031A6822F0704241F2CF1394
:101BE000C0F2A1539A4205D14EF62C73C6F20103FE
:101BF0001B6828E040F61C03C6F208031A6844F28A
:101C00004133C4F654439A421ED140F64003C6F213
:101C100008031A6822F07F4240F20033C0F2010349
:101C20009A4211D9B2F5003F05D241F22C63C6F2B7
:101C300008031B6807E0B2F5403F05D241F6AC63EC
:101C4000C6F208031B6823B900BE47F64003C0F282
:101C50007D1348F23832C2F20002136048F230328B
:101C6000C2F20002B3FBF5F5156048F23432C2F25D
:101C70000002B3FBF4F4146048F22832C2F200020E
:101C8000B3FBF0F0106048F22C32C2F20002B3FB5A
:101C9000F1F1116048F23C32C2F20002136004B06C
:101CA00030BC704770B54FF0FF0C4CF4E06C1CEA90
:101CB00011541DBF1CEA135594EA0C0F95EA0C0F42
:101CC00000F0DEF82C4481EA030621EA4C5123EAB5
:101CD0004C5350EA013518BF52EA033541F48011E4
:101CE00043F4801338D0A0FB02CE4FF00005E1FB97
:101CF00002E506F00042E0FB03E54FF00006E1FBE1
:101D000003569CF0000F18BF4EF0010EA4F1FF0423
:101D1000B6F5007F64F5407404D25FEA4E0E6D4163
:101D200046EB060642EAC62141EA55514FEAC52074
:101D300040EA5E504FEACE2EB4F1FD0C88BFBCF5F0
:101D4000E06F1ED8BEF1004F08BF5FEA500E50F1A1
:101D5000000041EB045170BD06F0004646EA010167
:101D600040EA020081EA0301B4EB5C04C2BFD4EB99
:101D70000C0541EA045170BD41F480114FF0000E92
:101D8000013C00F3AB8014F1360FDEBF002001F000
:101D9000004170BDC4F10004203C35DA0C341BDC7A
:101DA00004F11404C4F1200500FA05F320FA04F04C
:101DB00001FA05F240EA020001F0004221F0004180
:101DC00010EBD37021FA04F642EB06015EEA430EF3
:101DD00008BF20EAD37070BDC4F10C04C4F1200523
:101DE00000FA04F320FA05F001FA04F240EA0200D6
:101DF00001F0004110EBD37041F100015EEA430EA7
:101E000008BF20EAD37070BDC4F1200500FA05F2C6
:101E10004EEA020E20FA04F301FA05F243EA020345
:101E200021FA04F001F0004121FA04F220EA020054
:101E300000EBD3705EEA430E08BF20EAD37070BD9A
:101E400094F0000F0FD101F00046400041EB01017A
:101E500011F4801F08BF013CF7D041EA060195F05C
:101E6000000F18BF704703F00046520043EB030316
:101E700013F4801F08BF013DF7D043EA0603704703
:101E800094EA0C0F0CEA135518BF95EA0C0F0CD00E
:101E900050EA410618BF52EA4306D1D181EA030154
:101EA00001F000414FF0000070BD50EA410606BF4E
:101EB0001046194652EA430619D094EA0C0F02D193
:101EC00050EA013613D195EA0C0F05D152EA0336D8
:101ED0001CBF104619460AD181EA030101F00041F6
:101EE00041F0FE4141F470014FF0000070BD41F03F
:101EF000FE4141F4780170BD70B54FF0FF0C4CF419
:101F0000E06C1CEA11541DBF1CEA135594EA0C0F37
:101F100095EA0C0F00F0A7F8A4EB050481EA030E84
:101F200052EA03354FEA013100F088804FEA03336B
:101F30004FF0805545EA131343EA12634FEA022239
:101F400045EA111545EA10654FEA00260EF00041FA
:101F50009D4208BF964244F1FD0404F5407402D24C
:101F60005B084FEA3202B61A65EB03055B084FEADD
:101F700032024FF480104FF4002CB6EB020E75EBDA
:101F8000030E22BFB61A754640EA0C005B084FEA02
:101F90003202B6EB020E75EB030E22BFB61A75467F
:101FA00040EA5C005B084FEA3202B6EB020E75EBCA
:101FB000030E22BFB61A754640EA9C005B084FEA42
:101FC0003202B6EB020E75EB030E22BFB61A75464F
:101FD00040EADC0055EA060E18D04FEA051545EA3E
:101FE00016754FEA06164FEAC30343EA52734FEAE7
:101FF000C2025FEA1C1CC0D111F4801F0BD141EA60
:1020000000014FF000004FF0004CB6E711F4801FC4
:1020100004BF01430020B4F1FD0C88BFBCF5E06FA4
:102020003FF6AFAEB5EB030C04BFB6EB020C5FEAB4
:10203000500C50F1000041EB045170BD0EF0004E09
:102040004EEA113114EB5C04C2BFD4EB0C0541EA3B
:10205000045170BD41F480114FF0000E013C90E638
:1020600045EA060E8DE60CEA135594EA0C0F08BFFC
:1020700095EA0C0F3FF43BAF94EA0C0F0AD150EAFB
:1020800001347FF434AF95EA0C0F7FF425AF10468E
:1020900019462CE795EA0C0F06D152EA03353FF4B6
:1020A000FDAE1046194622E750EA410618BF52EA33
:1020B00043067FF4C5AE50EA41047FF40DAF52EA07
:1020C00043057FF4EBAE12E770B548F2103648F2E4
:1020D0001035C2F20006C2F20005761BB61006D01B
:1020E000002455F8243001349847A642F9D848F224
:1020F000103548F21436C2F20005C2F20006761B13
:1021000006F0FAF8B61006D0002455F82430013451
:102110009847A642F9D870BD032A2DE9F0070BD8DD
:102120003AB1002311F803C000F803C00133934211
:10213000F8D1BDE8F007704782180C46034603E06B
:1021400014F8011C03F8011C03F003061946A44609
:1021500001330134002EF3D11CF00304634608BFA1
:10216000C1EB020C68D06542C4F1040A0CEB050710
:1021700033464FEACA0A5CF805604FEAC408551AAC
:1021800008E057F8044F264604FA0AF449EA040422
:10219000CC5004335C18032D26FA08F9A5F1040588
:1021A0000CEB0306EDDC002302E0F15CE1540133AB
:1021B00019199142F9D3BCE753F8404C41F8404C0F
:1021C00053F83C4C41F83C4C53F8384C41F8384CEF
:1021D00053F8344C41F8344C53F8304C41F8304CFF
:1021E00053F82C4C41F82C4C53F8284C41F8284C0F
:1021F00053F8244C41F8244C53F8204C41F8204C1F
:1022000053F81C4C41F81C4C53F8184C41F8184C2E
:1022100053F8144C41F8144C53F8104C41F8104C3E
:1022200053F80C4C41F80C4C53F8084C41F8084C4E
:1022300053F8044C41F8044C1C460D4640334031E1
:10224000BCF13F0FACF1400CB6DC21462B46541BD1
:102250000FE051F8105C43F8105C51F80C5C43F847
:102260000C5C51F8085C43F8085C51F8045C43F8D6
:10227000045C0F2C0D469C4601F1100103F1100384
:10228000A4F11004E5DCCCEB0201002303E0EC58E0
:102290004CF8034004335E19032903EB0C04A1F14D
:1022A0000401F4DC7FE700BF032AC9B230B407D8C9
:1022B00022B10023C15401339342FBD130BC70479B
:1022C00000EB020C034601E003F8011C03F00304D9
:1022D0001A460133002CF7D14FF00133C2EB0C0446
:1022E00003FB01F31FE042F8403C42F83C3C42F85B
:1022F000383C42F8343C42F8303C42F82C3C42F83E
:10230000283C42F8243C42F8203C42F81C3C42F86D
:10231000183C42F8143C42F8103C42F80C3C42F89D
:10232000083C42F8043C154640323F2CA4F14004DE
:10233000D9DC2A46C5EB0C0407E042F8103C42F811
:102340000C3C42F8083C42F8043C154610320F2C75
:10235000A4F11004F1DC2A46C5EB0C0501E042F8BB
:10236000043C14460432032DA5F10405F7DC01E01A
:1023700004F8011B6445FBD3A0E700BF0FB448F28B
:102380004033C2F2000310B51C6882B024B1A369C7
:1023900013B9204602F0C4FE204605AC049A234639
:1023A0008168019400F05AF802B0BDE8104004B012
:1023B000704700BF0EB410B5044683B018B18369EE
:1023C0000BB902F0ADFE204606AC059A23468168A3
:1023D000019400F043F803B0BDE8104003B070472B
:1023E00020F0030110F00300C0F1000051F8043B9D
:1023F00000F1040C4FEACC0C6FF000021CBF22FA73
:102400000CF213434FF0010C4CEA0C2C4CEA0C4C30
:10241000A3EB0C0222EA030212EACC1204BF51F829
:10242000043B0430F4D013F0FF0F1FBF013013F44E
:102430007F4F013013F47F0F18BF0130704700BF8A
:10244000936810B5144613B95360184610BD02F0D6
:10245000CBFF00236360A36010BD00BF2DE9F04FE8
:10246000ADF5AE6D83B00E4615469A46814603F033
:10247000ABF900681D90B9F1000F04D0D9F81830FD
:10248000002B00F05A8148F22C13C2F200039E4246
:1024900008BFD9F8046010D048F24C13C2F2000310
:1024A0009E4208BFD9F8086007D048F26C13C2F208
:1024B00000039E4208BFD9F80C60B6F80CC01FFAA2
:1024C0008CF313F4005F09D14CF4005C726EA6F833
:1024D0000CC01FFA8CF322F40052726613F0080F3E
:1024E00001F001833269002A01F0FD8203F01A0332
:1024F0000A2B00F0E080002212921A9200231C9214
:102500000DF59C641192043419920DF5A4621B938D
:1025100004320DF590632832033318920793002399
:10252000CDF84C45CDF85035CDF854352B781A1EE2
:1025300018BF0122252B0CBF002202F0010232B38A
:102540002F4617F8013F1A1E18BF0122252B0CBF7A
:10255000002202F00102002AF3D1B7EB050808BF00
:102560003D4614D0C4F80480DDF85035DDF854251C
:1025700001332560072B4244CDF85035CDF8542562
:1025800078DC083411983D46404411903B78002B8C
:102590007CD06B1C4FF0FF372B204FF0200C00211C
:1025A0004FF000020F918DF87725CDF82CA06A78B6
:1025B0000A915D1CA2F12003582B00F28682DFE80D
:1025C00013F0980284028402A4028402840284022A
:1025D000840284028402AD02BA028402C102CA02E9
:1025E0008402E702F002F002F002F002F002F002D0
:1025F000F002F002F0028402840284028402840267
:102600008402840284028402840204032603840276
:10261000260384028402840284026A038402840200
:1026200081048402840284028402840214048402E9
:1026300084022F04840284028402840284028402BD
:1026400084028402840284024F0465042603260364
:1026500026037303650484028402790384028503DC
:102660009603AD030A048402CC038402F4038402BB
:102670008402C0000DF5A862484631460C32FFF7CF
:10268000DFFE58B90DF59C6404347BE7DDF8543562
:10269000002B41F092810023CDF85035B38913F01F
:1026A000400F02D04FF0FF30119011985FB00DF540
:1026B000806DBDE8F08FB6F90E30002BFFF61BAF32
:1026C000376A2CF0020CD6F828E00DF58E64ADF8D0
:1026D00088C40C34B6F80EC02A46534648462146F4
:1026E0001FADCDF89C740027CDF88C54CDF87C54E8
:1026F0004FF48065CDF8A4E4ADF88AC4CDF89054C9
:10270000CDF89474CDF88454FFF7A8FE00281190FA
:1027100009DB2146484602F093FB1199B84218BFE5
:102720004FF0FF311191BDF8883413F0400FBCD049
:10273000B38943F04003B381B7E7484602F0F0FCA9
:10274000A1E60A9848F2FC0CC2F2000C169210F0B6
:10275000200FCDF864C000F06E830B99CB1D23F0E1
:10276000070303F108020B92D3E900AB5AEA0B020C
:102770000A9B0CBF00220122134240F06B86022309
:102780004FF000018DF87715002FA2BFDDF828C0AB
:102790002CF0800CCDF828C0002F18BF42F00102A9
:1027A000002A00F01E84012B00F0DE85022B00F0D1
:1027B000C185189913914FEADA084FEADB0C48EA11
:1027C0004B780AF00700E346C24630305AEA0B0263
:1027D00001F8010DEFD1DDF828C013911CF0010FB5
:1027E00040F08C861898401A10909DF87735109A12
:1027F0001797BA42B8BF3A460C9213B10C9A0132FD
:102800000C920A9B0A9813F0020315931EBFDDF881
:1028100030C00CF1020CCDF830C010F084001490E0
:102820004DD10F990C9A8F1A002F48DD102F48F2C6
:10283000B808D8BFC2F2000830DDC2F200080DF5BA
:10284000A86B43464FF0100AA8460BF10C0B1D462F
:1028500002E0103F102F1EDDC4F804A0DDF8503553
:10286000DDF85425013325601032072BCDF85425AF
:1028700004F10804CDF85035EBDD0DF59C644846B5
:1028800031465A460434FFF7DBFD00287FF406AFDB
:10289000103F102FE0DC2B46454698466760DDF878
:1028A0005035C4F800805A1CDDF85435CDF8502559
:1028B000DB19072ACDF8543500F38A8508349DF8D2
:1028C00077359BB101236360DDF850350DF5AE62BD
:1028D00007322260DDF854250133CDF8503501323E
:1028E000072BCDF8542500F3B6840834159B9BB113
:1028F00002236360DDF850350DF5AE6204322260CC
:10290000DDF854250133CDF850350232072BCDF8D0
:10291000542500F3AF840834DDF850C0BCF1800FBB
:1029200000F07683179B109A9F1A002F43DD102F1B
:10293000DFF88C8B2EDD43460DF5A86BA8464FF0D3
:10294000100A0BF10C0B1D4602E0103F102F1EDD8C
:10295000C4F804A0DDF85035DDF8542501332560B6
:102960001032072BCDF8542504F10804CDF850356A
:10297000EBDD0DF59C64484631465A460434FFF7BA
:102980005FFD00287FF48AAE103F102FE0DC2B465D
:10299000454698466760DDF85035DDF8542501332B
:1029A000C4F80080D219072BCDF85425CDF8503546
:1029B00000F342840834DDF828C01CF4807F40F026
:1029C0009D82109813996060DDF85035DDF854252C
:1029D000013321601218072BCDF85035D8BF04F110
:1029E0000803CDF8542500F39B830A9911F0040FD6
:1029F00055D00F9ADDF830C0CCEB0207002F4EDD2A
:102A0000102F48F2B808D8BFC2F200082EDDC2F27B
:102A100000080DF5A86A42461024A8460AF10C0ADF
:102A2000154602E0103F102F1DDD5C60DDF85025DB
:102A3000DDF8541501321D601031072ACDF8541508
:102A400003F10803CDF85025ECDD484631465246E7
:102A5000FFF7F6FC0DF59C63043300287FF41EAEEF
:102A6000103F102FE1DC2A46454690465F60DDF8B6
:102A70005025C3F80080DDF854350132CDF85025DB
:102A8000FB18072ACDF854350BDD0DF5A862484632
:102A900031460C32FFF7D4FC00287FF4FFADDDF89F
:102AA000543511980C9A0F998A42ACBF801840187F
:102AB0001190002B40F042830DF59C640023DDF85B
:102AC0002CA00434CDF8503530E51692002A3FF49E
:102AD000DDAD0DF5A46001234FF0000C04300C9324
:102AE0008DF824258DF877C5139010930021179148
:102AF00087E69DF87735002B40F02B850B992B4608
:102B00008DF877C52A780B9153E50B990A9B43F012
:102B100001030A932B462A780B914AE50B990B9AED
:102B200009680F91111D0F9B002BC0F280872A7836
:102B30002B460B913DE50B992B468DF877052A78AE
:102B40000B9136E50B990A9B43F004030A932B463D
:102B50002A780B912DE52B4613F8012B2A2A01F038
:102B6000CD80A2F13001092901F23780023500271A
:102B700015F8012C07EB87072B46013501EB4707BA
:102B8000A2F130010929F3D947EAE7771D4611E59B
:102B90000B992B460A9A42F080020A922A780B91EE
:102BA00007E5A2F130014FF000082B4608EB88083A
:102BB00013F8012B01EB4808A2F130011D46092949
:102BC000F3D9CDF83C801D46F4E40A9B169243F0FD
:102BD00010030A93DDF828C01CF0200F00F05D817F
:102BE0000B98C31D23F0070303F108010B91D3E9F0
:102BF00000ABBAF1000F7BF10002C0F29B845AEAED
:102C00000B034FF001030CBF00220122BCE50A9820
:102C1000169210F0080F00F0ED840B99CB1D23F0F5
:102C2000070303F108020B92D3F80480D3F800A045
:102C3000CDF86C80CDF848A05046414604F068F8C5
:102C40008346002800F09985504600220023414623
:102C500004F01CFE002840F00B859DF8773548F203
:102C6000F00148F2EC021698C2F20001C2F2000232
:102C70004FF0030C4728D8BF114613910A99CDF89D
:102C800030C021F08001CDF840C00A914FF0000C17
:102C9000CDF85CC0B1E50B990A9B43F008030A9399
:102CA0002B462A780B9184E40A9941F040010A915D
:102CB0000B993CE72A786C2A00F055850B990A9B02
:102CC0000B9143F010030A932B4672E40A9A12F018
:102CD000200F00F082840B98119A036810464FEA87
:102CE000E0710B9AC3E9000102F1040A1EE4169296
:102CF0000A9A12F0200300F0EF800B9BDA1D0023EC
:102D000022F0070202F1080CCDF82CC0D2E900AB8A
:102D10005AEA0B000CBF0022012231E50B98782102
:102D2000DDF828C01691036848F2FC008DF875158F
:102D300030218DF874154CF0020C0B991A1E18BF37
:102D40000122C2F200009A464FF0000B0431CDF888
:102D500028C0199002230B9112E50B9B16924FF09D
:102D60000002181D8DF877251B680B901393002B1C
:102D700000F0C686002F1398C0F28F8600213A46D5
:102D800003F0A6F80346002800F0F58613981B1AF6
:102D90001093BB4240F3BE851097002127EAE777E6
:102DA0009DF877350C97179127E5DDF828C0169226
:102DB0001CF0200F23D00B980123C21D22F0070224
:102DC00002F108010B91D2E900AB5AEA0B020CBFE9
:102DD00000220122D4E40A992B4641F020010A91F5
:102DE0000B992A780B91FFF7E4BB0A9B169243F0EC
:102DF00010030A93DDF828C01CF0200FDBD10A9BDA
:102E000013F0100F00F0D5830B980123021D0B92D5
:102E100001680A1E18BF01228A464FF0000BAFE47A
:102E20000A98169248F2D80210F0200FC2F200025F
:102E300019927FF492AC0A9B13F0100F40F01A83A2
:102E40000A9A12F0400F00F015830B9B03F1040C5B
:102E5000CDF82CC0B3F800A0D2464FF0000B85E4AB
:102E600016920DF5A4610B9A4FF0010C4FF0000083
:102E70000431CDF830C0136804328DF877050B9219
:102E80001391CDF840C08DF824352FE6DDF828C029
:102E900016921CF0200F7FF4A3AE0A9A12F0100FC6
:102EA00040F0F1820A9A12F0400F00F0EC820B9B86
:102EB00003F1040CCDF82CC0B3F900A0D2464FEAC0
:102EC000EA7B96E60A99169241F010010A910A9A55
:102ED00012F020037FF411AF0A9911F0100200F0F4
:102EE00054830B9A02F1040CCDF82CC011680A1E11
:102EF00018BF01228A464FF0000B41E4169A652A5A
:102F000040F328811298002200231B9904F0B4FC9E
:102F1000002800F0BE8101236360DDF8502548F2EF
:102F20001813C2F200032360DDF854350132CDF8E6
:102F300050250133072ACDF85435D8BF04F10803D2
:102F400000F39B83DDF870251A98824204DB0A990E
:102F500011F0010F3FF449AD01225A60DDF8502510
:102F6000DDF8541501321D980131072ACDF85415AA
:102F70001860CDF8502500F35F8508331A994F1E6D
:102F8000002F7FF732AD102FDFF8348540F3EA824F
:102F900042460DF5A86AA84610240AF10C0A154607
:102FA00003E0103F102F40F3DA825C60DDF850251B
:102FB000DDF8541501321D601031072ACDF8541583
:102FC00003F10803CDF85025EBDD48463146524663
:102FD000FFF736FA0DF59C6304330028E1D0FFF7C4
:102FE0005DBB7BB90A9911F0010F0BD00DF5A462FE
:102FF000302304328DF84B3527320123139210937E
:10300000FFF7F3BB1898002110911390FFF7EDBB69
:103010000F980C99471A002F7FF784AC102FDFF818
:10302000A0842EDD43460DF5A86BA8464FF0100A8C
:103030000BF10C0B1D4602E0103F102F1EDDC4F8F3
:1030400004A0DDF85035DDF8542501332560103239
:10305000072BCDF8542504F10804CDF85035EBDDED
:103060000DF59C64484631465A460434FFF7E8F9AA
:1030700000287FF413AB103F102FE0DC2B464546B1
:1030800098466760DDF85035C4F800805A1CDDF8BA
:103090005435CDF85025DB19072ACDF8543500F307
:1030A0003A8208343EE413996360DDF850252160CC
:1030B000DDF854150132CDF85025CB18072ACDF88C
:1030C000543500F3498508341D9A0123DDF87075E5
:1030D0006360DDF850352260DDF854250133CDF80A
:1030E00050350132072BCDF85425D8BF04F1080321
:1030F00000F323851398DDF87025C7191A981F600F
:10310000811A5960DDF854158A1ADDF85015121825
:10311000CDF854250131CDF85015072940F33282FE
:103120000DF5A862484631460C32FFF789F90028B0
:103130007FF4B4AA0DF59C63043356E40DF5A86240
:10314000484631460C32FFF77BF900283FF4B4AC17
:10315000FFF7A4BA1A9901294CDD01236360DDF859
:103160005035DDF85425013313980132072BCDF883
:1031700054252060CDF8503500F3B2810834012386
:103180006360DDF85035DDF8542501331D990132B7
:10319000072BCDF854252160CDF8503500F39281EE
:1031A00008341298002200231B9904F065FB0028C4
:1031B00040F01D811A9B13985A1E6260DDF850354D
:1031C000411C2160DDF854150133CDF850358A18C3
:1031D000072BCDF8542521DC08341C9B0DF5AC627F
:1031E0001C9822606360DDF85035DDF8542501330A
:1031F000FFF7F0BB0A9A12F0010FAED1139A012328
:103200006360DDF850352260DDF854250133CDF8D8
:1032100050350132072BCDF85425DDDD0DF5A862C0
:10322000484631460C32FFF70BF900287FF436AAE6
:103230000DF59C640434D0E70DF5A862484631468C
:103240000C32FFF7FDF800287FF428AA0DF59C64E6
:103250000434FFF7B0BB0DF5A862484631460C3286
:10326000FFF7EEF800287FF419AA0DF59C640434EA
:10327000FFF73CBB0DF5A862484631460C32FFF71C
:10328000DFF800287FF40AAA0DF59C640434FFF7E8
:1032900043BBDDF87035002B40F3FD811A998B425A
:1032A000FFF601AF139A6160DDF850352260DDF85A
:1032B00054250133CDF850355218072BCDF854253D
:1032C000D8BF04F1080300F32984DDF870451A988B
:1032D000241A002C40F3B381102CDFF8E48140F372
:1032E0009D8142460DF5A86AA84610270AF10C0AEE
:1032F000154603E0103C102C40F38D815F60DDF833
:103300005025DDF8541501321D601031072ACDF823
:10331000541503F10803CDF85025EBDD484631463E
:103320005246FFF78DF80DF59C6304330028E1D079
:10333000FFF7B4B9189A1998134613920AF00F02BE
:103340004FEA1A1141EA0B714FEA1B1C825C8A4654
:10335000E3465AEA0B0C03F8012DEFD118981393AA
:10336000C01A1090FFF741BA09220023524573EBAF
:103370000B00DDF860801FD223464446B8461F4646
:10338000504659460A22002304F0D0FA0023504642
:10339000594602F1300C0A2204F801CD04F0C6FAB5
:1033A0000922002382468B46524573EB0B03E7D379
:1033B0003B464746A0461C4608F1FF300AF1300A5A
:1033C000139008F801AC1899091A1091FFF70DBA7B
:1033D0000DF5A862484631460C32FFF731F8002857
:1033E0007FF45CA90DF59C640434FFF768BA1A9960
:1033F0004F1E002F7FF7F1AE102FDFF8C4804EDD97
:1034000043460DF5A86BA8464FF0100A0BF10C0BC4
:103410001D4602E0103F102F3EDDC4F804A0DDF889
:103420005035DDF85425013325601032072BCDF8D7
:10343000542504F10804CDF85035EBDD0DF59C64FE
:10344000484631465A460434FEF7FAFF0028E1D0D8
:10345000FFF724B916983021DDF828C00122022395
:103460008DF874154CF0020C8DF87505CDF828C058
:10347000FFF786B90B98011D03680B919A464FF030
:10348000000BFFF773B90B98011D03680B919A4667
:103490004FEAEA7BFFF7ADBB2B464546984667608F
:1034A000DDF85035DDF854250133C4F80080D21919
:1034B000072BCDF85425CDF850357FF78DAEADE60E
:1034C000C88000200DF5A862484631460C32FEF750
:1034D000B7FF00287FF4E2A80DF59C64043460E691
:1034E0000DF5A862484631460C32FEF7A9FF0028C8
:1034F0007FF4D4A80DF59C64043440E6302800F035
:10350000EC821398302300F8013D18991390091AA2
:103510001091FFF76AB90DF5A862484631460C32A2
:10352000FEF78EFF00287FF4B9A80DF59C640434E3
:10353000FFF7F8B9DAF1000A6BEB4B0B2D235AEACF
:103540000B0C8DF877350CBF002201220123FFF709
:103550001BB90B992B462A780B91FFF72AB82A46FC
:10356000454690465F60DDF85025DDF85415013280
:10357000C3F80080C919072ACDF85415CDF8502595
:103580003FF7CEAD0833FFF730BA0A9810F040038A
:1035900000F0ED810B9913460A1D0B92B1F800A0C3
:1035A000BAF1000218BF0122D2464FF0000BFFF71C
:1035B000E7B80A9B13F0400F00F0CC810B98012371
:1035C000011D0B91B0F800A0BAF1000218BF012252
:1035D000D2464FF0000BFFF7D3B80A9B13F0100F41
:1035E00000F0A4810B98119900F1040A0368196096
:1035F000FEF79CBF0B98C31D23F0070303F10801DE
:103600000B91D3F80480D3F800A0CDF86C80CDF8EE
:1036100048A0FFF711BB2A46454690465C60DDF89E
:103620005025DDF854150132C3F800800919072A26
:10363000CDF85415CDF8502500F3EA8208330A99E5
:1036400011F0010F3FF4D1A901225A60DDF8502595
:10365000DDF8541501321D980131072ACDF85415B3
:103660001860CDF850253FF75BAD0833FFF7BDB9C3
:103670002D238DF87735FFF7F2BA0DF5A86248468D
:1036800031460C32FEF7DCFE00287FF407A80DF56A
:103690009C63043356E401236360DDF8502548F24F
:1036A0001813C2F200032360DDF854350132CDF85F
:1036B00050250133072ACDF85435D8BF04F108034B
:1036C00000F38781DDF870253AB91A9A2AB9DDF836
:1036D00028C01CF0010F3FF488A901225A60DDF8D0
:1036E0005025DDF8541501321D980131072ACDF817
:1036F00054151860CDF8502500F379810833DDF8B2
:1037000070757F42002F40F3B381102FDFF8508691
:1037100040F3D28142460DF5A86AA84610240AF16A
:103720000C0A154603E0103F102F40F3C2815C6085
:10373000DDF85025DDF8541501321D601031072ADF
:10374000CDF8541503F10803CDF85025EBDD4846BC
:1037500031465246FEF774FE0DF59C630433002893
:10376000E1D0FEF79BBF0B996B1C0A9A42F0200236
:103770000A926A780B91FEF71CBF5046414603F04F
:10378000D9FA002840F0FF80B7F1FF3F00F05182E6
:103790001698672814BF00230123472808BF43F069
:1037A000010313B1002F08BF01270DF5AB6043469D
:1037B00052460A99C0E90023DDF85C3541F4807176
:1037C0000A91002BC0F26482002117911698662896
:1037D00014BF00230123462808BF43F001031093C0
:1037E000002B00F0D181BC460323CDF830A00DF5AD
:1037F000AE61CDF834804846009302910DF5AC617E
:10380000DDE90C230C31CDF804C003910DF5AD6159
:10381000CDF824C0049100F0C7FB169ADDF824C04F
:10382000B2F1670318BF0123472A0CBF002303F03E
:103830000103139033B90A9B13F0010F08BFDDF8A1
:1038400068B516D01398109900EB0C0B31B10378C2
:10385000302B00F0DA80DDF870359B4450460022B2
:103860000023414604F008F8002800F0C281CDF89A
:1038700068B5169A1398672A14BF00230123472AB4
:1038800008BF43F00103C0EB0B001A90002B00F0BF
:103890008A81DDF8701511F1030F109102DB8F4260
:1038A00080F28C81169A023A16921099169A4B1E43
:1038B000CDF87035002B8DF86025C0F234822B22B4
:1038C0008DF86125092B00F3B6810DF5AC6230331C
:1038D00004328DF8633530238DF862350DF5AC6315
:1038E0001A981A99D31A18181C930129109040F3AA
:1038F000108210980130109020EAE0710C91179816
:10390000002800F06E812D2300218DF87735179166
:10391000FEF774BF109A4FF0000C9DF8773522EA3D
:10392000E272CDF85CC00C92FEF767BF0A9A12F003
:10393000400F17BF0B980B9A119900F1040A11BFA1
:10394000036802F1040A1368119814BF1980186003
:10395000FEF7ECBD0B9A131D0B93116801230A1E91
:1039600018BF01228A464FF0000BFEF709BF0B98E3
:10397000021D0B9201680A1E18BF01228A464FF0F1
:10398000000BFEF7FDBE48F2F80248F2F403169968
:10399000C2F20003C2F2000203204729D8BF1A4630
:1039A00013920A9A0C9022F08002CDF85CB00A9231
:1039B0009DF877351090FEF720BF0DF5A8624846B8
:1039C00031460C32FEF73CFD00287EF467AEFEF770
:1039D00062BE0DF5A862484631460C32FEF730FD56
:1039E00000287EF45BAE0DF59C6304336AE60DF5AA
:1039F000A862484631460C32FEF722FD00287EF4CC
:103A00004DAE0DF59C63043379E650460022002349
:103A10004146CDF824C003F02FFFDDF824C0002874
:103A20007FF419AFCCF10103CDF8703515E70F9A8B
:103A300052420F92FFF787B80DF5A862484631460B
:103A40000C32FEF7FDFC00287EF428AE0DF59C63D9
:103A50000433FFF793BA0DF5A862484631460C329D
:103A6000FEF7EEFC00287EF419AE0DF59C630433DE
:103A70001A9913985960DDF85025DDF8541518602F
:103A800001321A98CDF850250918072ACDF8541597
:103A90003FF746AB0833FEF7A8BF00211791FEF7AA
:103AA0009FFC9DF8773520EAE07210900C92FEF7AB
:103AB000A4BE2A46454690465F60DDF85025DDF8F5
:103AC00054150132C3F80080C919072ACDF85415DE
:103AD000CDF85025BFDC0833CAE7189A1399511A5C
:103AE0001091FEF782BE4846314600F049F90028A1
:103AF0007EF4D8ADB6F80CC01FFA8CF3FEF7F6BC16
:103B0000062F28BF062748F21011C2F2000127EA4B
:103B1000E772109713910C92FEF7E8BF0DF5A862BB
:103B2000484631460C32FEF78BFC00287EF4B6ADD9
:103B30000DF59C630433FFF7C8BB0DF5A86248463A
:103B400031460C32FEF77CFC00287EF4A7AD0DF563
:103B50009C630433FFF7CEBA0DF5A86248463146A0
:103B60000C32FEF76DFC00287EF498AD0DF59C64D8
:103B70000434FFF7A9BA109727EAE77717900C9754
:103B80009DF87735FEF739BE1699652914BF0023D5
:103B90000123452908BF43F00103002B46D007F15C
:103BA000010C022321E6169B652B76DD169A662A08
:103BB0001CBFDDF87035109300F083801A9B1098BD
:103BC00083426EDC0A9911F0010F40F08E8020EAEA
:103BD000E07267230C92169391E600271D46FEF7CC
:103BE000E9BC10999DF8773521EAE1710C91FEF757
:103BF00004BEDDF868359B4598BF9B467FF639AE1D
:103C0000302203F8012B9B45CDF86835F9D830E612
:103C10000DF5A862484631460C32FEF711FC00282B
:103C20007EF43CAD0DF59C63043308E5BC460233DD
:103C3000DBE50737B9E546F2676C0DF590610331B6
:103C4000C6F2666C8CFB0320DA17C2EBA00202EB13
:103C50008200A3EB400013463030092A01F8010D21
:103C6000F0DC3033481EDAB201F8012C079B8342A6
:103C70006AD90DF5AC63033301E011F8012B03F8A9
:103C8000012C1A46DDF81CC001338C45F5D825E619
:103C90002D2208F10048179298E5DDF87005109084
:103CA00003E6109B1A99002BDABF1098C0F10203AB
:103CB00001235B186722109323EAE37316920C9397
:103CC0001DE6DDF870050028109031DD1FB90A9956
:103CD00011F0010F0ED0109866211691431CDB19CC
:103CE000109323EAE3720C9209E61098672116916B
:103CF0000130109020EAE0720C9200E60B991A78DD
:103D00000F6804310B91002FB8BF4FF0FF37FEF75B
:103D100050BC0A9A12F0010F04BF20EAE0730C9322
:103D20003FF4EDADE5E52D225B428DF86125C9E557
:103D300077B90A9B13F0010F0AD14FF0010CCDF8AF
:103D400030C0CDF840C0DAE50DF5AC620232C5E511
:103D50000237662127EAE772109716910C92CEE59A
:103D6000C880002010B448F24034C2F200048C46EF
:103D7000134601466246206810BCFEF76FBB00BFC9
:103D800070B548F24035C2F2000506460C46286878
:103D900010B18369002B36D048F22C13C2F2000315
:103DA0009C4238D048F24C13C2F200039C4241D0EE
:103DB00048F26C13C2F200039C4204BF2B68DC681B
:103DC000A289114693B213F0080F184618BF226952
:103DD00033D01AB313F0010107D063690021A16049
:103DE0005B42A36142B1002070BD13F0020F08BF17
:103DF0006169A160002AF6D1A38913F0800FF2D087
:103E00004FF0FF3070BD01F08BF948F22C13C2F275
:103E100000039C42C6D12B685C68D1E703F4207193
:103E2000B1F5007FD6D03046214601F001FDA389CF
:103E30002269CFE72B689C68C2E713F0100FDFD030
:103E400013F0040F08BF226917D0616B51B104F160
:103E50004403994203D0304601F0E6F9A28990B2BA
:103E60000023636322694FF6DB71C0F20001002377
:103E700000EA01016360A181226041F00803A3818F
:103E80009BB2A6E7000000002DE9F84F03690E6918
:103E9000824689469E4200F38380F21C01F114059C
:103EA00000F11404013E92008B18121803F104086B
:103EB00059685068013103F093F90746002839D05A
:103EC00000239C461A46E958E0581FFA81FE4FEA43
:103ED000114B81B20EFB07CE51180BFB07FC0CEB0C
:103EE0001E4C1FFA8EFECEEB01011FFA8CF24FEA38
:103EF0001C4CC2EB10421FFA81FE02EB21424EEA3B
:103F00000241E1500433121459198845DBD2321DA5
:103F10000AEB8203596869B99C4209D25AF82220F7
:103F200012B105E01A681AB9043B013E9C42F9D36C
:103F3000CAF810604946504602F0B6F800282CDB5B
:103F4000002301379C46EA58E05891B2120C1FFA40
:103F500080F9C2EB1042C1EB0901614402EB21423E
:103F600089B241EA0241E15004334FEA224C5A1926
:103F70009045E8D2321D0AEB8203596869B99C4228
:103F800009D25AF8222012B105E01A681AB9043B86
:103F9000013E9C42F9D3CAF810603846BDE8F88F5C
:103FA0000020BDE8F88F00BF2DE9F04F466AA1B0B0
:103FB0000446904699462D9D002E00F023843268D9
:103FC00082B1616A4FF0010C766820460B6856603A
:103FD0004A6819460CFA02F29A6002F09FF9636A85
:103FE00000221A60B9F1000638DB00232B6040F292
:103FF0000003C7F6F0731A4606EA0303934217D08C
:104000000022002340464946CDE9068903F034FCEE
:10401000002829D02C9801232E990360002900F054
:10402000D080794B581E2E9A136021B0BDE8F08FD6
:104030002C9842F20F730360B8F1000F00F09580E6
:1040400048F22810C2F200002E990029EDD0C27863
:10405000C31C002AE7D000F10803E4E726F000467D
:104060000123B1462B60C2E72046DDE906231EA9E5
:1040700000911FA9019102F0A3F9C6F30A558346E6
:10408000002D7ED0DDE90601A5F57E751F9F073D59
:1040900021F07F4323F4700343F07E51002341F469
:1040A000E001199340F200030022C3F6F87303F015
:1040B000D9F94FA3D3E90023FDF7F4FD4EA3D3E9CB
:1040C000002303F0D1F9CDE90801284603F018FBDD
:1040D0004BA3D3E90023FDF7E5FD02460B46DDE9DE
:1040E000080103F0C1F9CDE9080103F0F7FB002254
:1040F00000230646DDE9080103F0C8FB40B1304665
:1041000003F0FEFADDE9082303F0B6FB00B9013E37
:10411000162E5BD901231893013FB7EB050A42BF66
:10412000CAF1000ACDF83CA04FF0000A01D40022E9
:104130000F92002EC0F27183B2440023179615939C
:104140002A9B092B62D8052B40F377862A980027F3
:1041500004382A902A998B1E032B00F2DD83DFE8B6
:1041600013F0A503D803D503C40326F07F4626F435
:104170007006002E7FF464AF48F21C10C2F20000FB
:1041800062E71F9F1E9BFB1803F586639D1C202D75
:10419000DCBFC5F1200008FA00F008DD1E3BC5F1C8
:1041A000400216FA02F228FA03F342EA030003F08F
:1041B00097FAA5F586650122033D1992A1F1F871E0
:1041C00070E748F21810C2F200002EE748F2D01350
:1041D000DDE90601C2F2000303EBC603D3E90023C5
:1041E00003F054FB002840F02083189094E700BFB0
:1041F00061436F63A787D23FB3C8608B288AC63FED
:10420000FB799F501344D33F1981002000234FF0C6
:10421000FF301F4601212A931190169108902B938D
:10422000656A00236B602046696802F093F8636A50
:1042300028601B681093002F00F05B81002E40F374
:104240002A8448F2D01306F00F02C2F2000335119F
:1042500003EBC20315F0100FD3E90001CDE90C0107
:1042600000F0E78248F2A823DDE90601C2F200036C
:1042700005F00F054FF00308D3E90823FDF73CFED6
:10428000CDE91201BDB148F2A827DDE90C23C2F245
:10429000000715F0010F1046194607D0D7E9002393
:1042A00008F10108FDF7FEFC02460B4608376D10C9
:1042B000EFD1CDE90C23DDE90C23DDE91201FDF797
:1042C0001BFECDE90C011899002900F0DE8040F2B8
:1042D0000003DDE90C010022C3F6F0734FF0000586
:1042E00003F0D4FA08B14FF00105089A002AD4BFB0
:1042F000002505F00105002D00F0C780119B002B63
:1043000040F3F58040F200030022C4F22403DDE90B
:104310000C01FDF7C7FCCDE90C0108F10100711E8D
:10432000129103F0EDF902460B46DDE90C01FDF7B1
:10433000B9FC40F200030022C4F21C0303F094F81D
:10434000DDF844C08046A1F15079169B002B00F0A7
:10435000AD8348F2D01340F20001C2F20003002006
:1043600003EBCC03C3F6E071CDF80CC053E9022394
:10437000FDF7C2FD42464B46109D03F073F88046A0
:104380008946DDE90C0103F0A9FA074603F0B8F904
:1043900002460B46DDE90C0103F064F807F1300337
:1043A000CDE90C01404605F8013B4946DDE90C2307
:1043B00003F08AFA002840F0138240F20001DDE9A0
:1043C0000C230020C3F6F07103F04CF802460B46B4
:1043D0004046494603F078FADDF80CC0002840F06A
:1043E000E783BCF1010F40F38280CDF868B001276C
:1043F000CDF870A01D966646DDE90CAB0C9410E07C
:1044000040F200010020C3F6F07103F02BF84246A1
:104410004B4603F03BFA002840F0C783B74280F2D6
:104420008B8440F20003404649460022C4F2240334
:104430000135FDF737FC40F200030022C4F22403EB
:104440008046894650465946FDF72CFC8B468246ED
:1044500003F044FA044603F053F9303402460B46A5
:104460005046594602F0FEFF109A4B46D45542463C
:10447000013782468B4603F009FA52465B46002814
:10448000BED0DDF868B00C9CAAE1404603F038F9D4
:10449000DDE90C23FDF706FC40F200030022C4F224
:1044A0001C0302F0E1FF089AA1F150758046A9466D
:1044B000002A40F0EC8240F20003DDE90C0100220A
:1044C000C4F2140302F0CEFF42462B46CDE90C01A4
:1044D00003F0FAF9002840F04A824246DDE90C0177
:1044E00005F1004303F0D2F9002840F0D581DDE961
:1044F00006891E9B6FEA03074FEAD7770E2ECCBFC3
:10450000002707F00107002F00F0B7802B9848F232
:10451000D013C2F20003089903EBC603C20F0029AF
:10452000CCBF002202F00102D3E90001CDE9040171
:10453000002A40F0A08102460B4640464946FDF75E
:10454000DBFC109D03F0CAF9824603F0D9F8DDE9DF
:104550000423FDF7A7FB02460B464046494602F0FE
:1045600081FF0AF1300305F8013B089A012A8046D1
:10457000894652D040F200030022C4F22403FDF722
:1045800091FB00220023CDE9060103F075F9002814
:1045900040F0EB8110984FF00108CDF82CB0A34605
:1045A000871C0F96DDF82090DDE906450AE0FDF74F
:1045B00079FB0022002304460D4603F05DF9002834
:1045C00040F0CE81DDE904232046294608F10108A8
:1045D000FDF792FC3E4603F081F9824603F090F825
:1045E000DDE90423FDF75EFB02460B462046294623
:1045F00002F038FF00220AF1300C07F801CC013735
:10460000C14540F20003C4F22403D0D135465C46D4
:104610000F9E8046DDF82CB0894642464B46404608
:10462000494602F021FF804689464246DDE9040101
:104630004B4603F02BF960B9DDE9040142464B46D5
:1046400003F01AF9002800F090811AF0010F00F031
:104650008C81109900E01D4615F8012C6B1E392A3B
:1046600040F067838B42F6D1109930230136312216
:104670000B70109B1A701296B2E0169A002A40F046
:10468000DF80159F0F9D0C92002DD4BF00230123C6
:10469000BAF1000FD4BF002303F001034BB1AA45C8
:1046A000B4BF53462B460F98C3EB0A0AED1AC01A43
:1046B0000F90159900291CDD169A002A00F0E98256
:1046C000002F12DD0C993A46204602F0A3F85A4614
:1046D0000C9020460C9901F0B5FF59460346204640
:1046E000039301F01BFE039B9B46159BDA1B40F0D6
:1046F00011830121204602F03FF806901798002808
:1047000005DD06992046179A02F084F806902A994A
:10471000012940F30A810027179B002B40F061829A
:104720000123534413F01F0340F02A811C230F9AE6
:104730009A44ED18D2180F920F9B002B05DD5946B5
:104740001A46204601F020FF8346BAF1000F05DD2E
:1047500006995246204601F017FF06901898002847
:1047600040F029822A9808990228D4BF0023012307
:104770000029CCBF002303F00103002B00F00C81C3
:10478000002940F08C8005220699089B204601F004
:10479000FDFF06905846069901F086FC00287EDD54
:1047A000109D01360027DDF830A0312305F8013BCC
:1047B0000699204601F0B2FDBAF1000F00F0D58055
:1047C0003B1E18BF012357450CBF002303F0010314
:1047D000002B40F0D0805146204601F09FFD1296FC
:1047E0002046594601F09AFD129A531C00222A7065
:1047F0002C982E990360002900F0D4812E9A1098ED
:10480000156012E4102001F089F8C66046608660E9
:10481000066006466062FFF7D2BB0F987142002225
:104820001591801B17920F908AE40021013E189188
:1048300072E4DDE906234FF00208CDE9122321E5F9
:104840002A98012840F36C82089A1598531E9842C2
:10485000C0F25882C71A089B002BA8BF0F9DC0F258
:1048600073820F9A204601219A44D2180F9201F0C8
:1048700083FF0C9008E7089B73B940F20003002205
:10488000C4F21403DDE90401FDF70CFA42464B467D
:1048900003F010F800286AD0002206920C922B9B9D
:1048A0000027DDF830A0DE43109D81E7002116913E
:1048B0002B98002840F39F812B9801461190089077
:1048C000656A002217296A6040F2AB8204235B000C
:1048D000013203F114008842F9D9089B6A600E2B5B
:1048E0008CBF002707F001079DE4012216922B9B45
:1048F000F3181193591C0029C8BF0891E0DC0E2958
:104900008CBF002707F00107089189E40123169363
:10491000CEE700221692EAE74FF0FF33002701208E
:104920001193169008932B977AE4B8F1000F7FF457
:10493000F2AE29F07F4323F47003002B7FF4EBAE3B
:1049400040F20003C7F6F07309EA0303002B3FF4BB
:10495000E2AE0F9A0AF1010A012701320F92DBE65B
:1049600035465C460F9EDDF82CB0129638E70020E5
:1049700006900C9014E73946204601F0CFFC2AE758
:10498000C3F12003042B40F354820F99043B9A4453
:10499000ED18C9180F91CFE61699002900F0318162
:1049A000002D05DD0C992A46204601F0EDFD0C9006
:1049B000002F40F0EA81DDF830A0109D012308F0BF
:1049C00001000C9F11900F951D460C9606995846B4
:1049D000FFF75AFA394630300B90584601F064FB25
:1049E000069952460646204601F052FDC3688046AD
:1049F000002B3DD04FF001094146204601F08EFCCE
:104A00002A9959EA010103D1119A002A00F0EB8199
:104A1000002EC0F29E812A9A324303D1119B002BB3
:104A200000F09781B9F1000F00F3CE810F990B9A36
:104A300001F8012B089B0F919D4200F0C28159465D
:104A40000A220023204601F0A1FE5745394683463D
:104A500014D00A2200232046013501F097FE51466A
:104A60000A2200230746204601F090FE8246ADE769
:104A70005846414601F018FB8146BDE720460A2210
:104A80000023013501F082FE074682469EE712961A
:104A9000DDF820C059E47542002D40F00181DDE9C8
:104AA00006014FF00208CDE90C010CE448F2D011E8
:104AB0004246C2F200014B4601EBCC01CDF80CC0DE
:104AC000109D51E90201FDF7EDF8CDE91A01DDE98C
:104AD0000C0102F003FF074602F012FE0B460246ED
:104AE000DDE90C0102F0BEFC07F13003CDE90C0159
:104AF00005F8013BDDF80CC0BCF1010F29D0D1460F
:104B0000DDE90C01B246109E1C9501276546A046C2
:104B100040F200030022C4F22403FDF7C3F8CDE9FC
:104B20000C0102F0DBFE044602F0EAFD30340246DE
:104B30000B46DDE90C0102F095FCF4550137AF425C
:104B4000E6D11C9D013F56464446CA46ED19CDE9C3
:104B50000C0140F200030022C3F6E073DDE91A0104
:104B600002F082FC02460B46DDE90C0102F0ACFECD
:104B7000F0B940F20001DDE91A230020C3F6E0712C
:104B800002F070FC02460B46DDE90C0102F07EFEED
:104B900000283FF4ACAC2B461D4613F8012D302AFB
:104BA000FAD01DE61098FFF740BADDF868B00C9C0B
:104BB000129E109950E55846069901F075FA0028A2
:104BC000BFF6D0AD594620460A22002301F0DEFD93
:104BD0001699013E8346002940F01981119A0892E6
:104BE000C0E50698036900EB8303186901F00AFA2F
:104BF000C0F1200395E50121119108912B91FFF758
:104C00000FBB109DB146169FAA46DDF81880089E7E
:104C100002E001F0BBFD834641465846FFF734F9F8
:104C200001350A220023594600F1300C0AF807C06A
:104C300001372046BE42ECDCDDF830A04E460027AE
:104C4000CDF82CC059460122204601F09DFC069962
:104C5000834601F029FA00280FDD109900E01D4677
:104C600015F8012C6B1E392A40F08C808B42F6D14E
:104C70001099312301360B709AE503D10B9810F08F
:104C8000010FEAD12B461D4613F8012D302AFAD028
:104C90008EE55946159A204601F0BCFD834628E56D
:104CA00005F00F0348F2D012C2F20002DDE906015E
:104CB00002EBC303D3E90023FCF7F4FF2D1108BF77
:104CC0004FF00208CDE90C013FF4FDAA48F2A827F5
:104CD000DDE90C234FF00208C2F2000715F0010FC6
:104CE0001046194607D0D7E9002308F10108FCF760
:104CF000D9FF02460B4608376D10EFD1CDE90C23E2
:104D0000FFF7E1BA1599179A5B1AC918D2181591CD
:104D10001792A0E55946204601F07CFD8346E8E461
:104D20001999002947D003F58663159F03330F9D1A
:104D300097E50132D2B29DE4DDF868B0DDF870A0ED
:104D40001D9E0C9CFFF7D3BB0F99002308980D1AEA
:104D500087E5B9F1000F0F9D0C9E0FDD594601222A
:104D6000204601F011FC0699834601F09DF90028C8
:104D700047DD0B99392931D001310B910B9A05F898
:104D8000012B15E501321A7012E50C9A2046516884
:104D900001F0E0FA0C9B03F10C011A690232920057
:104DA00005460C30FDF7B8F920462946012201F0EE
:104DB000EBFB824601E61F9B159F0F9DC3F1360357
:104DC0004FE50F9D0C9E3DE70B9B0F9D392B0C9ED5
:104DD00004D00B98431C05F8013BE9E4392305F89E
:104DE000013B10993CE70B9833460F9D39280C9EE8
:104DF000F4D0002B01DD01300B900B9905F8011B5D
:104E0000D6E4BBD10B9810F0010FB7D0B1E7002367
:104E10000C9920460A2201F0B9FC119B08930C90D2
:104E2000A0E408990E298CBF002707F00107FFF7BF
:104E3000FAB93FF481AC1C3379E40127FFF78AB952
:104E40000B692DE9F0410C468046002B71D010B162
:104E50008369002B78D048F22C13C2F200039C42E5
:104E600008BFD8F8044010D048F24C13C2F2000337
:104E70009C4208BFD8F8084007D048F26C13C2F231
:104E800000039C4208BFD8F80C40A3891AB212F064
:104E9000080F35D1626843F40063A381002A5EDD08
:104EA000E66A002E45D09BB213F4805218BF656DA0
:104EB00059D013F0040F4AD100234046216A2A46F4
:104EC000B047854238D1A1894FF2FF732269C0F201
:104ED000000301EA03030021616013F4805F616B4A
:104EE000A381226018BF656519B304F14403994298
:104EF00002D0404600F098F900206063BDE8F081E0
:104F00002669B6B125682660AD1B12F0030F0CBFF1
:104F100063690023A3600AE032462B46A76A404635
:104F2000216AB8470028C0EB0505064404DD002DC2
:104F3000F2DC0020BDE8F081A3894FF0FF3043F0A0
:104F40004003A381BDE8F08100F0EAF883E76268DE
:104F5000636BAD1A002BAFD0236CED1AACE7226C5B
:104F6000002A9DDCE5E701234046216AB047B0F105
:104F7000FF3F054602D0A389E66A9AE7D8F80030D9
:104F80001D2BD6D0A38943F04003A381BDE8F08157
:104F9000014628B148F24033C2F2000318684FE7D7
:104FA00048F2B00344F64161C2F20003C2F20001CC
:104FB000186800F0B3BB00BF704700BF704700BF68
:104FC000704700BF704700BF002070470020704747
:104FD00048F2403344F6CD71C2F20003C2F2000140
:104FE000186800F0C5BB00BF48F2403344F6C971F1
:104FF000C2F20003C2F20001186800F0B9BB00BFA2
:1050000047F22511C2F2000100F0B2BB48F2B00332
:10501000C2F200031868F3E710B5044600235C30C1
:10502000A1811946E281082223606360A360636660
:1050300023616361A361FDF737F946F6E55046F653
:10504000A95146F6815246F67953C2F20000C2F2E7
:105050000001C2F20002C2F200036062A162E262D9
:105060002363246210BD00BF70B568250E4605FBA2
:1050700001F505F10C0100F059FC044648B100F1BE
:105080000C03002146602A4618462160A360FDF704
:105090000BF9204670BD00BF48F2B003C2F2000316
:1050A00070B51D680646AB69002B2AD0D8356B68F1
:1050B000AC68013B03D520E06834013B1DD4B4F952
:1050C0000C20002AF8D100254FF0FF33656604F16B
:1050D0005C00E38129464FF001032560A38108228B
:1050E000A560656025616561A561FDF7DDF8E56492
:1050F0006563A563A564204670BD286828B1054690
:10510000D5E7284600F00CF8D0E730460421FFF739
:10511000ABFF28600028F2D10C2304463360EAE795
:1051200070B58669044606B170BD45F201030125DC
:10513000C2F20003C0F8D8608362C0F8DC60C0F837
:10514000E0608561FFF7A8FF60602046FFF7A4FFDD
:10515000A0602046FFF7A0FF324604212346E0600E
:105160006068FFF759FF2A46A06809212346FFF728
:1051700053FF2346E06812210222BDE870404BE74E
:10518000F8B548F23444C2F200040F46054600F078
:1051900035FFA3685E6826F0030606F57E630F33CD
:1051A000DF1B3F0B013F3F03B7F5805F07DB0021AB
:1051B000284601F0CDFDA368F318834204D02846A9
:1051C00000F01EFF0020F8BD7942284601F0C0FD26
:1051D000B0F1FF3F10D0A26848F65403C2F20003BA
:1051E000F61B46F00106284656601A68D71B1F605A
:1051F00000F006FF0120F8BD0021284601F0A8FDBF
:10520000A368C21A0F2ADADD48F63C0448F65401B6
:10521000C2F20004C2F2000142F001022468001B45
:1052200008605A60CBE700BF2DE9F04105460C4607
:10523000002900F0888000F0E1FEA4F1080248F2A5
:1052400034405668C2F2000026F00103D0F808C0CE
:10525000D1188C454F6827F0030700F0958016F0B1
:1052600001064F605FD00026CC19646814F0010F6E
:1052700006D1DB19002E7AD08C68C9688C60E16099
:1052800043F00101D3505160002E47D1B3F5007FA8
:105290005BD3590A04299EBF4FEA931C0CF1380CCA
:1052A0004FEACC0428D914299CBF01F15B0C4FEACA
:1052B000CC0421D954299EBF4FEA133C0CF16E0C4B
:1052C0004FEACC0418D9B1F5AA7F9EBF4FEAD33C70
:1052D0000CF1770C4FEACC040ED940F2545C6145D6
:1052E00095BF4FEA934C4FF47C740CF17C0C4FF05B
:1052F0007E0C98BF4FEACC040419A168A14203D1E7
:1053000064E089688C4204D0486820F0030083423E
:10531000F7D3CB68D3609160CA609A602846BDE835
:10532000F04100F06DBE54F8084C00F1080C121B5F
:105330001B199468644547D0D2F80CC0CCF80840DB
:10534000C4F80CC090E7BDE8F081DB084FF0010C19
:10535000466800EBC3019B100CFA03F3D1608C6824
:1053600046EA030343609460E2608A60D6E78C6893
:105370001C4FBC4281D1D35043F00103E260A260D4
:1053800053609460D460C9E7FB1816F0010F07D191
:1053900054F8081C521A5B18D4689168A160CC605C
:1053A00048F640018260C2F2000143F00100506003
:1053B0000A689342B2D348F650032846C2F200036B
:1053C0001968FFF7DDFEA9E701264DE701264468CD
:1053D0004FEAAC0C0B4606FA0CFC44EA0C044460A1
:1053E00098E700BF3C8400202DE9F04F936885B01A
:1053F00090460C460390002B64D088891FFA80FAEF
:105400001AF0080F00F0A0800B69002B00F09C80C0
:105410001AF0020BD8F800501CBF4FF0000A574694
:1054200036D11AF0010A1DBFDC46D9465F46564602
:1054300052D126B380B2A76810F4007F00F08F80AD
:10544000BE42BB4680F0A78020683746B3465A4626
:10545000514600F077FDA2682368B146D71BA760CC
:1054600037465B442360D8F80830C9EB0606CA44C7
:10547000DF1BC8F808702FB3A089002EDAD1D5F849
:1054800000A06E680835D4E7D5F800A06F6808352D
:10549000B7F5806F34BF3B464FF4806352460398A4
:1054A000002FF1D0A66A216AB04700288244C0EBE1
:1054B000070740F3EC80D8F80830181AC8F808003D
:1054C0000028E5D1002005B0BDE8F08FD5F80090A8
:1054D0004FF0000C6F680835002FF7D0BCF1000FBB
:1054E00000F0B5806369BB4534BFDA46BA46A668AA
:1054F000206822699E19904294BF00220122B24581
:10550000D4BF002202F00102002A40F0AE809A458A
:10551000C0F28280A66A4A46CDF804C00398216A88
:10552000B047DDF804C0061E40F3B180BBEB060BAC
:1055300000F08680D8F80830B144BF1B9E1BC8F825
:105540000860002EC8D1BDE703982146FEF718FC7D
:10555000002840F0D480A0891FFA80FA58E720681C
:10556000B9462369984294BF00230123B7422CBF58
:10557000002303F00103002B40F09D8063699E42ED
:10558000C0F08C80A76A52460398216AB847071E6C
:105590007DDDB94667E710F4906F08BF20683FF4DF
:1055A00056AF62692169236802EB42095B1A09EB75
:1055B000D97903F1010CB4444FEA6909E1454A463F
:1055C0003CBFE1464A4610F4806F00F083801146EC
:1055D0000398029300F0AAF9029B002800F099803A
:1055E0001A46216902930190FCF796FDA289029B5D
:1055F000DDF804C022F4906242F08002A281C3EB85
:1056000009020CEB03003746B346A260C4F810C091
:105610002060C4F814901AE7524649465646CDF821
:1056200004C000F08FFCA2682368BBEB060BCAEB3A
:105630000202DDF804C05344A26023607FF47AAF15
:1056400003982146FFF7FCFB08BBDC4672E748469F
:105650000A213A4600F03CFC00284BD000F1010B37
:105660004FF0010CC9EB0B0B3CE749463246CDF835
:1056700004C000F067FC2368214603989B1923604F
:10568000FFF7DEFBDDF804C000283FF44FAFA3892D
:105690004FF0FF3043F04003A38114E732465146F8
:1056A00000F050FCA26823683746921BB1469B1954
:1056B000A2602360D7E651463A4600F043FC2368D7
:1056C00003982146DB192360FFF7BAFB00283FF45B
:1056D000CAAEDCE70398029301F040F9029B8446CE
:1056E00000288CD121690398FFF79EFD03990C23B4
:1056F0000B60CCE707F1010B4FF0010CF2E60399C8
:105700000922A3894FF0FF3043F040030A60A381D0
:10571000D9E6039A0C231360B9E700BF2DE9F845D9
:1057200007468A46FFF748FC17F1D80608BFB0467F
:1057300018D04FF000087568B468013D0FD4B4F973
:105740000C304BB1B4F90E3021463846B3F1FF3F6F
:1057500002D0D04748EA00086834013DEFD53668EA
:10576000002EE8D1FFF72AFC4046BDE8F88500BFCF
:105770002DE9F04106468846FFF71EFCD83608BFE3
:10578000374615D000277568B468013D0DD4B4F9CB
:105790000C303BB1B4F90E302046B3F1FF3F01D0DD
:1057A000C04707436834013DF1D53668002EEAD181
:1057B000FFF704FC3846BDE8F08100BF48F28C13C7
:1057C000C2F20003186870470048704790810020BB
:1057D000004870479081002070B505460E4614467B
:1057E00072B148F2B4011046C2F2000101F00CFBA4
:1057F00058B948F2B4002C62C2F20000EE6170BDEC
:1058000048F2B400C2F2000070BD48F2E801204640
:10581000C2F2000101F0F8FA0028EAD0002070BDC1
:1058200048F240330A46C2F2000301461868D3E743
:105830008B89F0B50C469AB291B012F0020F054672
:1058400041D1B1F90E10002918DB01AA01F072FC58
:10585000002811DB029B03F47043B3F5005F14BF13
:1058600000270127B3F5004F40D0A3894FF480668D
:1058700043F40063A3810BE0A3899AB212F0800F76
:1058800043F400630CBF4FF4806640260027A381D9
:105890002846314600F04AF870B1A18945F201026C
:1058A000C2F20002206141F080016661AA62A1811A
:1058B00020607FB911B0F0BDA38913F4007FF9D146
:1058C00043F00203A38104F1470323612360012312
:1058D0006361EFE72846B4F90E1001F041FC00289F
:1058E000E8D0A38943F00103A381E3E746F681539F
:1058F000E26AC2F200039A42B7D1A2894FF48063F0
:105900001E46236542EA0303A381C1E748F2403300
:105910000146C2F200031868FFF786BC48F2403324
:105920000146C2F20003186800F000B82DE9F04FFC
:1059300001F10B04162C83B006462FD80023102447
:105940008C422CBF194643F00101002930D130466A
:1059500000F054FBB4F5FC7F2ED24FEAD40E48F28F
:105960003445C2F2000505EBCE02D368934200F045
:1059700006825A6803F10805D968304622F0030C04
:105980009A6863445C688A6044F00104D1605C609A
:1059900000F036FB284603B0BDE8F08F24F0070482
:1059A000E30F8C422CBF194643F001010029CED0F1
:1059B0000C2300253360EDE75FEA542E04BF4FEA65
:1059C000D40E4FEACE0040F0908048F23445C2F247
:1059D00000052818C368984206D10DE0002A80F21D
:1059E0006F81DB68984207D0596821F003010A1BD8
:1059F0000F2AF3DD0EF1FF3E0EF1010E48F234479F
:105A0000C2F2000707F108018B68994208BF7A6863
:105A100026D05A6822F0030CC4EB0C020F2A00F3C4
:105A20009481002AC960896080F29980BCF5007F6A
:105A300080F065814FEADC0C4FF0010A7A6807EBD1
:105A4000CC004FEAAC0C0AFA0CFCD860D0F8088005
:105A50004CEA02027A60C3F80880C8F80C30836010
:105A60004FF0010C4FEAAE030CFA03FC944500F230
:105A7000828012EA0C0F08D12EF0030E4FEA4C0C74
:105A80000EF1040E12EA0C0FF8D007EBCE09F24625
:105A9000C846D8F80C30984507D168E1002A80F252
:105AA0007881DB68984500F06281586820F0030037
:105AB000021B0F2AF2DD1D461F19D3F80CC044F05B
:105AC000010E55F8084F3046BA5042F00102C3F8B3
:105AD00004E0CCF80840C4F80CC08F60CF607A6056
