S02400006C6F636B4E45545F53465F4D53535F4D53535F434D335F305F6170702E7372656383
S315200000000000012099020020090300200B03002094
S315200000100D0300200F030020110300200000000024
S315200000200000000000000000000000001303002074
S3152000003015030020000000001703002019030020EC
S315200000401B0300201D0300201F0300202103002086
S315200000502303002025030020270300202903002056
S315200000602B0300202D0300202F0300203103002026
S31520000070E913002015140020D51D00203903002087
S315200000803B030020011E00203F03002041030020E7
S315200000904303002045030020470300204903002096
S315200000A04B030020000000000000000000000000BC
S315200000B00000000000000000000000004D030020AA
S315200000C04F03002031080020530300205503002051
S315200000D057030020590300205B0300205D03002006
S315200000E05F030020610300206303002065030020D6
S315200000F067030020690300206B0300206D030020A6
S315200001006F03002071030020730300207503002075
S3152000011077030020790300207B0300207D03002045
S315200001207F03002081030020830300208503002015
S3152000013087030020890300208B0300208D030020E5
S315200001408F030020910300209303002095030020B5
S3152000015097030020990300209B0300209D03002085
S315200001609F030020A1030020A3030020A503002055
S31520000170A7030020A9030020AB030020AD03002025
S31520000180AF030020B1030020B3030020B5030020F5
S31520000190B7030020B9030020BB030020BD030020C5
S315200001A0BF030020C1030020C3030020C503002095
S315200001B0C7030020C9030020CB030020CD03002065
S315200001C0CF030020D1030020D3030020D503002035
S315200001D0D7030020D9030020DB030020DD03002005
S315200001E0DF030020E1030020E3030020E5030020D5
S315200001F0E7030020E9030020EB030020ED030020A5
S31520000200EF030020F1030020F3030020F503002074
S31520000210F7030020F9030020FB030020FD03002044
S31520000220FF03002001040020030400200504002011
S3152000023007040020090400200B0400200D040020E0
S315200002400F040020110400201304002015040020B0
S3152000025017040020190400201B0400201D04002080
S315200002601F04002021040020230400202504002050
S3152000027027040020290400202B0400202D04002020
S315200002802F040020310400203304002035040020F0
S315200002903704002039040020684880476848002831
S315200002A00BD168486849694A884206D091421CBFEA
S315200002B050F8043B41F8043BF8D165486549664A45
S315200002C0884206D091421CBF50F8043B41F8043BBB
S315200002D0F8D162486249634A914218BF41F8040B3B
S315200002E0FAD100000000000000000000000000001D
S315200002F0DFF874010FF2030E00474FF000004FF0B5
S315200003000001DFF868F1FEE7FEE7FEE7FEE7FEE71D
S31520000310FEE7FEE7FEE7FEE7FEE7FEE7FEE7FEE78F
S31520000320FEE7FEE7FEE7FEE7FEE7FEE7FEE7FEE77F
S31520000330FEE7FEE7FEE7FEE7FEE7FEE7FEE7FEE76F
S31520000340FEE7FEE7FEE7FEE7FEE7FEE7FEE7FEE75F
S31520000350FEE7FEE7FEE7FEE7FEE7FEE7FEE7FEE74F
S31520000360FEE7FEE7FEE7FEE7FEE7FEE7FEE7FEE73F
S31520000370FEE7FEE7FEE7FEE7FEE7FEE7FEE7FEE72F
S31520000380FEE7FEE7FEE7FEE7FEE7FEE7FEE7FEE71F
S31520000390FEE7FEE7FEE7FEE7FEE7FEE7FEE7FEE70F
S315200003A0FEE7FEE7FEE7FEE7FEE7FEE7FEE7FEE7FF
S315200003B0FEE7FEE7FEE7FEE7FEE7FEE7FEE7FEE7EF
S315200003C0FEE7FEE7FEE7FEE7FEE7FEE7FEE7FEE7DF
S315200003D0FEE7FEE7FEE7FEE7FEE7FEE7FEE7FEE7CF
S315200003E0FEE7FEE7FEE7FEE7FEE7FEE7FEE7FEE7BF
S315200003F0FEE7FEE7FEE7FEE7FEE7FEE7FEE7FEE7AF
S31520000400FEE7FEE7FEE7FEE7FEE7FEE7FEE7FEE79E
S31520000410FEE7FEE7FEE7FEE7FEE7FEE7FEE7FEE78E
S31520000420FEE7FEE7FEE7FEE7FEE7FEE7FEE7FEE77E
S31520000430FEE7FEE7FEE7FEE7FEE70000611F00207D
S31520000440000000000000002000000020DC25002025
S31520000450DC250020DC250020E4250020000000000B
S31520000460E4250020F8280020D1230020850800203C
S3152000047042F2E453C2F200031A780AB90120187036
S31520000480704700BF42F2DC50C2F2000008B5036894
S315200004902BB140F20003C0F2000303B1984708BD18
S315200004A080B584B002AF42F20470C2F2000000F0C0
S315200004B061FA42F2F443C2F200031B78009342F23F
S315200004C00470C2F200004FF000014FF000024FF01E
S315200004D0070300F099FB4FF009004FF0420101F0AD
S315200004E0F9FC4FF001004FF0800100F06FF94FF05A
S315200004F000033B6003E03B6803F101033B603A687D
S3152000050048F29F63C0F201039A42F4DD4FF00600E1
S3152000051000F034F94FF0010000F030F90346BB71CA
S315200005206FF07F03FB71BA79FB799A4202D04FF0C4
S31520000530010324E04FF00E004FF0000100F046F9D1
S315200005404FF00F004FF0800100F040F900F020F846
S3152000055042F2F840C2F2000000F032F84FF00800F4
S3152000056000F050F808A1D1E9000100F065F84FF03D
S315200005700D004FF0000100F0A3F84FF000031846DD
S3152000058007F10807BD4680BD0000000000988C409A
S3152000059080B500AF42F2EF53C2F200031B78002B66
S315200005A00CD04FF001004FF0010100F00FF942F29C
S315200005B0EF53C2F200034FF000021A7080BD00BF55
S315200005C080B582B000AF78607B681B784FF01D0045
S315200005D0194600F0FBF87B6803F101031B784FF006
S315200005E01E00194600F0F2F87B6803F102031B781F
S315200005F04FF02600194600F0E9F807F10807BD4636
S3152000060080BD00BF80B582B000AF0346FB80FB886B
S315200006104FEA13239BB2DBB24FF02000194600F0BD
S31520000620D5F8FB88DBB24FF02100194600F0CEF852
S3152000063007F10807BD4680BD80B584B000AFC7E985
S315200006400001D7E900011AA3D3E9002301F08EFCAB
S3152000065002460B461046194617A3D3E9002301F09C
S31520000660AFFD02460B461046194601F091FE0346A1
S31520000670FB60FB684FEA1343DBB24FF006001946D6
S3152000068000F0A4F8FB684FEA1323DBB24FF0070013
S31520000690194600F09BF8FB68DBB24FF008001946BC
S315200006A000F094F807F11007BD4680BDAFF3008037
S315200006B00000000080842E410000000080844E400F
S315200006C080B582B000AF02460B46FA71BB71BB798A
S315200006D0002B1CD097F907300E2B02DD4FF00E03AE
S315200006E0FB7197F90730B3F1FF3F02DA4FF0FF3382
S315200006F0FB71FB7903F10103DBB243F07003DBB23C
S31520000700DBB24FF00900194600F060F832E097F9A5
S315200007100730172B02DD4FF01703FB7197F90730CF
S31520000720042B02DC4FF00503FB7197F90730142BDD
S315200007300BDD4FF04D004FF0070100F047F8FB7935
S31520000740A3F10303DBB2FB7105E04FF04D004FF040
S31520000750040100F03BF8FB79A3F10503DBB26FEA55
S3152000076043636FEA5363DBB2DBB24FF009001946ED
S3152000077000F02CF807F10807BD4680BD80B584B08F
S3152000078000AF0346FB7142F20470C2F200004FF044
S31520000790000100F0C9FAFB794FEA032342F2047004
S315200007A0C2F20000194600F08BFB0346FB7342F2AF
S315200007B00470C2F200004FF0000100F039FBFB7B11
S315200007C0184607F11007BD4680BD00BF80B584B02E
S315200007D000AF02460B46FA71BB71FB794FEA032341
S315200007E09BB26FEA43436FEA53439AB2BB7942EA1C
S315200007F003039BB2FB8142F20470C2F200004FF069
S31520000800000100F091FAFB8942F20470C2F2000066
S31520000810194600F055FB42F20470C2F200004FF078
S31520000820000100F005FB07F11007BD4680BD00BFA3
S31520000830684620F007018D4689B500AF4FF00100CC
S3152000084001F066FB42F2E553C2F200031B78002B4F
S3152000085007D142F2E553C2F200034FF001021A70AB
S3152000086006E042F2E553C2F200034FF000021A708E
S315200008704FF0010000F016F8BD46BDE889408546D8
S31520000880704700BF80B582B000AF01F0EDFAFFF7E8
S3152000089007FE03467B604FF00003184607F1080762
S315200008A0BD4680BD80B483B000AF0346FB7142F2E3
S315200008B0E053C2F20003FA791A7007F10C07BD461D
S315200008C080BC704780B483B000AF0346FB804EF2F5
S315200008D00013CEF20003B7F906204FEA5212F98828
S315200008E001F01F014FF0010000FA01F143F8221038
S315200008F007F10C07BD4680BC704700BF80B483B0AB
S3152000090000AF0346FB804EF20013CEF20003B7F988
S3152000091006204FEA5212F98801F01F014FF001001C
S3152000092000FA01F102F1200243F8221007F10C0728
S31520000930BD4680BC704700BF80B483B000AF03467D
S31520000940FB804EF20013CEF20003B7F906204FEAE1
S315200009505212F98801F01F014FF0010000FA01F14F
S3152000096002F1600243F8221007F10C07BD4680BC55
S31520000970704700BF80B584B000AF78607A6842F2D5
S315200009808873C2F200039A4207D07A6842F204734F
S31520000990C2F200039A4200D000BE7B689B881BB23D
S315200009A01846FFF7ABFF78684FF000014FF084023E
S315200009B001F036FD7B684FF001025A624FF00003CA
S315200009C0FB810DE0FB897A6803F106034FEAC30336
S315200009D013444FF0FF325A60FB8903F10103FB8178
S315200009E0FB89072BEED97A6842F28873C2F200039C
S315200009F09A4226D17A6841F20003C4F200031360BA
S31520000A007B684FF00C029A8042F20003CEF2040378
S31520000A1042F20002CEF20402126B42F400721A6312
S31520000A204FF00C00FFF788FF42F20003CEF20403DA
S31520000A3042F20002CEF20402126B22F400721A6312
S31520000A4025E07A6841F20003C4F2010313607B6853
S31520000A504FF00D029A8042F20003CEF2040342F2D6
S31520000A600002CEF20402126B42F480621A634FF047
S31520000A700D00FFF761FF42F20003CEF2040342F2BB
S31520000A800002CEF20402126B22F480621A637B68A3
S31520000A901B687A681268126822F000421A6007F111
S31520000AA01007BD4680BD00BF80B58AB000AF786014
S31520000AB07B681B681B68FB607B681B689B693B61C6
S31520000AC07B681B685B687B617B681B689B6ABB6174
S31520000AD07B681B681B6BFB617B681B685B6B3B62DF
S31520000AE07B681B68DB697B627A6842F28873C2F294
S31520000AF000039A422ED17A6841F20003C4F2000321
S31520000B0013607B684FF00C029A8042F20003CEF20B
S31520000B10040342F20002CEF20402126B42F4007287
S31520000B201A634FF00C00FFF707FF42F20003CEF2E4
S31520000B30040342F20002CEF20402126B22F4007287
S31520000B401A637B681B687A681268126822F0004272
S31520000B501A602DE07A6841F20003C4F201031360A3
S31520000B607B684FF00D029A8042F20003CEF2040316
S31520000B7042F20002CEF20402126B42F480621A6341
S31520000B804FF00D00FFF7D8FE42F20003CEF2040329
S31520000B9042F20002CEF20402126B22F480621A6341
S31520000BA07B681B687A681268126822F000421A6015
S31520000BB0FB6823F00103FB607B681B68FA681A60F8
S31520000BC07B681B683A699A617B681B687A695A60F8
S31520000BD07B681B687A681268126842F001021A6004
S31520000BE07B681B68BA699A627B681B68FA691A6314
S31520000BF07B681B683A6A5A637B681B687A6ADA6183
S31520000C0007F12807BD4680BD80B584B000AFF860E7
S31520000C107A600A46FA72FB70FA6842F28873C2F268
S31520000C2000039A4207D0FA6842F20473C2F2000324
S31520000C309A4200D000BEFB7A072B00D900BE3B7E2D
S31520000C40202B00D900BEFB689B881BB21846FFF7F5
S31520000C5055FEFB684FF0000283F88020FB681B6876
S31520000C60FA681268126822F001021A60FB681B6893
S31520000C70FA681268126842F002021A60FB681B6862
S31520000C80FA681268126842F001021A60FB7A072B92
S31520000C903FD87B68002B0BD07B68B3F1007F07D051
S31520000CA07B68B3F1807F03D07B68B3F1407F0FD19F
S31520000CB0FA7A796840F20213C2F2004341EA03034A
S31520000CC0F96802F106024FEAC2020A4453600EE0B6
S31520000CD0FA7A796840F20213C2F2000341EA03036A
S31520000CE0F96802F106024FEAC2020A445360FB7A0F
S31520000CF0FA6803F106034FEAC30313443A7E1A72D5
S31520000D00FB7AFA6803F106034FEAC3031344FA7821
S31520000D105A72FB689B881BB21846FFF7D3FD07F172
S31520000D201007BD4680BD00BF80B584B000AF786097
S31520000D300B46FB707A6842F28873C2F200039A422D
S31520000D4007D07A6842F20473C2F200039A4200D0B6
S31520000D5000BE7B681B681B6803F00203002B00D1D2
S31520000D6000BEFB787A6803F106034FEAC3031344F7
S31520000D705B68B3F1FF3F00D100BE7B689B881BB246
S31520000D801846FFF7BBFD7B681B689B6803F00403CE
S31520000D90FB60FB68002B02D07868FFF785FE7B6836
S31520000DA01B687A681268126822F001021A607B6852
S31520000DB01A68FB78796803F106034FEAC3030B44EC
S31520000DC05B6813607B681A68FB78796803F1060311
S31520000DD04FEAC3030B445B7A93617B681A68FB78FE
S31520000DE0796803F106034FEAC3030B441B7A536069
S31520000DF07B681B687A681268126842F001021A60E2
S31520000E007B681B687A681268D169FA784FF001000E
S31520000E1000FA02F241EA0202DA617B689B881BB281
S31520000E201846FFF74FFD07F11007BD4680BD00BFEE
S31520000E3080B584B000AF78600B46FB707A6842F2CA
S31520000E408873C2F200039A4207D07A6842F204738A
S31520000E50C2F200039A4200D000BE7B681B681B6862
S31520000E6003F00203002B00D100BE7B689B881BB2D7
S31520000E701846FFF743FD7B681B689B6803F0040355
S31520000E80FB60FB68002B02D07868FFF70DFE7B68BD
S31520000E901B687A681268D169FA784FF0010000FA67
S31520000EA002F26FEA020201EA0202DA617B689B889B
S31520000EB01BB21846FFF706FD07F11007BD4680BD99
S31520000EC080B487B000AF786039607A6842F2887360
S31520000ED0C2F200039A4207D07A6842F20473C2F241
S31520000EE000039A4200D000BE7B681B681B6803F093
S31520000EF00203002B00D100BE7B681A687B681B6842
S31520000F00196840F2FF03CFF6007301EA030343F4A6
S31520000F10807313607B681B687A681268D26A42F015
S31520000F200C02DA627B681B689B6803F04003FB6057
S31520000F300BE07B681B681B69BB60BB68BB607B687A
S31520000F401B689B6803F04003FB60FB68002BF0D016
S31520000F507B681B683A685A617B681B689B6803F04C
S31520000F6001037B6105E07B681B689B6803F0010336
S31520000F707B617B69002BF6D07B681B689B6803F03E
S31520000F8002033B6105E07B681B689B6803F0020354
S31520000F903B613B69002BF6D07B681B681B691846B2
S31520000FA007F11C07BD4680BC704700BF80B485B0E2
S31520000FB000AF78604FF00003FB600EE07B681B6893
S31520000FC07A6891687A6812690A4412785A617B684D
S31520000FD01B6903F101027B681A617B681B689B68A9
S31520000FE003F48073002B05D17B681A697B68DB6864
S31520000FF09A42E3D37B681A697B68DB689A421CD3E2
S315200010000EE07B681B687A6851697A68D2690A445F
S3152000101012785A617B68DB6903F101027B68DA6129
S315200010207B681B689B6803F48073002B05D17B6863
S31520001030DA697B689B699A42E3D37B685B6A002BFB
S315200010401FD07B681A697B68DB689A4219D37B6854
S31520001050DA697B689B699A4213D308E07B681B6830
S315200010604FF000025A61FB6803F10103FB607B68C5
S315200010701B689B6803F48073002B02D1FB681F2B2F
S31520001080ECD907F11407BD4680BC704780B584B003
S3152000109000AF78607B6893F88030022B15D10CE086
S315200010A07B681B681B69FB607B685B6F002B04D029
S315200010B07B685B6FFA68104698477B681B689B685D
S315200010C003F04003002BEBD032E07B6893F88030AE
S315200010D0012B25D117E07B681B681B69FB607B68A9
S315200010E01A6B7B68DB6A9A4207D27B689A6A7B68AE
S315200010F01B6B1344FA68D2B21A707B681B6B03F120
S3152000110001027B681A637B681B689B6803F04003B7
S31520001110002BE0D00CE07B681B681B69FB6000E0BD
S3152000112000BF7B681B689B6803F04003002BF2D04E
S3152000113007F11007BD4680BD80B586B000AF786048
S315200011407B681B6803F120033B617A6842F288734F
S31520001150C2F200039A4207D07A6842F20473C2F2BE
S3152000116000039A4200D000BE3B691B6803F00203CD
S31520001170002B52D07B6893F88030022B15D10CE0DF
S315200011807B681B681B69FB607B685B6F002B04D048
S315200011907B685B6FFA68104698477B681B689B687C
S315200011A003F04003002BEBD032E07B6893F88030CD
S315200011B0012B25D117E07B681B681B69FB607B68C8
S315200011C01A6B7B68DB6A9A4207D27B689A6A7B68CD
S315200011D01B6B1344FA68D2B21A707B681B6B03F13F
S315200011E001027B681A637B681B689B6803F04003D7
S315200011F0002BE0D00CE07B681B681B69FB6000E0DD
S3152000120000BF7B681B689B6803F04003002BF2D06D
S315200012107B681B684FF00202DA603B691B6803F0AB
S315200012200103DBB2002B12D07B6893F88030022BAF
S3152000123005D17B681B687A68926F5A6102E07868EC
S31520001240FFF7B4FE7B681B684FF00102DA603B694A
S315200012501B6803F01003002B23D07868FFF716FFD6
S315200012607B681B6A002B0BD07B681B6A7A68916AA5
S315200012707A68126B0846114698477868FFF796FEFB
S315200012807B684FF001025A627B681B687A68126895
S31520001290926A22F010029A627B681B684FF0100255
S315200012A0DA603B691B6803F00403002B0FD07B68D0
S315200012B01B687A681268D26A42F00402DA62786899
S315200012C0FFF7F2FB7B681B684FF00402DA603B698C
S315200012D01B6803F00803002B31D07B681B687A68F3
S315200012E01268D26A42F00802DA627B6893F880308C
S315200012F0022B13D17B681A687B681B68196840F239
S31520001300FF03CFF6007301EA030343F480731360EF
S315200013107B681B687A68926F5A610BE07B6893F84A
S315200013208030012B06D17B684FF000021A61786865
S31520001330FFF73CFE7B681B684FF00802DA603B69CA
S315200013401B6803F02003002B49D07868FFF79EFE28
S315200013507B681B6B7B617B681B6A002B1CD07B68C0
S315200013604FF000025A627B684FF000025A617B6898
S315200013704FF000029A617B684FF00002DA617B68C9
S315200013801B684FF01002DA607B681B687A68126867
S31520001390926A42F010029A627B684FF000021A614C
S315200013A07B681B687A681268D26A42F00C02DA629D
S315200013B07868FFF7FBFD7B684FF000021A637B68B5
S315200013C0DB6F002B06D07B68DB6F7A68926A10464B
S315200013D0796998477B681B684FF02002DA6007F12D
S315200013E01807BD4680BD00BF684620F007018D4620
S315200013F089B500AF42F28870C2F20000FFF79CFE6A
S315200014004FF00C00FFF798FABD46BDE889408546A7
S31520001410704700BF684620F007018D4689B500AFAA
S3152000142042F20470C2F20000FFF786FE4FF00D0074
S31520001430FFF782FABD46BDE889408546704700BF62
S3152000144080B483B000AF0346FB804EF20013CEF289
S315200014500003B7F906204FEA5212F98801F01F015E
S315200014604FF0010000FA01F102F1200243F82210A8
S3152000147007F10C07BD4680BC704700BF80B483B01F
S3152000148000AF0346FB804EF20013CEF20003B7F9FD
S3152000149006204FEA5212F98801F01F014FF0010091
S315200014A000FA01F102F1600243F8221007F10C075D
S315200014B0BD4680BC704700BF80B483B000AF786063
S315200014C07B6893F86830002B04D07B689B694FF0CB
S315200014D001029A6007F10C07BD4680BC704700BF29
S315200014E080B584B000AF78604FF00103BB737A6893
S315200014F042F60C03C2F200039A4207D07A6842F6FB
S315200015008003C2F200039A4200D000BE7B685B696A
S315200015101B79FB72FB7ADBB2A3F10803D02B00F216
S315200015201C8401A252F823F06D1800205B1D0020B8
S315200015305B1D00205B1D00205B1D00205B1D002025
S315200015405B1D00205B1D00206D1800205B1D002008
S315200015505B1D00205B1D00205B1D00205B1D002005
S315200015605B1D00205B1D0020111900205B1D002043
S315200015705B1D00205B1D00205B1D00205B1D0020E5
S315200015805B1D00205B1D0020ED1800205B1D002048
S315200015905B1D00205B1D00205B1D00205B1D0020C5
S315200015A05B1D00205B1D0020111900205B1D002003
S315200015B05B1D00205B1D00205B1D00205B1D0020A5
S315200015C05B1D00205B1D0020A51900205B1D00204F
S315200015D05B1D00205B1D00205B1D00205B1D002085
S315200015E05B1D00205B1D0020E11800205B1D0020F4
S315200015F05B1D00205B1D00205B1D00205B1D002065
S315200016005B1D00205B1D0020C91900205B1D0020EA
S315200016105B1D00205B1D00205B1D00205B1D002044
S315200016205B1D00205B1D0020191A00205B1D002079
S315200016305B1D00205B1D00205B1D00205B1D002024
S315200016405B1D00205B1D00203D1A00205B1D002035
S315200016505B1D00205B1D00205B1D00205B1D002004
S315200016605B1D00205B1D0020771A00205B1D0020DB
S315200016705B1D00205B1D00205B1D00205B1D0020E4
S315200016805B1D00205B1D0020191B00205B1D002018
S315200016905B1D00205B1D00205B1D00205B1D0020C4
S315200016A05B1D00205B1D00200F1B00205B1D002002
S315200016B05B1D00205B1D00205B1D00205B1D0020A4
S315200016C05B1D00205B1D0020191B00205B1D0020D8
S315200016D05B1D00205B1D00205B1D00205B1D002084
S315200016E05B1D00205B1D00200F1B00205B1D0020C2
S315200016F05B1D00205B1D00205B1D00205B1D002064
S315200017005B1D00205B1D00205B1B00205B1D002055
S315200017105B1D00205B1D00205B1D00205B1D002043
S315200017205B1D00205B1D0020DB1A00205B1D0020B6
S315200017305B1D00205B1D00205B1D00205B1D002023
S315200017405B1D00205B1D00205B1B00205B1D002015
S315200017505B1D00205B1D00205B1D00205B1D002003
S315200017605B1D00205B1D0020DB1A00205B1D002076
S315200017705B1D00205B1D00205B1D00205B1D0020E3
S315200017805B1D00205B1D0020B71B00205B1D002079
S315200017905B1D00205B1D00205B1D00205B1D0020C3
S315200017A05B1D00205B1D00208F1C00205B1D002080
S315200017B05B1D00205B1D00205B1D00205B1D0020A3
S315200017C05B1D00205B1D00208F1C00205B1D002060
S315200017D05B1D00205B1D00205B1D00205B1D002083
S315200017E05B1D00205B1D00208F1C00205B1D002040
S315200017F05B1D00205B1D00205B1D00205B1D002063
S315200018005B1D00205B1D0020211D00205B1D00208C
S315200018105B1D00205B1D00205B1D00205B1D002042
S315200018205B1D00205B1D0020211D00205B1D00206C
S315200018305B1D00205B1D00205B1D00205B1D002022
S315200018405B1D00205B1D00205B1D00205B1D002012
S315200018505B1D00205B1D00205B1D00205B1D002002
S315200018605B1D00205B1D0020611C00207B689B699E
S315200018704FF000025A617B685B697A685268D2B27F
S315200018801A727B689B697A68D26AC3F800217B68E2
S31520001890DB6A002B04D17B684FF000029A6207E0D6
S315200018A07B68DB6A012B03D17B684FF000029A63C9
S315200018B07B6893F87130002B04D07B684FF00002D0
S315200018C083F871207B681A7A7B6893F872309A4283
S315200018D000F067827B6893F872207B681A7269E24F
S315200018E07B689B694FF001025A6163E27B689B69C2
S315200018F04FF001021A617B684FF0020283F83C2008
S315200019007B684FF000021A727868FFF7D5FD51E226
S315200019107B689A6A7B685B6A9A420DD27B685A69B1
S315200019207B68196A7B689B6A19440978117203F1EE
S3152000193001027B689A623DE27B681B7A032B09D100
S315200019407B684FF00102DA627B689B694FF00102E7
S315200019505A612FE27B684FF000021A727B681B7C6B
S3152000196003F001037B737B687A7B83F870207B7B93
S31520001970002B08D17B689B694FF001021A617868B9
S31520001980FFF79AFD08E07B685B8A1BB21846FFF7D3
S3152000199057FD4FF00003BB737B684FF0000283F8BE
S315200019A03C2007E27B689B694FF001021A617B6845
S315200019B04FF0020283F83C207B684FF000021A7237
S315200019C07868FFF779FDF5E17B685B6B012B05D91C
S315200019D07B689B694FF001029A60EBE17B685B6B49
S315200019E0012B05D17B689B694FF000029A60E1E1EB
S315200019F07B689B694FF001029A607B689B694FF078
S31520001A0001021A617B684FF0000283F83C207B6854
S31520001A104FF000021A72CDE17B689B694FF00102FC
S31520001A201A617B684FF0020283F83C207B684FF0F6
S31520001A3000021A727868FFF73FFDBBE17B681A6BDC
S31520001A407B689B6B1A4479684969097AC9B2117017
S31520001A5003F101027B689A637B689A6B7B685B6BF8
S31520001A6003F1FF339A42C0F09E817B689B694FF059
S31520001A7000029A609EE17B681A6B7B689B6B13441D
S31520001A807A685269127AD2B21A707B681B7C03F08C
S31520001A9001037B737B687A7B83F870207B7B002B2A
S31520001AA008D17B689B694FF001021A617868FFF7BD
S31520001AB003FD08E07B685B8A1BB21846FFF7C0FC73
S31520001AC04FF00003BB737B684FF000021A727B68ED
S31520001AD04FF0000283F83C206CE17B689B694FF055
S31520001AE001029A607B684FF000021A727B684FF001
S31520001AF0000283F85C207B6893F87130002B00F09D
S31520001B0054817B689B694FF001025A6152E17B68E0
S31520001B104FF0010283F871207B684FF004021A729D
S31520001B207B684FF000029A657B684FF00002DA600E
S31520001B307B689B695B69002B09D07B689B694FF0AA
S31520001B4000025A617B684FF0010283F871207B689E
S31520001B504FF0010283F85C202CE17B681B6D002B83
S31520001B601CD07B689A6D7B685B6D9A4216D27B6827
S31520001B705B691B7A3B737B681A6D7B689B6D1A4485
S31520001B80397B117003F101027B689A657B68DB68FB
S31520001B904FEA03223B7B1A447B68DA607B689A6DA6
S31520001BA07B685B6D9A42C0F002817B689B694FF02F
S31520001BB000029A60FEE07B681B7A042B35D17B6895
S31520001BC09A6D7B681B6E9A4203D17B68DA687B68C4
S31520001BD0DA647B685B6E002B21D07B685B6E7A684B
S31520001BE0116D7A68926D92B2786898470346FB73B6
S31520001BF0FB7B002B08D17868FFF75EFC7B689B692E
S31520001C004FF001029A6017E07B689B694FF0000253
S31520001C109A607B684FF0000283F868200CE07B68AE
S31520001C209B694FF001029A6006E07B684FF0000244
S31520001C30DA647868FFF740FC7B684FF0000283F88F
S31520001C405C207B6893F87130002B04D07B689B69FD
S31520001C504FF001025A617B684FF000021A72A9E028
S31520001C607B684FF000021A727B684FF00002DA643C
S31520001C707B6893F85C30DBB2012B04D17B684FF094
S31520001C80020283F85C207868FFF716FC92E0FB7A64
S31520001C90DBB2A82B1BD17B684FF005021A727B683A
S31520001CA04FF00002DA607B684FF0010283F85C2077
S31520001CB07B689B695B69002B09D07B689B694FF029
S31520001CC000025A617B684FF0010283F871207B681D
S31520001CD0DA6C7B689B6C9A4205D37B685B694FF014
S31520001CE0FF321A720CE07B685A697B68596C7B68F4
S31520001CF0DB6C19440978117203F101027B68DA64FE
S31520001D007B68DA6C7B689B6C9A4252D37B689B69B2
S31520001D104FF000029A607B684FF00002DA6449E0D7
S31520001D207B684FF00002DA647B689B694FF0010202
S31520001D309A607B684FF0000283F85C207B6893F8FA
S31520001D407130002B04D07B689B694FF001025A61E9
S31520001D507B684FF000021A722CE07B689B694FF07B
S31520001D6000025A617B684FF000021A727B684FF0BE
S31520001D700002DA647B6893F83C30DBB2012B04D195
S31520001D807B684FF0020283F83C207B6893F85C3036
S31520001D90DBB2012B0ED17B684FF0020283F85C2068
S31520001DA008E000BF06E000BF04E000BF02E000BF7D
S31520001DB000E000BFBB7B002B04D07B689B694FF003
S31520001DC00002DA607B685B691B79FB7207F11007FA
S31520001DD0BD4680BD684620F007018D4689B500AF17
S31520001DE042F60C00C2F20000FFF77AFB4FF00E001D
S31520001DF0FFF744FBBD46BDE889408546704700BFD6
S31520001E00684620F007018D4689B500AF42F680006E
S31520001E10C2F20000FFF764FB4FF01100FFF72EFB24
S31520001E20BD46BDE889408546704700BF80B483B073
S31520001E3000AF0346FB804EF20013CEF20003B7F943
S31520001E4006204FEA5212F98801F01F014FF00100D7
S31520001E5000FA01F102F1600243F8221007F10C07A3
S31520001E60BD4680BC704700BF80B582B000AF42F24D
S31520001E700003CEF2040342F20002CEF20402126BF9
S31520001E8042F480421A634FF000037B600EE07A68CA
S31520001E9042F27C53C2F2000333F812301BB21846CA
S31520001EA0FFF7C4FF7B6803F101037B607B681F2B70
S31520001EB0EDD942F20003CEF2040342F20002CEF242
S31520001EC00402126B22F480421A6307F10807BD460A
S31520001ED080BD00BF80B485B000AF03463960FB717A
S31520001EE0FB79FB60FB681F2B00D900BEFB681F2B0C
S31520001EF008D8FA6842F2FC43C2F2000353F82230B3
S31520001F003A681A6007F11407BD4680BC704700BFC7
S31520001F1080B584B000AF0346FB71FB79FB60FB689C
S31520001F201F2B00D900BEFB681F2B15D843F20003D8
S31520001F30C4F20103FA684FF0010101FA02F2C3F874
S31520001F408020FA6842F27C53C2F2000333F8123042
S31520001F501BB21846FFF76AFF07F11007BD4680BD82
S31520001F6080B400AFBD4680BC704700BF70B54FF04F
S31520001F70FF0C4CF4E06C1CEA11541DBF1CEA1355EF
S31520001F8094EA0C0F95EA0C0F00F0DEF82C4481EA57
S31520001F90030621EA4C5123EA4C5350EA013518BF77
S31520001FA052EA033541F4801143F4801338D0A0FB64
S31520001FB002CE4FF00005E1FB02E506F00042E0FB11
S31520001FC003E54FF00006E1FB03569CF0000F18BF17
S31520001FD04EF0010EA4F1FF04B6F5007F64F54074BF
S31520001FE004D25FEA4E0E6D4146EB060642EAC62152
S31520001FF041EA55514FEAC52040EA5E504FEACE2EBF
S31520002000B4F1FD0C88BFBCF5E06F1ED8BEF1004FC1
S3152000201008BF5FEA500E50F1000041EB045170BD3D
S3152000202006F0004646EA010140EA020081EA030181
S31520002030B4EB5C04C2BFD4EB0C0541EA045170BD7D
S3152000204041F480114FF0000E013C00F3AB8014F1F7
S31520002050360FDEBF002001F0004170BDC4F1000440
S31520002060203C35DA0C341BDC04F11404C4F12005C1
S3152000207000FA05F320FA04F001FA05F240EA02001C
S3152000208001F0004221F0004110EBD37021FA04F652
S3152000209042EB06015EEA430E08BF20EAD37070BD0C
S315200020A0C4F10C04C4F1200500FA04F320FA05F06B
S315200020B001FA04F240EA020001F0004110EBD3706D
S315200020C041F100015EEA430E08BF20EAD37070BDDD
S315200020D0C4F1200500FA05F24EEA020E20FA04F3B6
S315200020E001FA05F243EA020321FA04F001F0004165
S315200020F021FA04F220EA020000EBD3705EEA430ED6
S3152000210008BF20EAD37070BD94F0000F0FD101F004
S315200021100046400041EB010111F4801F08BF013C3D
S31520002120F7D041EA060195F0000F18BF704703F07B
S315200021300046520043EB030313F4801F08BF013D02
S31520002140F7D043EA0603704794EA0C0F0CEA1355BE
S3152000215018BF95EA0C0F0CD050EA410618BF52EA78
S315200021604306D1D181EA030101F000414FF000007E
S3152000217070BD50EA410606BF1046194652EA43068C
S3152000218019D094EA0C0F02D150EA013613D195EA00
S315200021900C0F05D152EA03361CBF104619460AD148
S315200021A081EA030101F0004141F0FE4141F4700152
S315200021B04FF0000070BD41F0FE4141F4780170BD42
S315200021C070B54FF0FF0C4CF4E06C1CEA11541DBFA7
S315200021D01CEA135594EA0C0F95EA0C0F00F0A7F8A9
S315200021E0A4EB050481EA030E52EA03354FEA0131D6
S315200021F000F088804FEA03334FF0805545EA1313E9
S3152000220043EA12634FEA022245EA111545EA1065B0
S315200022104FEA00260EF000419D4208BF964244F147
S31520002220FD0404F5407402D25B084FEA3202B61A66
S3152000223065EB03055B084FEA32024FF480104FF43A
S31520002240002CB6EB020E75EB030E22BFB61A7546AE
S3152000225040EA0C005B084FEA3202B6EB020E75EB41
S31520002260030E22BFB61A754640EA5C005B084FEAA9
S315200022703202B6EB020E75EB030E22BFB61A754676
S3152000228040EA9C005B084FEA3202B6EB020E75EB81
S31520002290030E22BFB61A754640EADC0055EA060E42
S315200022A018D04FEA051545EA16754FEA06164FEA85
S315200022B0C30343EA52734FEAC2025FEA1C1CC0D131
S315200022C011F4801F0BD141EA00014FF000004FF0BE
S315200022D0004CB6E711F4801F04BF01430020B4F17F
S315200022E0FD0C88BFBCF5E06F3FF6AFAEB5EB030C37
S315200022F004BFB6EB020C5FEA500C50F1000041EB34
S31520002300045170BD0EF0004E4EEA113114EB5C0400
S31520002310C2BFD4EB0C0541EA045170BD41F48011D3
S315200023204FF0000E013C90E645EA060E8DE60CEADB
S31520002330135594EA0C0F08BF95EA0C0F3FF43BAFF8
S3152000234094EA0C0F0AD150EA01347FF434AF95EAAF
S315200023500C0F7FF425AF104619462CE795EA0C0F93
S3152000236006D152EA03353FF4FDAE1046194622E760
S3152000237050EA410618BF52EA43067FF4C5AE50EA3A
S3152000238041047FF40DAF52EA43057FF4EBAE12E72A
S315200023904A0011D212F5001211D20DD56FF47873BE
S315200023A0B3EB62520ED44FEAC12343F0004343EA13
S315200023B0505323FA02F070474FF00000704750EA5E
S315200023C0013002D14FF0FF3070474FF000007047C8
S315200023D070B542F2D45642F2D455C2F20006C2F289
S315200023E00005761BB61006D0002455F8243001349B
S315200023F09847A642F9D842F2D45542F2D856C2F2AC
S315200024000005C2F20006761B00F0D8F8B61006D0FA
S31520002410002455F8243001349847A642F9D870BDD7
S31520002420032AC9B230B407D822B10023C1540133DC
S315200024309342FBD130BC704700EB020C034601E00F
S3152000244003F8011C03F003041A460133002CF7D1CC
S315200024504FF00133C2EB0C0403FB01F31FE042F8FB
S31520002460403C42F83C3C42F8383C42F8343C42F886
S31520002470303C42F82C3C42F8283C42F8243C42F8B6
S31520002480203C42F81C3C42F8183C42F8143C42F8E6
S31520002490103C42F80C3C42F8083C42F8043C1546F5
S315200024A040323F2CA4F14004D9DC2A46C5EB0C046B
S315200024B007E042F8103C42F80C3C42F8083C42F84F
S315200024C0043C154610320F2CA4F11004F1DC2A46E8
S315200024D0C5EB0C0501E042F8043C14460432032DFA
S315200024E0A5F10405F7DC01E004F8011B6445FBD3E4
S315200024F0A0E700BF10000000727400000030014009
S3152000250004300140083001400C30014010300140B9
S3152000251014300140183001401C3001402030014069
S3152000252024300140283001402C3001403030014019
S3152000253034300140383001403C30014040300140C9
S3152000254044300140483001404C3001405030014079
S3152000255054300140583001405C3001406030014029
S3152000256064300140683001406C30014070300140D9
S3152000257074300140783001407C3001402000210039
S3152000258022002300240025002600270028002900F9
S315200025902A002B002C002D002E002F0030003100A9
S315200025A03200330034003500360037003800390059
S315200025B03A003B003C003D003E003F00F8B500BF1E
S315200025C0F8BC08BC9E467047F8B500BFF8BC08BCEE
S311200025D09E467047850400207104002000
S30D200025DC0000000001000000D0
S705200002993F
