S02400006C6F636B4E45545F53465F4D53535F4D53535F434D335F305F6170702E7372656383
S315200000000000012099020020090300200B03002094
S315200000100D0300200F030020110300200000000024
S315200000200000000000000000000000001303002074
S3152000003015030020000000001703002019030020EC
S315200000401B0300201D0300201F0300202103002086
S315200000502303002025030020270300202903002056
S315200000602B0300202D0300202F0300203103002026
S3152000007033030020350300203703002039030020F6
S315200000803B0300203D0300203F03002041030020C6
S315200000904303002045030020470300204903002096
S315200000A04B030020000000000000000000000000BC
S315200000B00000000000000000000000004D030020AA
S315200000C04F03002051030020530300205503002036
S315200000D057030020590300205B0300205D03002006
S315200000E05F030020610300206303002065030020D6
S315200000F067030020690300206B0300206D030020A6
S315200001006F03002071030020730300207503002075
S3152000011077030020790300207B0300207D03002045
S315200001207F03002081030020830300208503002015
S3152000013087030020890300208B0300208D030020E5
S315200001408F030020910300209303002095030020B5
S3152000015097030020990300209B0300209D03002085
S315200001609F030020A1030020A3030020A503002055
S31520000170A7030020A9030020AB030020AD03002025
S31520000180AF030020B1030020B3030020B5030020F5
S31520000190B7030020B9030020BB030020BD030020C5
S315200001A0BF030020C1030020C3030020C503002095
S315200001B0C7030020C9030020CB030020CD03002065
S315200001C0CF030020D1030020D3030020D503002035
S315200001D0D7030020D9030020DB030020DD03002005
S315200001E0DF030020E1030020E3030020E5030020D5
S315200001F0E7030020E9030020EB030020ED030020A5
S31520000200EF030020F1030020F3030020F503002074
S31520000210F7030020F9030020FB030020FD03002044
S31520000220FF03002001040020030400200504002011
S3152000023007040020090400200B0400200D040020E0
S315200002400F040020110400201304002015040020B0
S3152000025017040020190400201B0400201D04002080
S315200002601F04002021040020230400202504002050
S3152000027027040020290400202B0400202D04002020
S315200002802F040020310400203304002035040020F0
S315200002903704002039040020684880476848002831
S315200002A00BD168486849694A884206D091421CBFEA
S315200002B050F8043B41F8043BF8D165486549664A45
S315200002C0884206D091421CBF50F8043B41F8043BBB
S315200002D0F8D162486249634A914218BF41F8040B3B
S315200002E0FAD100000000000000000000000000001D
S315200002F0DFF874010FF2030E00474FF000004FF0B5
S315200003000001DFF868F1FEE7FEE7FEE7FEE7FEE71D
S31520000310FEE7FEE7FEE7FEE7FEE7FEE7FEE7FEE78F
S31520000320FEE7FEE7FEE7FEE7FEE7FEE7FEE7FEE77F
S31520000330FEE7FEE7FEE7FEE7FEE7FEE7FEE7FEE76F
S31520000340FEE7FEE7FEE7FEE7FEE7FEE7FEE7FEE75F
S31520000350FEE7FEE7FEE7FEE7FEE7FEE7FEE7FEE74F
S31520000360FEE7FEE7FEE7FEE7FEE7FEE7FEE7FEE73F
S31520000370FEE7FEE7FEE7FEE7FEE7FEE7FEE7FEE72F
S31520000380FEE7FEE7FEE7FEE7FEE7FEE7FEE7FEE71F
S31520000390FEE7FEE7FEE7FEE7FEE7FEE7FEE7FEE70F
S315200003A0FEE7FEE7FEE7FEE7FEE7FEE7FEE7FEE7FF
S315200003B0FEE7FEE7FEE7FEE7FEE7FEE7FEE7FEE7EF
S315200003C0FEE7FEE7FEE7FEE7FEE7FEE7FEE7FEE7DF
S315200003D0FEE7FEE7FEE7FEE7FEE7FEE7FEE7FEE7CF
S315200003E0FEE7FEE7FEE7FEE7FEE7FEE7FEE7FEE7BF
S315200003F0FEE7FEE7FEE7FEE7FEE7FEE7FEE7FEE7AF
S31520000400FEE7FEE7FEE7FEE7FEE7FEE7FEE7FEE79E
S31520000410FEE7FEE7FEE7FEE7FEE7FEE7FEE7FEE78E
S31520000420FEE7FEE7FEE7FEE7FEE7FEE7FEE7FEE77E
S31520000430FEE7FEE7FEE7FEE7FEE700005D0600209A
S31520000440000000000000002000000020D806002048
S31520000450D8060020D8060020E00600200000000074
S31520000460E0060020E806002069060020A1040020FE
S3152000047040F2E063C2F200031A780AB9012018702C
S31520000480704700BF40F2D860C2F2000008B503688A
S315200004902BB140F20003C0F2000303B1984708BD18
S315200004A080B582B000AF00F083F84FF088004FF09F
S315200004B0BB014FF0EE0200F093F800F0C1F84FF0C8
S315200004C000037B6003E07B6803F101037B607A68AD
S315200004D048F29F63C0F201039A42F4DD4FF47F4055
S315200004E000F06CF800F0ACF84FF000037B6003E0FE
S315200004F07B6803F101037B607A6848F29F63C0F250
S3152000050001039A42F4DD48F60000C0F2200000F014
S3152000051055F800F095F84FF000037B6003E07B6808
S3152000052003F101037B607A6848F29F63C0F20103FE
S315200005309A42F4DD4AF20040C0F2830000F03EF811
S3152000054000F07EF84FF000037B6003E07B6803F148
S3152000055001037B607A6848F29F63C0F201039A42E6
S31520000560F4DD41F23000C0F2900000F027F800F0F0
S3152000057067F84FF000037B6003E07B6803F101031B
S315200005807B607A6848F29F63C0F201039A42F4DDE9
S3152000059049F62510C0F2200000F010F800F050F8BF
S315200005A04FF00003184607F10807BD4680BD00BF7F
S315200005B080B400AFBD4680BC704700BF80B483B016
S315200005C000AF786040F2DC63C2F200031B687A68F1
S315200005D042F080721A6007F10C07BD4680BC704756
S315200005E080B485B000AF13460246FA710A46BA7146
S315200005F07B714FF00003FB60BB794FEA0343FA6837
S3152000060042EA0303FB60FB794FEA0323FA6842EAD6
S315200006100303FB607B79FA6842EA0303FB60FB680D
S3152000062043F08073FB6040F2DC63C2F200031B6878
S31520000630FA681A6007F11407BD4680BC704700BFF0
S3152000064080B400AF40F2DC63C2F200031B684FF0B7
S3152000065000721A60BD4680BC704700BF80B400AFF0
S31520000660BD4680BC704700BF70B540F2D06640F2F0
S31520000670D065C2F20006C2F20005761BB61006D07F
S31520000680002455F8243001349847A642F9D840F280
S31520000690D06540F2D466C2F20005C2F20006761B8F
S315200006A000F00AF8B61006D0002455F8243001349C
S315200006B09847A642F9D870BDF8B500BFF8BC08BC6B
S315200006C09E467047F8B500BFF8BC08BC9E467047EA
S30D200006D08504002071040020BE
S30D200006D80000000000000540AF
S705200002993F
