S02400006C6F636B4E45545F53465F4D53535F4D53535F434D335F305F6170702E7372656383
S315200000000000012099020020090300200B03002094
S315200000100D0300200F030020110300200000000024
S315200000200000000000000000000000001303002074
S3152000003015030020000000001703002019030020EC
S315200000401B0300201D0300201F0300202103002086
S315200000502303002025030020270300202903002056
S315200000602B0300202D0300203512002065120020CE
S315200000704919002079190020751F00203903002016
S315200000803B030020A51F00203F0300204103002042
S315200000904303002045030020470300204903002096
S315200000A04B030020000000000000000000000000BC
S315200000B000000000000000000000000045090020AC
S315200000C04F030020950900205303002055030020EC
S315200000D057030020590300205B0300205D03002006
S315200000E05F030020710900206303002065030020C0
S315200000F067030020690300206B0300206D030020A6
S315200001006F03002071030020730300207503002075
S3152000011077030020790300207B0300207D03002045
S315200001207F03002081030020830300208503002015
S3152000013087030020890300208B0300208D030020E5
S315200001408F030020910300209303002095030020B5
S3152000015097030020990300209B0300209D03002085
S315200001609F030020A1030020A3030020A503002055
S31520000170A7030020A9030020AB030020AD03002025
S31520000180AF030020B1030020B3030020B5030020F5
S31520000190B7030020B9030020BB030020BD030020C5
S315200001A0BF030020C1030020C3030020C503002095
S315200001B0C7030020C9030020CB030020CD03002065
S315200001C0CF030020D1030020D3030020D503002035
S315200001D0D7030020D9030020DB030020DD03002005
S315200001E0DF030020E1030020E3030020E5030020D5
S315200001F0E7030020E9030020EB030020ED030020A5
S31520000200EF030020F1030020F3030020F503002074
S31520000210F7030020F9030020FB030020FD03002044
S31520000220FF03002001040020030400200504002011
S3152000023007040020090400200B0400200D040020E0
S315200002400F040020110400201304002015040020B0
S3152000025017040020190400201B0400201D04002080
S315200002601F04002021040020230400202504002050
S3152000027027040020290400202B0400202D04002020
S315200002802F040020310400203304002035040020F0
S315200002903704002039040020684880476848002831
S315200002A00BD168486849694A884206D091421CBFEA
S315200002B050F8043B41F8043BF8D165486549664A45
S315200002C0884206D091421CBF50F8043B41F8043BBB
S315200002D0F8D162486249634A914218BF41F8040B3B
S315200002E0FAD100000000000000000000000000001D
S315200002F0DFF874010FF2030E00474FF000004FF0B5
S315200003000001DFF868F1FEE7FEE7FEE7FEE7FEE71D
S31520000310FEE7FEE7FEE7FEE7FEE7FEE7FEE7FEE78F
S31520000320FEE7FEE7FEE7FEE7FEE7FEE7FEE7FEE77F
S31520000330FEE7FEE7FEE7FEE7FEE7FEE7FEE7FEE76F
S31520000340FEE7FEE7FEE7FEE7FEE7FEE7FEE7FEE75F
S31520000350FEE7FEE7FEE7FEE7FEE7FEE7FEE7FEE74F
S31520000360FEE7FEE7FEE7FEE7FEE7FEE7FEE7FEE73F
S31520000370FEE7FEE7FEE7FEE7FEE7FEE7FEE7FEE72F
S31520000380FEE7FEE7FEE7FEE7FEE7FEE7FEE7FEE71F
S31520000390FEE7FEE7FEE7FEE7FEE7FEE7FEE7FEE70F
S315200003A0FEE7FEE7FEE7FEE7FEE7FEE7FEE7FEE7FF
S315200003B0FEE7FEE7FEE7FEE7FEE7FEE7FEE7FEE7EF
S315200003C0FEE7FEE7FEE7FEE7FEE7FEE7FEE7FEE7DF
S315200003D0FEE7FEE7FEE7FEE7FEE7FEE7FEE7FEE7CF
S315200003E0FEE7FEE7FEE7FEE7FEE7FEE7FEE7FEE7BF
S315200003F0FEE7FEE7FEE7FEE7FEE7FEE7FEE7FEE7AF
S31520000400FEE7FEE7FEE7FEE7FEE7FEE7FEE7FEE79E
S31520000410FEE7FEE7FEE7FEE7FEE7FEE7FEE7FEE78E
S31520000420FEE7FEE7FEE7FEE7FEE7FEE7FEE7FEE77E
S31520000430FEE7FEE7FEE7FEE7FEE70000FD230020DD
S3152000044000000000000000200000002030260020D0
S315200004503026002030260020402600200000000004
S3152000046040260020102A002001240020BD0900205B
S3152000047042F24063C2F200031A780AB901201870CA
S31520000480704700BF42F23060C2F2000008B5036830
S315200004902BB140F20003C0F2000303B1984708BD18
S315200004A080B400AF43F20003C4F20103D3F88430D2
S315200004B01846BD4680BC704780B500AF01F004FFEA
S315200004C04FF004004FF0020101F02EFF80BD00BF67
S315200004D080B582B000AFFFF7E3FF03467B607B6801
S315200004E0DBB203F010034FEA2313DBB2184607F101
S315200004F00807BD4680BD00BF80B582B000AF4FF073
S31520000500120000F029F90346BB7142F24863C2F299
S3152000051000031B78022B13D1BB7903F0A003002B19
S315200005200ED042F25073C2F200031B889BB203F135
S3152000053001039AB242F25073C2F200031A8081E09C
S3152000054042F24863C2F200031B78022B45D1BB79E5
S3152000055003F04003002B40D04FF0130000F0FCF8CE
S315200005600346FB714FF0100000F0F6F803464FF0FB
S315200005700D00194600F014F9FB794FF0000042F205
S315200005805061C2F200011A4600F048F942F24D636A
S31520000590C2F20003FA791A704FF012004FF0FF01F1
S315200005A000F0FEF84FF01A0000F0D6F80346A3F14B
S315200005B089039BB21A4642F24463C2F200031A80B0
S315200005C000F062F842F24C63C2F200031B78DBB201
S315200005D0002B36D000F040F834E042F24863C2F2F5
S315200005E000031B78032B15D1BB7903F00803002BDE
S315200005F010D042F24E63C2F200031B889BB203F175
S3152000060001039AB242F24E63C2F200031A8000F04E
S3152000061023F817E042F24863C2F200031B78042B4A
S3152000062010D1BB7903F00403002B0BD0BA7902F06A
S31520000630010242F24B63C2F200031A7000F00CF87A
S3152000064000E000BF4FF012004FF0FF0100F0A8F8C5
S3152000065007F10807BD4680BD80B500AF42F248636A
S31520000660C2F200031B78002B0CD04FF001004FF094
S31520000670010100F095F842F24863C2F200034FF000
S3152000068000021A7080BD00BF80B400AF42F24D63F5
S31520000690C2F200031B78DBB2032B59D942F2506316
S315200006A0C2F200031A7842F25973C2F200031A709A
S315200006B042F25063C2F200035A7842F24963C2F210
S315200006C000031A7042F25063C2F200039A7842F293
S315200006D05873C2F200031A7042F25063C2F200034A
S315200006E0DA7842F24A63C2F200031A7042F2416398
S315200006F0C2F200031B78002B14D142F25973C2F2C6
S3152000070000031B78DAB242F23463C2F200031B788C
S315200007109A4207D042F25973C2F200031B78DBB229
S31520000720FF2B16D142F24663C2F200031B889BB20E
S3152000073003F101039AB242F24663C2F200031A8021
S3152000074042F24C63C2F200034FF001021A7000E03D
S3152000075000BFBD4680BC704780B584B000AF03465D
S31520000760FB714FF008004FF0000101F0E9FDFB7925
S315200007704FEA032342F61C00C2F20000194600F09D
S3152000078029FF0346FB734FF008004FF0010101F0EB
S31520000790D7FDFB7B184607F11007BD4680BD00BF7D
S315200007A080B584B000AF02460B46FA71BB71FB7967
S315200007B04FEA03239BB26FEA43436FEA53439AB24D
S315200007C0BB7942EA03039BB2FB8142F61C00C2F2CC
S315200007D000004FF0000100F04FFE4FF008004FF0F0
S315200007E0000101F0ADFDFB8942F61C00C2F20000BB
S315200007F0194600F0EFFE4FF008004FF0010101F01E
S315200008009FFD42F61C00C2F200004FF0000100F0EE
S3152000081099FE07F11007BD4680BD00BF90B589B08F
S3152000082002AFB96013460246FA73FB7142F22553B2
S31520000830C2F200031B78009342F61C00C2F20000AD
S315200008404FF000014FF000024FF0070300F094FD37
S315200008504FF00003FB7442F61C00C2F200004FF07A
S31520000860000100F009FE4FF008004FF0000101F0F2
S3152000087067FDFB7B42F61C00C2F20000194600F021
S31520000880A9FE0346FB744FF000037B6112E07A69F0
S31520000890BB6802EB030442F61C00C2F200004FF0D4
S315200008A0000100F097FE0346DBB223707B6903F15B
S315200008B001037B61FA797B699A42E8DC4FF00800F4
S315200008C04FF0010101F03CFD42F61C00C2F200008F
S315200008D04FF0000100F036FE42F22453C2F200032C
S315200008E01B78009342F61C00C2F200004FF0000174
S315200008F04FF000024FF0070300F03EFDFB7C184648
S3152000090007F11C07BD4690BD80B483B000AF0346F7
S31520000910FB804EF20013CEF20003B7F906204FEA11
S315200009205212F98801F01F014FF0010000FA01F17F
S3152000093002F1600243F8221007F10C07BD4680BC85
S31520000940704700BF684620F007018D4689B500AF85
S3152000095042F24263C2F200034FF001021A704FF0D6
S315200009601F00FFF7D1FFBD46BDE889408546704789
S31520000970684620F007018D4689B500AF4FF0090083
S3152000098001F010FDFFF7B8FDBD46BDE8894085465C
S31520000990704700BF684620F007018D4689B500AF35
S315200009A04FF0010001F0FEFC4FF0000000F090FB3C
S315200009B0BD46BDE889408546704700BF80B582B0F8
S315200009C000AF00F019F84FF000037B6003E07B686E
S315200009D003F101037B607A6844F23F23C0F20F03E0
S315200009E09A42F4DD00F018F84FF00003184607F19C
S315200009F00807BD4680BD00BF80B500AF01F064FC8E
S31520000A0000F0B6FB00F0AAF8FFF756FD00F0BCFB9D
S31520000A1000F0CAF880BD00BF80B584B000AF42F2B6
S31520000A202853C2F200031B687B6042F22C53C2F2A9
S31520000A3000031B683B6000F0FDFA00E000BFFFF7F3
S31520000A4047FD0346012B08D14AF20040C0F283003D
S31520000A5000F08AF800F09AF8F1E700F02DFB034643
S31520000A60002B6AD100F09CF900F076FB0346002BA0
S31520000A7063D14FF00003BB604FF00103FB604FF0E2
S31520000A801103BB6016E000F001FA0246BB6813446E
S31520000A901A78BB68A3F10E0307F110010B4413F873
S31520000AA00C3C9A4202D04FF00003FB60BB6803F176
S31520000AB0FF33BB60BB680D2B02DDFB68012BE2D048
S31520000AC0FB68012B19D100F071FB41F23000C0F216
S31520000AD0900000F049F800F059F84FF00003BB6091
S31520000AE003E0BB6803F10103BB60BA6849F27F6388
S31520000AF0C0F298039A42F4DD1DE0FFF7E9FC0346B5
S31520000B00002B01D100F046FB49F62510C0F220004B
S31520000B1000F02AF800F03AF84FF00003BB6003E03B
S31520000B20BB6803F10103BB60BA6849F27F63C0F278
S31520000B3098039A42F4DD00F07DFAFFF7C9FC0346DC
S31520000B40002B7FF47BAF00F025FB40F28800C0F23B
S31520000B50200000F009F800F019F870E780B400AF23
S31520000B60BD4680BC704700BF80B483B000AF7860BC
S31520000B7042F23863C2F200031B687A6842F0807240
S31520000B801A6007F10C07BD4680BC704780B400AFE1
S31520000B9042F23863C2F200031B684FF000721A60FB
S31520000BA0BD4680BC704700BF80B582B000AF42F61C
S31520000BB09810C2F200004FF024014FF0040201F019
S31520000BC0F5FA4FF000004FF0050101F0ADFB4FF0B4
S31520000BD001004FF0620101F0A7FB4FF0010001F088
S31520000BE0BDFB4FF000004FF0010101F0A9FB4FF0D3
S31520000BF000037B6003E07B6803F101037B607A6876
S31520000C0048F29F63C0F201039A42F4DD4FF00000E0
S31520000C104FF0000101F094FB4FF000037B6003E0EE
S31520000C207B6803F101037B607A684CF2BF63C0F2F4
S31520000C302D039A42F4DD4FF000004FF0010101F040
S31520000C407FFB4FF000037B6003E07B6803F1010329
S31520000C507B607A6848F29F63C0F201039A42F4DD12
S31520000C604FF000037B600BE07A6842F26473C2F2B5
S31520000C7000034FF0000199547B6803F101037B6068
S31520000C8042F24953C2F200031B781A467B689A4205
S31520000C90EADC00F0E7F942F23C63C2F200031B787B
S31520000CA0DBB2002BF7D100F07BF842F23C63C2F2B4
S31520000CB000031B78DBB2002BF7D100F071F807F1A7
S31520000CC00807BD4680BD00BF80B586B002AF42F2A0
S31520000CD04853C2F200031B784FF00002009242F6FE
S31520000CE09810C2F200004FF0240142F25C72C2F268
S31520000CF0000201F07DF942F69810C2F200004FF092
S31520000D00000100F051FE4FF000037B604FF001031D
S31520000D10BB604FF00103FB604FF000037B6025E0D2
S31520000D207A6842F25C73C2F200039A5C796842F2F6
S31520000D303053C2F200035B5C9A4202D04FF00003AC
S31520000D40BB607A6842F25C73C2F200039A5C7968EF
S31520000D5042F23853C2F200035B5C9A4202D04FF053
S31520000D600003FB607B6803F101037B6042F248537A
S31520000D70C2F200031B781A467B689A42D0DCBB6815
S31520000D80002B02D0FB68002B02D04FF0000301E0BD
S31520000D904FF00103184607F11007BD4680BD00BF7E
S31520000DA080B584B002AF4FF0010000F091F942F215
S31520000DB04363C2F200031B78002B51D04FF000038F
S31520000DC03B604FF000033B600BE03A6842F26473ED
S31520000DD0C2F200034FF0000199543B6803F101036E
S31520000DE03B6042F24953C2F200031B781A463B6825
S31520000DF09A42EADC4FF000037B601DE000F078F9B0
S31520000E0003464FF00002009242F69810C2F200000C
S31520000E104FF0240142F26472C2F2000201F0E8F8B7
S31520000E2042F69810C2F200004FF0000100F0BCFD1F
S31520000E307B6803F101037B6042F26473C2F2000314
S31520000E401B78012B02D07B68092BD7DD42F2436346
S31520000E50C2F200034FF000021A704FF0000310E0B8
S31520000E60FFF732FF0346002B09D042F24363C2F25A
S31520000E7000034FF001021A704FF0010301E04FF01A
S31520000E800003184607F10807BD4680BD80B400AFB1
S31520000E9042F26473C2F200031846BD4680BC704716
S31520000EA080B58EB002AFB96013460246FA73FB7165
S31520000EB04FF000033B853B8D07F1300003444FF094
S31520000EC0000203F81C2C3B8D03F101033B853B8D6F
S31520000ED007F130010B444FF0000203F81C2C3B8D28
S31520000EE003F101033B853B8D07F1300213444FF09C
S31520000EF0FF3203F81C2C3B8D03F101033B853B8D10
S31520000F00FA7902F10202D2B207F13000034403F863
S31520000F101C2C3B8D03F101033B85398DFB79C3F1F5
S31520000F207F4303F57F0303F57F4303F1FE03DAB224
S31520000F3007F1300000EB010303F81C2C3B8D03F175
S31520000F4001033B853B8D07F130010B446FF02B02EB
S31520000F5003F81C2C3B8D03F101033B85FB7BA3F19E
S31520000F602C0387F82B303B8D07F130021344FA7B94
S31520000F7003F81C2C3B8D03F101033B854FF0000346
S31520000F80FB624FF00003FB621AE0FA6ABB68134467
S31520000F901A7897F82B30134487F82B303B8DF96A53
S31520000FA0BA680A44127807F13000034403F81C2C6F
S31520000FB03B8D03F101033B85FB6A03F10103FB62D1
S31520000FC0FA79FB6A9A42E0DC3B8D97F82B20C2F136
S31520000FD00002D2B207F130010B4403F81C2C3B8DE2
S31520000FE003F101033B853B8D07F1300213444FF09B
S31520000FF0000203F81C2C3B8D03F101033B8507F10E
S3152000100014023B8D4FF00001009142F69810C2F277
S3152000101000004FF0240101F05BF842F69810C2F26E
S3152000102000004FF0000100F0BFFC07F13007BD467D
S3152000103080BD00BF80B500AF4FF04A0042F240515C
S31520001040C2F200014FF00202FFF72AFF42F2C873F4
S31520001050C2F200034FF04A021A704FF001031846FD
S3152000106080BD00BF80B582B000AF42F24C52C2F2C2
S31520001070000207F1040312681146198003F10203E6
S315200010804FEA12421A704FF0140042F24451C2F253
S3152000109000014FF00302FFF703FF42F2C873C2F2CA
S315200010A000034FF014021A704FF00103184607F19F
S315200010B00807BD4680BD00BF80B400AF42F23C6346
S315200010C0C2F200031B78DBB21846BD4680BC7047CF
S315200010D080B483B000AF0346FB7142F23C63C2F298
S315200010E00003FA791A7007F10C07BD4680BC7047D9
S315200010F080B400AF42F2C873C2F200031B78162BED
S3152000110012D0162B06DC042B11D0142B1BD0022B4D
S3152000111007D01BE04A2B13D0602B0BD0322B0CD0E0
S3152000112014E04FF00E0313E04FF0050310E04FF0EC
S3152000113014030DE04FF005030AE04FF0050307E026
S315200011404FF0140304E04FF00A0301E04FF00003D0
S315200011501846BD4680BC704780B400AF42F2436358
S31520001160C2F200031B781846BD4680BC704700BFFC
S3152000117080B400AF40F21C03C4F205034FF0000216
S315200011801A60BD4680BC704780B400AFBD4680BCA7
S31520001190704700BF80B400AF40F20403C4F20503D9
S315200011A04BF2BC121A60BD4680BC704780B400AFBB
S315200011B040F20403C4F2050345F6D8121A60BD4670
S315200011C080BC704708B542F2F473C2F2000398421D
S315200011D007D042F2CC73C2F20003984201D000BE7F
S315200011E008BD03681B7A03F00F030C2B20D8DFE819
S315200011F003F0071F0D1F131F191F1F1F1F1F13008B
S31520001200436A0BB900BE08BD984708BD036A0BB9EF
S3152000121000BE08BD984708BDC3690BB900BE08BD0E
S31520001220984708BD83690BB900BE08BD984708BD1D
S3152000123000BE08BD684620F007018D4601B542F282
S31520001240F470C2F20000FFF7BDFF4EF20013CEF29B
S3152000125000034FF48062C3F88021BDE80140854633
S31520001260704700BF684620F007018D4601B542F25F
S31520001270CC70C2F20000FFF7A5FF4EF20013CEF2AB
S3152000128000034FF40062C3F88021BDE80140854683
S31520001290704700BF2DE9F0070368D3F80080D3F824
S315200012A018C05F689E6A1D6B5C6BD3F81CA042F663
S315200012B0A003C2F20003984224D142F6A003C2F250
S315200012C0000341F20002C4F200021A604FF00C0142
S315200012D0998042F20003CEF20403196B41F40071A7
S315200012E019634EF20011CEF200014FF48059C1F875
S315200012F08091196B21F400711963136823F0004360
S3152000130013601FE041F20002C4F2010202604FF0B6
S315200013100D03838042F20003CEF20403196B41F4DD
S31520001320806119634EF20011CEF200014FF400598C
S31520001330C1F88091196B21F480611963136823F039
S315200013400043136028F0010203681A600368C3F89B
S3152000135018C003685F6003681A6842F001021A60C9
S3152000136003689E6203681D6303685C630368C3F8B1
S315200013701CA0BDE8F0077047F0B49DF8105042F667
S31520001380A00CC2F2000C604506D042F61C0CC2F23C
S31520001390000C604500D000BE072900D900BE202DD4
S315200013A000D900BEB0F804C00FFA8CF64FEA5616E4
S315200013B00CF01F0C4FF0010707FA0CF74EF2001441
S315200013C0CEF2000406F1200644F826704FF0000CF9
S315200013D080F880C00468266826F001062660046826
S315200013E0266846F0020626600468266846F001064E
S315200013F0266007292DD8B2F1007F14BF00240124CE
S31520001400624508BF44F0010454B9B2F1407F14BFCD
S3152000141000240124B2F1807F08BF44F001044CB1BE
S3152000142000EBC10440F2021CC2F2004C42EA0C025C
S31520001430626308E000EBC10440F2021CC2F2000C19
S3152000144042EA0C02626301F1060100EBC1010D7252
S315200014504B7283881AB24FEA521203F01F034FF0E1
S31520001460010101FA03F14EF20013CEF2000343F814
S315200014702210F0BC704700BF38B5044642F6A003E0
S31520001480C2F20003984206D042F61C03C2F20003C1
S31520001490984200D000BE2268136813F0020F00D1D4
S315200014A000BE0D4604EBC1035B6BB3F1FF3F00D1D9
S315200014B000BEA38819B24FEA511103F01F034FF063
S315200014C0010000FA03F04EF20013CEF2000301F100
S315200014D0200143F82100936813F0040F02D0204620
S315200014E0FFF7D8FE23681A6822F001021A602268E4
S315200014F005F1060304EBC303596811602268597A83
S31520001500916122681B7A536023681A6842F00102AF
S315200015101A602268D1694FF0010303FA05F545EAFE
S315200015200105D561A28811B24FEA511102F01F02BE
S3152000153003FA02F24EF20013CEF2000343F8212002
S3152000154038BD00BF38B504460D4642F6A003C2F2A8
S315200015500003984206D042F61C03C2F200039842CA
S3152000156000D000BE2268136813F0020F00D100BE1F
S31520001570A38819B24FEA511103F01F034FF001005F
S3152000158000FA03F04EF20013CEF2000301F120011F
S3152000159043F82100936813F0040F02D02046FFF78A
S315200015A079FE2268D1694FF0010303FA05F521EA95
S315200015B00505D561A28811B24FEA511102F01F022A
S315200015C003FA02F24EF20013CEF2000343F8212072
S315200015D038BD00BF10B483B042F6A003C2F20003A8
S315200015E0984206D042F61C03C2F20003984200D06D
S315200015F000BE03681A6812F0020F00D100BE1C68F4
S3152000160040F2FF02CFF6007204EA020242F4807230
S315200016101A600368DA6A42F00C02DA6203689A6892
S3152000162012F0400F07D11A690192019A01929A6825
S3152000163012F0400FF7D0596103689A6812F0010F33
S3152000164003D19A6812F0010FFBD09A6812F0020FAC
S3152000165003D19A6812F0020FFBD0186903B010BCB0
S31520001660704700BF10B40268936813F4807F13D1CB
S315200016700369C1688B4213D28168CB5C53610369CD
S3152000168003F1010303610268916811F4807F03D19D
S31520001690C1689942F0D803E00269C3689A4217D319
S315200016A00268936813F4807F12D1C36981698B42E3
S315200016B00ED24169CB5C5361C36903F10103C36157
S315200016C00268916811F4807F02D181699942F0D82D
S315200016D0436ACBB10269C3689A4215D3C26983694A
S315200016E09A4211D303689A6812F4807F0CD14FF086
S315200016F0000214465C610368996811F4807F03D167
S3152000170002F10102202AF5D110BC704710B582B033
S31520001710044690F88030022B0CD105E01369019322
S31520001720636F13B1019898472268936813F0400FAE
S31520001730F4D023E0012B03689A6803D012F0400FFF
S3152000174016D01BE012F0400F18D11B690193236BB2
S31520001750E26A93423EBF0199A26AD154236B03F1F8
S315200017600103236323689A6812F0400FEDD005E049
S315200017701A6901929A6812F0400FF9D002B010BD92
S3152000178070B582B00446056842F6A003C2F2000393
S31520001790984206D042F61C03C2F20003984200D0BB
S315200017A000BE2B6A13F0020F38D094F88030022B3B
S315200017B00CD105E013690193636F13B10198984723
S315200017C02268936813F0400FF4D023E0012BAB6816
S315200017D003D013F0400F17D01CE013F0400F19D19F
S315200017E02B461B690193236BE26A93423EBF019904
S315200017F0A26AD154236B03F10103236323689A68F9
S3152000180012F0400FEDD005E02B690193AB6813F081
S31520001810400FF9D023684FF00202DA602B6A13F0EA
S31520001820010F0ED094F88030022B03D12368A26FCB
S315200018305A6102E02046FFF715FF23684FF00102A8
S31520001840DA602B6A13F0100F16D02046FFF75EFFE2
S31520001850236A2BB1A06A216B98472046FFF702FF27
S315200018604FF00103636223689A6A22F010029A629B
S3152000187023684FF01002DA602B6A13F0040F0BD0A6
S315200018802368DA6A42F00402DA622046FFF702FD94
S3152000189023684FF00402DA602B6A13F0080F23D076
S315200018A02368DA6A42F00802DA6294F88030022B62
S315200018B00ED12268116840F2FF03CFF6007301EAC9
S315200018C0030343F4807313602368A26F5A6107E011
S315200018D0012B05D14FF0000323612046FFF7C2FEFE
S315200018E023684FF00802DA602B6A13F0200F29D004
S315200018F02046FFF70BFF266B236A73B14FF00003D8
S3152000190063626361A361E36123684FF01002DA60CA
S3152000191023689A6A42F010029A624FF00005256108
S315200019202368DA6A42F00C02DA622046FFF79AFE52
S315200019302563E36F13B1A06A3146984723684FF0B9
S315200019402002DA6002B070BD684620F007018D469D
S3152000195001B542F6A000C2F20000FFF711FF4EF2D9
S315200019600013CEF200034FF48052C3F88021BDE865
S3152000197001408546704700BF684620F007018D4626
S3152000198001B542F61C00C2F20000FFF7F9FE4EF246
S315200019900013CEF200034FF40052C3F88021BDE8B5
S315200019A001408546704700BF034642F62412C2F224
S315200019B00002904206D042F69812C2F200029042ED
S315200019C000D000BE196493F83C000128FBD0704774
S315200019D090F868301BB183694FF001029A60704716
S315200019E030B583B0044642F62413C2F2000398426F
S315200019F006D042F69813C2F20003984200D000BEE9
S31520001A00626913798DF807309DF80730A3F1080332
S31520001A10D02B00F28E82DFE813F0D1008C028C02EC
S31520001A208C028C028C028C028C02D1008C028C02DD
S31520001A308C028C028C028C028C0206018C028C0297
S31520001A408C028C028C028C028C02F7008C028C0297
S31520001A508C028C028C028C028C0206018C028C0277
S31520001A608C028C028C028C028C0244018C028C0229
S31520001A708C028C028C028C028C02F2008C028C026C
S31520001A808C028C028C028C028C0253018C028C02FA
S31520001A908C028C028C028C028C026E018C028C02CF
S31520001AA08C028C028C028C028C027D018C028C02B0
S31520001AB08C028C028C028C028C028F018C028C028E
S31520001AC08C028C028C028C028C02D0018C028C023D
S31520001AD08C028C028C028C028C02CC018C028C0231
S31520001AE08C028C028C028C028C02D0018C028C021D
S31520001AF08C028C028C028C028C02CC018C028C0211
S31520001B008C028C028C028C028C02E6018C028C02E6
S31520001B108C028C028C028C028C02BB018C028C0201
S31520001B208C028C028C028C028C02E6018C028C02C6
S31520001B308C028C028C028C028C02BB018C028C02E1
S31520001B408C028C028C028C028C02FF018C028C028D
S31520001B508C028C028C028C028C0248028C028C0233
S31520001B608C028C028C028C028C0248028C028C0223
S31520001B708C028C028C028C028C0248028C028C0213
S31520001B808C028C028C028C028C027A028C028C02D1
S31520001B908C028C028C028C028C027A028C028C02C1
S31520001BA08C028C028C028C028C028C028C028C029F
S31520001BB08C028C028C028C028C023902A3694FF0B3
S31520001BC000025A61636922791A72A369E26AC3F82C
S31520001BD00021E36A0BB9A36203E0012B04BF0023B3
S31520001BE0A36394F871301BB14FF0000384F8713071
S31520001BF094F87230227A9A4218BF2372AFE1A36911
S31520001C004FF001025A61AAE1A3694FF001021A615D
S31520001C104FF0020384F83C304FF000032372204635
S31520001C20FFF7D6FE9BE1A36A616A8B4206D2216A40
S31520001C30C95C117203F10103A36290E1237A032B9D
S31520001C4005D14FF00103E362A269536187E14FF0AA
S31520001C5000032372237C03F0010384F870303BB920
S31520001C60A3694FF001051D612046FFF7B1FE13E081
S31520001C70638A1AB24FEA521203F01F034FF0010192
S31520001C8001FA03F14EF20013CEF2000302F1200214
S31520001C9043F822104FF000054FF0000384F83C3043
S31520001CA05CE1A3694FF001021A614FF0020384F848
S31520001CB03C304FF0000323722046FFF789FE4EE1A9
S31520001CC0636B012B04D9A3694FF001029A6046E1A8
S31520001CD0012B04D1A3694FF000029A603FE1A2696B
S31520001CE04FF001039360A26913614FF0000384F85B
S31520001CF03C30237233E1A3694FF001021A614FF0A1
S31520001D00020384F83C304FF0000323722046FFF78D
S31520001D105FFE24E1A36B117A226BD15403F10103F8
S31520001D20A363626B02F1FF329342C0F01881A3696C
S31520001D304FF000029A6012E1117A226BA36BD15404
S31520001D40237C03F0010384F870303BB9A3694FF07C
S31520001D5001051D612046FFF73BFE13E0638A1AB298
S31520001D604FEA521203F01F034FF0010101FA03F16B
S31520001D704EF20013CEF2000302F1200243F82210A5
S31520001D804FF000054FF00003237284F83C30E5E065
S31520001D90A3694FF001029A604FF00003237284F882
S31520001DA05C3094F87130002B00F0D980A3695A6119
S31520001DB0D5E04FF0010384F871304FF0040323720D
S31520001DC04FF00003A365E360A3695A6932B14FF06F
S31520001DD000025A614FF0010384F871304FF001037D
S31520001DE084F85C30BBE0216D61B1A36D606D8342E8
S31520001DF00DD2127ACA5403F10103A365E36802EBFC
S31520001E000322E260A26D636D9A42C0F0A880A369A6
S31520001E104FF000029A60A2E0237A042B21D1A26D12
S31520001E20236E9A4204BFE368E364636EA3B120463F
S31520001E30216DB4F85820984738B92046FFF7C8FDD9
S31520001E40A3694FF001029A6011E0A2694FF00003E6
S31520001E50936084F868300AE0A3694FF001029A6023
S31520001E6005E04FF00003E3642046FFF7B1FD4FF095
S31520001E70000384F85C3094F871301BB1A3694FF0ED
S31520001E8001025A614FF00003237268E04FF000030D
S31520001E902372E36494F85C30012B04BF022384F898
S31520001EA05C302046FFF794FD59E09DF80730A82BBB
S31520001EB013D14FF0050323724FF00003E3604FF078
S31520001EC0010384F85C30A3695A6932B14FF00002ED
S31520001ED05A614FF0010384F87130E36CA26C93428F
S31520001EE023BF63694FF0FF321A7262693FBF616C8C
S31520001EF0C95C1172013338BFE364E26CA36C9A4269
S31520001F002DD3A2694FF000039360E36427E04FF0DE
S31520001F100003E364A2694FF00101916084F85C300C
S31520001F2094F871300BB1A36959614FF00003237205
S31520001F3015E0A2694FF0000353612372E36494F81D
S31520001F403C30012B04BF022384F83C3094F85C30EB
S31520001F50012B04BF022384F85C3000E01DB1A36985
S31520001F604FF00002DA6063691B798DF8073003B001
S31520001F7030BD00BF684620F007018D4601B542F608
S31520001F802410C2F20000FFF72BFD4EF20013CEF212
S31520001F9000034FF48042C3F88021BDE80140854606
S31520001FA0704700BF684620F007018D4601B542F60E
S31520001FB09810C2F20000FFF713FD4EF20013CEF286
S31520001FC000034FF40032C3F88021BDE80140854666
S31520001FD0704700BF10B500F009FA04464FF0010023
S31520001FE000F008FA204610BD08B500F003FA08BD37
S31520001FF02DE9F04182B004460D4616461F469DF84F
S31520002000208042F62413C2F20003984206D042F6FC
S315200020109813C2F20003984200D000BEFFF7DAFF01
S31520002020237A13B94FF0020323724FF0020384F888
S3152000203072304FEA450565604FF00103E36226637F
S3152000204067634FF00002A26384F83C3084F8108066
S3152000205094F85C30012B0FBF84F87130A3690122FC
S315200020605A6194F87030012B1DD1A3694FF00002FC
S31520002070DA6063691B798DF807309DF807308DF893
S315200020800730638A1AB24FEA521203F01F034FF049
S31520002090010101FA03F14EF20013CEF2000302F120
S315200020A0600243F82210638A1AB24FEA521203F0F2
S315200020B01F034FF0010101FA03F14EF20013CEF295
S315200020C0000343F82210FFF78FFF02B0BDE8F0812E
S315200020D02DE9F04182B004460D4616461F469DF86E
S315200020E0208042F62413C2F20003984206D042F61C
S315200020F09813C2F20003984200D000BEFFF76AFF91
S31520002100237A13B94FF0010323724FF0010384F8A9
S31520002110723005FA03F565604FF00002E26226622E
S315200021206762A26284F83C3084F8108094F85C30B0
S31520002130012B0FBF84F87130A36901225A6194F8EC
S315200021407030012B1DD1A3694FF00002DA6063695C
S315200021501B798DF807309DF807308DF80730638A94
S315200021601AB24FEA521203F01F034FF0010101FA8F
S3152000217003F14EF20013CEF2000302F1600243F89F
S315200021802210638A1AB24FEA521203F01F034FF04D
S31520002190010101FA03F14EF20013CEF2000343F8D7
S315200021A02210FFF721FF02B0BDE8F0812DE9F041B2
S315200021B004460E46154642F62413C2F20003984200
S315200021C007D042F69813C2F2000398424FD000BEC1
S315200021D04DE0FFF7FFFE074642F62418C2F200083C
S315200021E040464FF000014FF0740200F031F94FF0F5
S315200021F00E03A8F8123042F20003C4F20003C8F816
S31520002200143040F20003C4F20423C8F8183042F216
S315200022100003CEF204031A6B42F400621A634EF2F4
S315200022200012CEF200024FF48041C2F880111A6BE0
S3152000223022F400621A63A369E3614FEA4606266028
S31520002240C5F38002DA61A369C5F340025A60A36927
S3152000225005F001051D60636922781A73A3694FF0A2
S3152000226001029A613846FFF7BFFEBDE8F081FFF70D
S31520002270B1FE074620464FF000014FF0740200F0F1
S31520002280E7F84FF01103638242F20003C4F2010320
S31520002290636140F20003C4F22423A36142F20003E7
S315200022A0CEF204031A6B42F480521A634EF20012E5
S315200022B0CEF200024FF40031C2F880111A6B22F4DC
S315200022C080521A63B7E700BF10B442F20003CEF281
S315200022D004031A6B42F480421A634FF0000342F261
S315200022E05050C2F200004FF0010C4EF20014CEF214
S315200022F00004C25A11B24FEA511102F01F020CFA21
S3152000230002F201F1600144F8212003F10203402B7F
S31520002310EFD142F20003CEF204031A6B22F480427C
S315200023201A6310BC704700BF1F2801D900BE704732
S3152000233042F29053C2F2000353F8203019607047DE
S315200023401F2801D900BE704740F20003C4F226239D
S3152000235000F5886043F82010704700BF1F2801D978
S3152000236000BE704742F29053C2F2000353F8203069
S315200023701A6842F008021A6042F25053C2F2000371
S3152000238033F810301AB24FEA521203F01F034FF0FF
S31520002390010101FA03F14EF20013CEF2000343F8D5
S315200023A0221070471F2801D900BE70474FF0010246
S315200023B002FA00F143F20003C4F20103C3F88010CD
S315200023C042F25053C2F2000333F8103019B24FEAEA
S315200023D0511103F01F0302FA03F24EF20013CEF25C
S315200023E0000301F1600143F821207047EFF31080CC
S315200023F0704700BF80F31088704700BF704700BF4A
S3152000240070B542F2286642F22865C2F20006C2F290
S315200024100005761BB61006D0002455F8243001346A
S315200024209847A642F9D842F2286542F22C66C2F2B3
S315200024300005C2F20006761B00F0EAF8B61006D0B8
S31520002440002455F8243001349847A642F9D870BDA7
S31520002450032AC9B230B407D822B10023C1540133AC
S315200024609342FBD130BC704700EB020C034601E0DF
S3152000247003F8011C03F003041A460133002CF7D19C
S315200024804FF00133C2EB0C0403FB01F31FE042F8CB
S31520002490403C42F83C3C42F8383C42F8343C42F856
S315200024A0303C42F82C3C42F8283C42F8243C42F886
S315200024B0203C42F81C3C42F8183C42F8143C42F8B6
S315200024C0103C42F80C3C42F8083C42F8043C1546C5
S315200024D040323F2CA4F14004D9DC2A46C5EB0C043B
S315200024E007E042F8103C42F80C3C42F8083C42F81F
S315200024F0043C154610320F2CA4F11004F1DC2A46B8
S31520002500C5EB0C0501E042F8043C14460432032DC9
S31520002510A5F10405F7DC01E004F8011B6445FBD3B3
S31520002520A0E700BF100800009B460E89A8561000A1
S31520002530010000FF00FF0000010000FFFF00000077
S3152000254001000000011401000764000001140100CD
S315200025502000210022002300240025002600270039
S31520002560280029002A002B002C002D002E002F00E9
S315200025703000310032003300340035003600370099
S31520002580380039003A003B003C003D003E003F0049
S315200025900030014004300140083001400C30014039
S315200025A01030014014300140183001401C300140E9
S315200025B02030014024300140283001402C30014099
S315200025C03030014034300140383001403C30014049
S315200025D04030014044300140483001404C300140F9
S315200025E05030014054300140583001405C300140A9
S315200025F06030014064300140683001406C30014059
S315200026007030014074300140783001407C30014008
S31520002610F8B500BFF8BC08BC9E467047F8B500BFA9
S31520002620F8BC08BC9E467047850400207104002033
S3152000263000000000370000000000054001000000F7
S705200002993F
