:020000042000DA
:100000000000012099020020090300200B030020BA
:100010000D0300200F03002011030020000000004A
:10002000000000000000000000000000130300209A
:100030001503002000000000170300201903002012
:100040001B0300201D0300201F03002021030020AC
:10005000230300202503002027030020290300207C
:100060002B0300202D0300202F030020310300204C
:10007000330300203503002025150020390300201C
:100080003B030020511500203F03002041030020C6
:1000900043030020450300204703002049030020BC
:1000A0004B030020000000000000000000000000E2
:1000B000000000000000000000000000A10400207B
:1000C0004F0300205103002053030020550300205C
:1000D00057030020590300205B0300205D0300202C
:1000E0005F030020610300206303002065030020FC
:1000F00067030020690300206B0300206D030020CC
:100100006F0300207103002073030020750300209B
:1001100077030020790300207B0300207D0300206B
:100120007F0300208103002083030020850300203B
:1001300087030020890300208B0300208D0300200B
:100140008F030020910300209303002095030020DB
:1001500097030020990300209B0300209D030020AB
:100160009F030020A1030020A3030020A50300207B
:10017000A7030020A9030020AB030020AD0300204B
:10018000AF030020B1030020B3030020B50300201B
:10019000B7030020B9030020BB030020BD030020EB
:1001A000BF030020C1030020C3030020C5030020BB
:1001B000C7030020C9030020CB030020CD0300208B
:1001C000CF030020D1030020D3030020D50300205B
:1001D000D7030020D9030020DB030020DD0300202B
:1001E000DF030020E1030020E3030020E5030020FB
:1001F000E7030020E9030020EB030020ED030020CB
:10020000EF030020F1030020F3030020F50300209A
:10021000F7030020F9030020FB030020FD0300206A
:10022000FF03002001040020030400200504002037
:1002300007040020090400200B0400200D04002006
:100240000F040020110400201304002015040020D6
:1002500017040020190400201B0400201D040020A6
:100260001F04002021040020230400202504002076
:1002700027040020290400202B0400202D04002046
:100280002F04002031040020330400203504002016
:100290003704002039040020684880476848002857
:1002A0000BD168486849694A884206D091421CBF10
:1002B00050F8043B41F8043BF8D165486549664A6B
:1002C000884206D091421CBF50F8043B41F8043BE1
:1002D000F8D162486249634A914218BF41F8040B61
:1002E000FAD1000000000000000000000000000043
:1002F000DFF874010FF2030E00474FF000004FF0DB
:100300000001DFF868F1FEE7FEE7FEE7FEE7FEE743
:10031000FEE7FEE7FEE7FEE7FEE7FEE7FEE7FEE7B5
:10032000FEE7FEE7FEE7FEE7FEE7FEE7FEE7FEE7A5
:10033000FEE7FEE7FEE7FEE7FEE7FEE7FEE7FEE795
:10034000FEE7FEE7FEE7FEE7FEE7FEE7FEE7FEE785
:10035000FEE7FEE7FEE7FEE7FEE7FEE7FEE7FEE775
:10036000FEE7FEE7FEE7FEE7FEE7FEE7FEE7FEE765
:10037000FEE7FEE7FEE7FEE7FEE7FEE7FEE7FEE755
:10038000FEE7FEE7FEE7FEE7FEE7FEE7FEE7FEE745
:10039000FEE7FEE7FEE7FEE7FEE7FEE7FEE7FEE735
:1003A000FEE7FEE7FEE7FEE7FEE7FEE7FEE7FEE725
:1003B000FEE7FEE7FEE7FEE7FEE7FEE7FEE7FEE715
:1003C000FEE7FEE7FEE7FEE7FEE7FEE7FEE7FEE705
:1003D000FEE7FEE7FEE7FEE7FEE7FEE7FEE7FEE7F5
:1003E000FEE7FEE7FEE7FEE7FEE7FEE7FEE7FEE7E5
:1003F000FEE7FEE7FEE7FEE7FEE7FEE7FEE7FEE7D5
:10040000FEE7FEE7FEE7FEE7FEE7FEE7FEE7FEE7C4
:10041000FEE7FEE7FEE7FEE7FEE7FEE7FEE7FEE7B4
:10042000FEE7FEE7FEE7FEE7FEE7FEE7FEE7FEE7A4
:10043000FEE7FEE7FEE7FEE7FEE70000D916002034
:10044000000000000000002000000020E81800204C
:10045000E8180020E8180020EC1800200000000038
:10046000EC180020D8190020E5160020B504002063
:1004700041F6EC03C2F200031A780AB901201870A1
:10048000704700BF41F6E800C2F2000008B50368FB
:100490002BB140F20003C0F2000303B1984708BD3E
:1004A000684620F007018D4681B400AFBD4681BC8F
:1004B0008546704780B588B000AF01F07DF800F048
:1004C00033F84FF002033B703B4618464FF00101F2
:1004D00000F0A0F84FF00003FB6103E0FB6903F1BB
:1004E0000103FB61FA6940F2CF739A42F6DD07F12E
:1004F000140318464FF0070100F06CF84FF00003AA
:10050000FB6103E0FB6903F10103FB61FA6940F25F
:10051000CF739A42F6DD07F1040318464FF00E013F
:1005200000F058F8EAE700BF80B582B000AF41F6AE
:100530006410C2F200004FF024014FF0040200F0FA
:1005400075F94FF000004FF0050101F06BF84FF026
:1005500000004FF0010101F083F84FF000037B60D1
:1005600003E07B6803F101037B607A6848F29F63D4
:10057000C0F201039A42F4DD4FF000004FF0000199
:1005800001F06EF84FF000037B6003E07B6803F13D
:1005900001037B607A684CF2BF63C0F22D039A427C
:1005A000F4DD4FF000004FF0010101F059F84FF079
:1005B00000037B6003E07B6803F101037B607A68E2
:1005C00048F29F63C0F201039A42F4DD07F1080785
:1005D000BD4680BD80B584B002AF78600B46FB702D
:1005E000FB784FF00002009241F66410C2F2000066
:1005F0004FF024017A6800F049FA41F66410C2F223
:1006000000004FF0000100F0BBFA07F10807BD46FB
:1006100080BD00BF80B58CB002AF78600B46FB7028
:100620004FF000033B843B8C07F128010B444FF053
:10063000000203F81C2C3B8C03F101033B843B8C30
:1006400007F1280213444FF0000203F81C2C3B8CE6
:1006500003F101033B843B8C07F128010B444FF06D
:10066000FF3203F81C2C3B8C03F101033B843B8CD1
:10067000FA7802F10102D2B207F128010B4403F823
:100680001C2C3B8C03F101033B843B8CFA786FEA12
:100690000202D2B207F128010B4403F81C2C3B8C58
:1006A00003F101033B843B8C07F1280213446FF0F4
:1006B0002B0203F81C2C3B8C03F101033B846FF0ED
:1006C0002B0387F823304FF000037B624FF00003C9
:1006D0007B621AE07A6A7B6813441A7897F82330B1
:1006E000134487F823303B8C796A7A680A4412787D
:1006F00007F128010B4403F81C2C3B8C03F1010388
:100700003B847B6A03F101037B62FA787B6A9A423D
:10071000E0DC3B8C97F82320C2F10002D2B207F153
:1007200028010B4403F81C2C3B8C03F101033B8490
:100730003B8C07F1280213444FF0000203F81C2CF5
:100740003B8C03F101033B8407F10C023B8C4FF01F
:100750000001009141F66410C2F200004FF0240144
:1007600000F01AF941F66410C2F200004FF00001E7
:1007700000F006FA07F12807BD4680BD80B483B0BB
:1007800000AF0346FB804EF20013CEF20003B7F930
:1007900006204FEA5212F98801F01F014FF00100C4
:1007A00000FA01F143F8221007F10C07BD4680BCA6
:1007B000704700BF80B483B000AF0346FB804EF2A9
:1007C0000013CEF20003B7F906204FEA5212F9885F
:1007D00001F01F014FF0010000FA01F102F12002C7
:1007E00043F8221007F10C07BD4680BC704700BFDC
:1007F00080B483B000AF0346FB804EF20013CEF20C
:100800000003B7F906204FEA5212F98801F01F01E0
:100810004FF0010000FA01F102F1600243F82210EA
:1008200007F10C07BD4680BC704700BF80B584B09F
:1008300000AF786013460A46FA70BB70BB78FB6065
:100840007A6841F6F003C2F200039A4207D07A6850
:1008500041F66413C2F200039A4200D000BE00F0D9
:1008600043FE0346BB6078684FF000014FF074020E
:1008700000F060FF7A6841F6F003C2F200039A428A
:100880002CD17B684FF00E025A827A6842F2000344
:10089000C4F2000353617A6840F20003C4F20423F7
:1008A000936142F20003CEF2040342F20002CEF260
:1008B0000402126B42F400621A634FF00E00FFF75D
:1008C00097FF42F20003CEF2040342F20002CEF29E
:1008D0000402126B22F400621A632BE07B684FF073
:1008E00011025A827A6842F20003C4F20103536192
:1008F0007A6840F20003C4F22423936142F20003B9
:10090000CEF2040342F20002CEF20402126B42F471
:1009100080521A634FF01100FFF76AFF42F20003A2
:10092000CEF2040342F20002CEF20402126B22F471
:1009300080521A637B689B691A467B68DA61FB7890
:100940004FEA43027B681A607B689B69FA684FEA4A
:10095000920202F00102DA617B689B69FA684FEA51
:10096000520202F001025A607B689B69FA6802F049
:1009700001021A607B685B697A681268D2B21A73E6
:100980007B689B694FF001029A61B86800F0BEFD78
:1009900007F11007BD4680BD80B586B000AFF86096
:1009A0007A600A46FA727B80FA6841F6F003C2F276
:1009B00000039A4207D0FA6841F66413C2F20003BA
:1009C0009A4200D000BE00F08FFD03467B61FB68B9
:1009D0001B7A002B03D1FB684FF001021A72FB68EF
:1009E0004FF0010283F87220FB7A4FEA4302FB6862
:1009F0005A60FB684FF00002DA62FB687A681A629C
:100A00007A88FB685A62FB684FF000029A62FB68C2
:100A10004FF0010283F83C20FB6897F820201A74FD
:100A2000FB6893F85C30DBB2012B05D1FB684FF01B
:100A3000010283F8712004E0FB689B694FF001021A
:100A40005A61FB6893F87030012B11D1FB689B69E8
:100A50004FF00002DA60FB685B691B79FB74FB7C7A
:100A6000DBB2FB74FB685B8A1BB21846FFF7C0FE63
:100A7000FB685B8A1BB21846FFF780FE786900F0BE
:100A800045FD07F11807BD4680BD00BF80B586B0A3
:100A900000AFF8607A600A46FA727B80FA6841F625
:100AA000F003C2F200039A4207D0FA6841F66413D9
:100AB000C2F200039A4200D000BE00F015FD0346CA
:100AC0007B61FB681B7A002B03D1FB684FF00202AD
:100AD0001A72FB684FF0020283F87220FB7A4FEA29
:100AE0004302FB685A60FB684FF00102DA62FB6860
:100AF0007A681A637A88FB685A63FB684FF00002D1
:100B00009A63FB684FF0010283F83C20FB6897F87A
:100B100020201A74FB6893F85C30DBB2012B05D1FE
:100B2000FB684FF0010283F8712004E0FB689B69C9
:100B30004FF001025A61FB6893F87030012B11D11C
:100B4000FB689B694FF00002DA60FB685B691B7908
:100B5000FB74FB7CDBB2FB74FB685B8A1BB2184640
:100B6000FFF746FEFB685B8A1BB21846FFF706FEDE
:100B7000786900F0CBFC07F11807BD4680BD00BFC7
:100B800080B485B000AF786039607A6841F6F003D0
:100B9000C2F200039A4207D07A6841F66413C2F2A7
:100BA00000039A4200D000BE7B683A681A647B68F2
:100BB00093F83C30FB73FB7B012BF8D0FB7B184692
:100BC00007F11407BD4680BC704700BF80B483B0F6
:100BD00000AF78607B6893F86830002B04D07B68A6
:100BE0009B694FF001029A6007F10C07BD4680BC7B
:100BF000704700BF80B584B000AF78604FF001034C
:100C0000BB737A6841F6F003C2F200039A4207D040
:100C10007A6841F66413C2F200039A4200D000BE23
:100C20007B685B691B79FB72FB7ADBB2A3F108037B
:100C3000D02B00F21C8401A252F823F0810F002077
:100C40006F1400206F1400206F1400206F14002018
:100C50006F1400206F1400206F140020810F0020FB
:100C60006F1400206F1400206F1400206F140020F8
:100C70006F1400206F1400206F1400202510002036
:100C80006F1400206F1400206F1400206F140020D8
:100C90006F1400206F1400206F140020011000203A
:100CA0006F1400206F1400206F1400206F140020B8
:100CB0006F1400206F1400206F14002025100020F6
:100CC0006F1400206F1400206F1400206F14002098
:100CD0006F1400206F1400206F140020B910002042
:100CE0006F1400206F1400206F1400206F14002078
:100CF0006F1400206F1400206F140020F50F0020E7
:100D00006F1400206F1400206F1400206F14002057
:100D10006F1400206F1400206F140020DD100020DD
:100D20006F1400206F1400206F1400206F14002037
:100D30006F1400206F1400206F1400202D1100206C
:100D40006F1400206F1400206F1400206F14002017
:100D50006F1400206F1400206F1400205111002028
:100D60006F1400206F1400206F1400206F140020F7
:100D70006F1400206F1400206F1400208B110020CE
:100D80006F1400206F1400206F1400206F140020D7
:100D90006F1400206F1400206F1400202D1200200B
:100DA0006F1400206F1400206F1400206F140020B7
:100DB0006F1400206F1400206F14002023120020F5
:100DC0006F1400206F1400206F1400206F14002097
:100DD0006F1400206F1400206F1400202D120020CB
:100DE0006F1400206F1400206F1400206F14002077
:100DF0006F1400206F1400206F14002023120020B5
:100E00006F1400206F1400206F1400206F14002056
:100E10006F1400206F1400206F1400206F12002048
:100E20006F1400206F1400206F1400206F14002036
:100E30006F1400206F1400206F140020EF110020A9
:100E40006F1400206F1400206F1400206F14002016
:100E50006F1400206F1400206F1400206F12002008
:100E60006F1400206F1400206F1400206F140020F6
:100E70006F1400206F1400206F140020EF11002069
:100E80006F1400206F1400206F1400206F140020D6
:100E90006F1400206F1400206F140020CB1200206C
:100EA0006F1400206F1400206F1400206F140020B6
:100EB0006F1400206F1400206F140020A313002073
:100EC0006F1400206F1400206F1400206F14002096
:100ED0006F1400206F1400206F140020A313002053
:100EE0006F1400206F1400206F1400206F14002076
:100EF0006F1400206F1400206F140020A313002033
:100F00006F1400206F1400206F1400206F14002055
:100F10006F1400206F1400206F140020351400207F
:100F20006F1400206F1400206F1400206F14002035
:100F30006F1400206F1400206F140020351400205F
:100F40006F1400206F1400206F1400206F14002015
:100F50006F1400206F1400206F1400206F14002005
:100F60006F1400206F1400206F1400206F140020F5
:100F70006F1400206F1400206F14002075130020E0
:100F80007B689B694FF000025A617B685B697A68F5
:100F90005268D2B21A727B689B697A68D26AC3F8C7
:100FA00000217B68DB6A002B04D17B684FF00002D4
:100FB0009A6207E07B68DB6A012B03D17B684FF004
:100FC00000029A637B6893F87130002B04D07B6831
:100FD0004FF0000283F871207B681A7A7B6893F8DF
:100FE00072309A4200F067827B6893F872207B68C7
:100FF0001A7269E27B689B694FF001025A6163E2F1
:101000007B689B694FF001021A617B684FF0020216
:1010100083F83C207B684FF000021A727868FFF773
:10102000D5FD51E27B689A6A7B685B6A9A420DD271
:101030007B685A697B68196A7B689B6A19440978DE
:10104000117203F101027B689A623DE27B681B7AB0
:10105000032B09D17B684FF00102DA627B689B6940
:101060004FF001025A612FE27B684FF000021A72C2
:101070007B681B7C03F001037B737B687A7B83F8BE
:1010800070207B7B002B08D17B689B694FF00102AD
:101090001A617868FFF79AFD08E07B685B8A1BB2EB
:1010A0001846FFF787FB4FF00003BB737B684FF0D8
:1010B000000283F83C2007E27B689B694FF0010245
:1010C0001A617B684FF0020283F83C207B684FF086
:1010D00000021A727868FFF779FDF5E17B685B6BB7
:1010E000012B05D97B689B694FF001029A60EBE107
:1010F0007B685B6B012B05D17B689B694FF000021D
:101100009A60E1E17B689B694FF001029A607B681D
:101110009B694FF001021A617B684FF0000283F86F
:101120003C207B684FF000021A72CDE17B689B691E
:101130004FF001021A617B684FF0020283F83C20F5
:101140007B684FF000021A727868FFF73FFDBBE141
:101150007B681A6B7B689B6B1A4479684969097ACA
:10116000C9B2117003F101027B689A637B689A6BC4
:101170007B685B6B03F1FF339A42C0F09E817B6812
:101180009B694FF000029A609EE17B681A6B7B6856
:101190009B6B13447A685269127AD2B21A707B68D8
:1011A0001B7C03F001037B737B687A7B83F87020E0
:1011B0007B7B002B08D17B689B694FF001021A6191
:1011C0007868FFF703FD08E07B685B8A1BB218466E
:1011D000FFF7F0FA4FF00003BB737B684FF000029B
:1011E0001A727B684FF0000283F83C206CE17B6848
:1011F0009B694FF001029A607B684FF000021A72FF
:101200007B684FF0000283F85C207B6893F87130B4
:10121000002B00F054817B689B694FF001025A61FA
:1012200052E17B684FF0010283F871207B684FF038
:1012300004021A727B684FF000029A657B684FF0D7
:101240000002DA607B689B695B69002B09D07B68D0
:101250009B694FF000025A617B684FF0010283F8EE
:1012600071207B684FF0010283F85C202CE17B68E1
:101270001B6D002B1CD07B689A6D7B685B6D9A425E
:1012800016D27B685B691B7A3B737B681A6D7B683F
:101290009B6D1A44397B117003F101027B689A65DA
:1012A0007B68DB684FEA03223B7B1A447B68DA6089
:1012B0007B689A6D7B685B6D9A42C0F002817B68A7
:1012C0009B694FF000029A60FEE07B681B7A042B5A
:1012D00035D17B689A6D7B681B6E9A4203D17B681F
:1012E000DA687B68DA647B685B6E002B21D07B68F0
:1012F0005B6E7A68116D7A68926D92B278689847E1
:101300000346FB73FB7B002B08D17868FFF75EFC7C
:101310007B689B694FF001029A6017E07B689B69CC
:101320004FF000029A607B684FF0000283F868205B
:101330000CE07B689B694FF001029A6006E07B68D5
:101340004FF00002DA647868FFF740FC7B684FF0EA
:10135000000283F85C207B6893F87130002B04D086
:101360007B689B694FF001025A617B684FF0000275
:101370001A72A9E07B684FF000021A727B684FF086
:101380000002DA647B6893F85C30DBB2012B04D195
:101390007B684FF0020283F85C207868FFF716FC48
:1013A00092E0FB7ADBB2A82B1BD17B684FF00502E1
:1013B0001A727B684FF00002DA607B684FF001021E
:1013C00083F85C207B689B695B69002B09D07B6894
:1013D0009B694FF000025A617B684FF0010283F86D
:1013E00071207B68DA6C7B689B6C9A4205D37B68C2
:1013F0005B694FF0FF321A720CE07B685A697B68B8
:10140000596C7B68DB6C19440978117203F1010295
:101410007B68DA647B68DA6C7B689B6C9A4252D397
:101420007B689B694FF000029A607B684FF0000276
:10143000DA6449E07B684FF00002DA647B689B69FC
:101440004FF001029A607B684FF0000283F85C2045
:101450007B6893F87130002B04D07B689B694FF058
:1014600001025A617B684FF000021A722CE07B681F
:101470009B694FF000025A617B684FF000021A72BC
:101480007B684FF00002DA647B6893F83C30DBB293
:10149000012B04D17B684FF0020283F83C207B686B
:1014A00093F85C30DBB2012B0ED17B684FF0020267
:1014B00083F85C2008E000BF06E000BF04E000BF46
:1014C00002E000BF00E000BFBB7B002B04D07B68C4
:1014D0009B694FF00002DA607B685B691B79FB72E5
:1014E00007F11007BD4680BD80B582B000AF00F0A7
:1014F000D7F803467B604FF0010000F0E1F87B680D
:10150000184607F10807BD4680BD00BF80B582B010
:1015100000AF7860786800F0D3F807F10807BD469F
:1015200080BD00BF684620F007018D4689B500AF39
:1015300041F6F000C2F20000FFF75CFB4FF00E0036
:10154000FFF756F9BD46BDE889408546704700BFA4
:10155000684620F007018D4689B500AF41F664105A
:10156000C2F20000FFF746FB4FF01100FFF740F911
:10157000BD46BDE889408546704700BF80B483B052
:1015800000AF0346FB804EF20013CEF20003B7F922
:1015900006204FEA5212F98801F01F014FF00100B6
:1015A00000FA01F102F1600243F8221007F10C0782
:1015B000BD4680BC704700BF80B582B000AF42F22C
:1015C0000003CEF2040342F20002CEF20402126BD8
:1015D00042F480421A634FF000037B600EE07A68A9
:1015E00041F68803C2F2000333F812301BB21846EA
:1015F000FFF7C4FF7B6803F101037B607B681F2B4F
:10160000EDD942F20003CEF2040342F20002CEF220
:101610000402126B22F480421A6307F10807BD46E8
:1016200080BD00BF80B485B000AF03463960FB7158
:10163000FB79FB60FB681F2B00D900BEFB681F2BEA
:1016400008D8FA6841F60803C2F2000353F82230C2
:101650003A681A6007F11407BD4680BC704700BFA6
:1016600080B485B000AF02460B46FA71BB71FB79BE
:10167000FB60FB681F2B00D900BEFB681F2B09D83D
:1016800040F20003C4F22623FA68B97902F58862B1
:1016900043F8221007F11407BD4680BC704700BF15
:1016A00080B483B000AF4FF000037B60EFF3108392
:1016B0007B607B68184607F10C07BD4680BC70470D
:1016C00080B483B000AF78607B6883F3108807F143
:1016D0000C07BD4680BC704780B400AFBD4680BCDF
:1016E000704700BF70B541F6E00641F6E005C2F272
:1016F0000006C2F20005761BB61006D0002455F88D
:10170000243001349847A642F9D841F6E00541F665
:10171000E406C2F20005C2F20006761B00F0D4F81F
:10172000B61006D0002455F8243001349847A6425C
:10173000F9D870BD032AC9B230B407D822B100234A
:10174000C15401339342FBD130BC704700EB020C13
:10175000034601E003F8011C03F003041A460133B9
:10176000002CF7D14FF00133C2EB0C0403FB01F363
:101770001FE042F8403C42F83C3C42F8383C42F81A
:10178000343C42F8303C42F82C3C42F8283C42F8C9
:10179000243C42F8203C42F81C3C42F8183C42F8F9
:1017A000143C42F8103C42F80C3C42F8083C42F829
:1017B000043C154640323F2CA4F14004D9DC2A46B3
:1017C000C5EB0C0407E042F8103C42F80C3C42F830
:1017D000083C42F8043C154610320F2CA4F11004CA
:1017E000F1DC2A46C5EB0C0501E042F8043C144646
:1017F0000432032DA5F10405F7DC01E004F8011B18
:101800006445FBD3A0E700BF003001400430014035
:10181000083001400C3001401030014014300140CC
:10182000183001401C30014020300140243001407C
:10183000283001402C30014030300140343001402C
:10184000383001403C3001404030014044300140DC
:10185000483001404C30014050300140543001408C
:10186000583001405C30014060300140643001403C
:10187000683001406C3001407030014074300140EC
:10188000783001407C3001402000210022002300FC
:101890002400250026002700280029002A002B000C
:1018A0002C002D002E002F003000310032003300BC
:1018B0003400350036003700380039003A003B006C
:1018C0003C003D003E003F00F8B500BFF8BC08BC3E
:1018D0009E467047F8B500BFF8BC08BC9E467047EE
:0818E0008504002071040020C2
:0418E80000000000FC
:04000005200002993C
:00000001FF
